{
	"contracts/Twitter.sol": {
		"Twitter": {
			"abi": [
				{
					"inputs": [],
					"stateMutability": "nonpayable",
					"type": "constructor"
				},
				{
					"inputs": [],
					"name": "MAX_TWEET_LENGTH",
					"outputs": [
						{
							"internalType": "uint16",
							"name": "",
							"type": "uint16"
						}
					],
					"stateMutability": "view",
					"type": "function"
				},
				{
					"inputs": [
						{
							"internalType": "uint16",
							"name": "newTweetLength",
							"type": "uint16"
						}
					],
					"name": "changeTweetLength",
					"outputs": [],
					"stateMutability": "nonpayable",
					"type": "function"
				},
				{
					"inputs": [
						{
							"internalType": "string",
							"name": "_tweet",
							"type": "string"
						}
					],
					"name": "createTweet",
					"outputs": [],
					"stateMutability": "nonpayable",
					"type": "function"
				},
				{
					"inputs": [],
					"name": "getAllTweets",
					"outputs": [
						{
							"components": [
								{
									"internalType": "uint256",
									"name": "id",
									"type": "uint256"
								},
								{
									"internalType": "address",
									"name": "author",
									"type": "address"
								},
								{
									"internalType": "string",
									"name": "content",
									"type": "string"
								},
								{
									"internalType": "uint256",
									"name": "timestamp",
									"type": "uint256"
								},
								{
									"internalType": "uint256",
									"name": "likes",
									"type": "uint256"
								}
							],
							"internalType": "struct Twitter.Tweet[]",
							"name": "",
							"type": "tuple[]"
						}
					],
					"stateMutability": "view",
					"type": "function"
				},
				{
					"inputs": [
						{
							"internalType": "uint256",
							"name": "_i",
							"type": "uint256"
						}
					],
					"name": "getTweet",
					"outputs": [
						{
							"components": [
								{
									"internalType": "uint256",
									"name": "id",
									"type": "uint256"
								},
								{
									"internalType": "address",
									"name": "author",
									"type": "address"
								},
								{
									"internalType": "string",
									"name": "content",
									"type": "string"
								},
								{
									"internalType": "uint256",
									"name": "timestamp",
									"type": "uint256"
								},
								{
									"internalType": "uint256",
									"name": "likes",
									"type": "uint256"
								}
							],
							"internalType": "struct Twitter.Tweet",
							"name": "",
							"type": "tuple"
						}
					],
					"stateMutability": "view",
					"type": "function"
				},
				{
					"inputs": [
						{
							"internalType": "address",
							"name": "author",
							"type": "address"
						},
						{
							"internalType": "uint256",
							"name": "id",
							"type": "uint256"
						}
					],
					"name": "likeTweet",
					"outputs": [],
					"stateMutability": "nonpayable",
					"type": "function"
				},
				{
					"inputs": [],
					"name": "owner",
					"outputs": [
						{
							"internalType": "address",
							"name": "",
							"type": "address"
						}
					],
					"stateMutability": "view",
					"type": "function"
				},
				{
					"inputs": [
						{
							"internalType": "address",
							"name": "",
							"type": "address"
						},
						{
							"internalType": "uint256",
							"name": "",
							"type": "uint256"
						}
					],
					"name": "tweets",
					"outputs": [
						{
							"internalType": "uint256",
							"name": "id",
							"type": "uint256"
						},
						{
							"internalType": "address",
							"name": "author",
							"type": "address"
						},
						{
							"internalType": "string",
							"name": "content",
							"type": "string"
						},
						{
							"internalType": "uint256",
							"name": "timestamp",
							"type": "uint256"
						},
						{
							"internalType": "uint256",
							"name": "likes",
							"type": "uint256"
						}
					],
					"stateMutability": "view",
					"type": "function"
				},
				{
					"inputs": [
						{
							"internalType": "address",
							"name": "author",
							"type": "address"
						},
						{
							"internalType": "uint256",
							"name": "id",
							"type": "uint256"
						}
					],
					"name": "unlikeTweet",
					"outputs": [],
					"stateMutability": "nonpayable",
					"type": "function"
				}
			],
			"devdoc": {
				"kind": "dev",
				"methods": {},
				"version": 1
			},
			"evm": {
				"assembly": "    /* \"contracts/Twitter.sol\":61:1812  contract Twitter {... */\n  mstore(0x40, 0x80)\n    /* \"contracts/Twitter.sol\":135:138  200 */\n  0xc8\n    /* \"contracts/Twitter.sol\":102:138  uint16 public MAX_TWEET_LENGTH = 200 */\n  0x00\n  dup1\n  0x0100\n  exp\n  dup2\n  sload\n  dup2\n  0xffff\n  mul\n  not\n  and\n  swap1\n  dup4\n  0xffff\n  and\n  mul\n  or\n  swap1\n  sstore\n  pop\n    /* \"contracts/Twitter.sol\":376:427  constructor() {... */\n  callvalue\n  dup1\n  iszero\n  tag_1\n  jumpi\n  0x00\n  dup1\n  revert\ntag_1:\n  pop\n    /* \"contracts/Twitter.sol\":409:419  msg.sender */\n  caller\n    /* \"contracts/Twitter.sol\":401:406  owner */\n  0x00\n  0x02\n    /* \"contracts/Twitter.sol\":401:419  owner = msg.sender */\n  0x0100\n  exp\n  dup2\n  sload\n  dup2\n  0xffffffffffffffffffffffffffffffffffffffff\n  mul\n  not\n  and\n  swap1\n  dup4\n  0xffffffffffffffffffffffffffffffffffffffff\n  and\n  mul\n  or\n  swap1\n  sstore\n  pop\n    /* \"contracts/Twitter.sol\":61:1812  contract Twitter {... */\n  dataSize(sub_0)\n  dup1\n  dataOffset(sub_0)\n  0x00\n  codecopy\n  0x00\n  return\nstop\n\nsub_0: assembly {\n        /* \"contracts/Twitter.sol\":61:1812  contract Twitter {... */\n      mstore(0x40, 0x80)\n      callvalue\n      dup1\n      iszero\n      tag_1\n      jumpi\n      0x00\n      dup1\n      revert\n    tag_1:\n      pop\n      jumpi(tag_2, lt(calldatasize, 0x04))\n      shr(0xe0, calldataload(0x00))\n      dup1\n      0x63378216\n      gt\n      tag_12\n      jumpi\n      dup1\n      0x63378216\n      eq\n      tag_7\n      jumpi\n      dup1\n      0x6eb10797\n      eq\n      tag_8\n      jumpi\n      dup1\n      0x7c9cd2bc\n      eq\n      tag_9\n      jumpi\n      dup1\n      0x8da5cb5b\n      eq\n      tag_10\n      jumpi\n      dup1\n      0xc3ad5ecb\n      eq\n      tag_11\n      jumpi\n      jump(tag_2)\n    tag_12:\n      dup1\n      0x05a1b4a9\n      eq\n      tag_3\n      jumpi\n      dup1\n      0x3d9b569f\n      eq\n      tag_4\n      jumpi\n      dup1\n      0x53256135\n      eq\n      tag_5\n      jumpi\n      dup1\n      0x58bfa4ab\n      eq\n      tag_6\n      jumpi\n    tag_2:\n      0x00\n      dup1\n      revert\n        /* \"contracts/Twitter.sol\":326:367  mapping(address => Tweet[]) public tweets */\n    tag_3:\n      tag_13\n      0x04\n      dup1\n      calldatasize\n      sub\n      dup2\n      add\n      swap1\n      tag_14\n      swap2\n      swap1\n      tag_15\n      jump\t// in\n    tag_14:\n      tag_16\n      jump\t// in\n    tag_13:\n      mload(0x40)\n      tag_17\n      swap6\n      swap5\n      swap4\n      swap3\n      swap2\n      swap1\n      tag_18\n      jump\t// in\n    tag_17:\n      mload(0x40)\n      dup1\n      swap2\n      sub\n      swap1\n      return\n        /* \"contracts/Twitter.sol\":1319:1575  function unlikeTweet(address author, uint256 id) external {... */\n    tag_4:\n      tag_19\n      0x04\n      dup1\n      calldatasize\n      sub\n      dup2\n      add\n      swap1\n      tag_20\n      swap2\n      swap1\n      tag_15\n      jump\t// in\n    tag_20:\n      tag_21\n      jump\t// in\n    tag_19:\n      stop\n        /* \"contracts/Twitter.sol\":1701:1807  function getAllTweets() public  view returns (Tweet[] memory) {... */\n    tag_5:\n      tag_22\n      tag_23\n      jump\t// in\n    tag_22:\n      mload(0x40)\n      tag_24\n      swap2\n      swap1\n      tag_25\n      jump\t// in\n    tag_24:\n      mload(0x40)\n      dup1\n      swap2\n      sub\n      swap1\n      return\n        /* \"contracts/Twitter.sol\":1009:1128  function changeTweetLength(uint16 newTweetLength) public onlyOwner {... */\n    tag_6:\n      tag_26\n      0x04\n      dup1\n      calldatasize\n      sub\n      dup2\n      add\n      swap1\n      tag_27\n      swap2\n      swap1\n      tag_28\n      jump\t// in\n    tag_27:\n      tag_29\n      jump\t// in\n    tag_26:\n      stop\n        /* \"contracts/Twitter.sol\":1136:1311  function likeTweet(address author, uint256 id) external {... */\n    tag_7:\n      tag_30\n      0x04\n      dup1\n      calldatasize\n      sub\n      dup2\n      add\n      swap1\n      tag_31\n      swap2\n      swap1\n      tag_15\n      jump\t// in\n    tag_31:\n      tag_32\n      jump\t// in\n    tag_30:\n      stop\n        /* \"contracts/Twitter.sol\":102:138  uint16 public MAX_TWEET_LENGTH = 200 */\n    tag_8:\n      tag_33\n      tag_34\n      jump\t// in\n    tag_33:\n      mload(0x40)\n      tag_35\n      swap2\n      swap1\n      tag_36\n      jump\t// in\n    tag_35:\n      mload(0x40)\n      dup1\n      swap2\n      sub\n      swap1\n      return\n        /* \"contracts/Twitter.sol\":585:1001  function createTweet(string memory _tweet) public {... */\n    tag_9:\n      tag_37\n      0x04\n      dup1\n      calldatasize\n      sub\n      dup2\n      add\n      swap1\n      tag_38\n      swap2\n      swap1\n      tag_39\n      jump\t// in\n    tag_38:\n      tag_40\n      jump\t// in\n    tag_37:\n      stop\n        /* \"contracts/Twitter.sol\":145:165  address public owner */\n    tag_10:\n      tag_41\n      tag_42\n      jump\t// in\n    tag_41:\n      mload(0x40)\n      tag_43\n      swap2\n      swap1\n      tag_44\n      jump\t// in\n    tag_43:\n      mload(0x40)\n      dup1\n      swap2\n      sub\n      swap1\n      return\n        /* \"contracts/Twitter.sol\":1583:1693  function getTweet(uint _i) public view returns (Tweet memory) {... */\n    tag_11:\n      tag_45\n      0x04\n      dup1\n      calldatasize\n      sub\n      dup2\n      add\n      swap1\n      tag_46\n      swap2\n      swap1\n      tag_47\n      jump\t// in\n    tag_46:\n      tag_48\n      jump\t// in\n    tag_45:\n      mload(0x40)\n      tag_49\n      swap2\n      swap1\n      tag_50\n      jump\t// in\n    tag_49:\n      mload(0x40)\n      dup1\n      swap2\n      sub\n      swap1\n      return\n        /* \"contracts/Twitter.sol\":326:367  mapping(address => Tweet[]) public tweets */\n    tag_16:\n      mstore(0x20, 0x01)\n      dup2\n      0x00\n      mstore\n      keccak256(0x00, 0x40)\n      dup2\n      dup2\n      sload\n      dup2\n      lt\n      tag_51\n      jumpi\n      0x00\n      dup1\n      revert\n    tag_51:\n      swap1\n      0x00\n      mstore\n      keccak256(0x00, 0x20)\n      swap1\n      0x05\n      mul\n      add\n      0x00\n      swap2\n      pop\n      swap2\n      pop\n      pop\n      dup1\n      0x00\n      add\n      sload\n      swap1\n      dup1\n      0x01\n      add\n      0x00\n      swap1\n      sload\n      swap1\n      0x0100\n      exp\n      swap1\n      div\n      0xffffffffffffffffffffffffffffffffffffffff\n      and\n      swap1\n      dup1\n      0x02\n      add\n      dup1\n      sload\n      tag_53\n      swap1\n      tag_54\n      jump\t// in\n    tag_53:\n      dup1\n      0x1f\n      add\n      0x20\n      dup1\n      swap2\n      div\n      mul\n      0x20\n      add\n      mload(0x40)\n      swap1\n      dup2\n      add\n      0x40\n      mstore\n      dup1\n      swap3\n      swap2\n      swap1\n      dup2\n      dup2\n      mstore\n      0x20\n      add\n      dup3\n      dup1\n      sload\n      tag_55\n      swap1\n      tag_54\n      jump\t// in\n    tag_55:\n      dup1\n      iszero\n      tag_56\n      jumpi\n      dup1\n      0x1f\n      lt\n      tag_57\n      jumpi\n      0x0100\n      dup1\n      dup4\n      sload\n      div\n      mul\n      dup4\n      mstore\n      swap2\n      0x20\n      add\n      swap2\n      jump(tag_56)\n    tag_57:\n      dup3\n      add\n      swap2\n      swap1\n      0x00\n      mstore\n      keccak256(0x00, 0x20)\n      swap1\n    tag_58:\n      dup2\n      sload\n      dup2\n      mstore\n      swap1\n      0x01\n      add\n      swap1\n      0x20\n      add\n      dup1\n      dup4\n      gt\n      tag_58\n      jumpi\n      dup3\n      swap1\n      sub\n      0x1f\n      and\n      dup3\n      add\n      swap2\n    tag_56:\n      pop\n      pop\n      pop\n      pop\n      pop\n      swap1\n      dup1\n      0x03\n      add\n      sload\n      swap1\n      dup1\n      0x04\n      add\n      sload\n      swap1\n      pop\n      dup6\n      jump\t// out\n        /* \"contracts/Twitter.sol\":1319:1575  function unlikeTweet(address author, uint256 id) external {... */\n    tag_21:\n        /* \"contracts/Twitter.sol\":1421:1423  id */\n      dup1\n        /* \"contracts/Twitter.sol\":1396:1402  tweets */\n      0x01\n        /* \"contracts/Twitter.sol\":1396:1410  tweets[author] */\n      0x00\n        /* \"contracts/Twitter.sol\":1403:1409  author */\n      dup5\n        /* \"contracts/Twitter.sol\":1396:1410  tweets[author] */\n      0xffffffffffffffffffffffffffffffffffffffff\n      and\n      0xffffffffffffffffffffffffffffffffffffffff\n      and\n      dup2\n      mstore\n      0x20\n      add\n      swap1\n      dup2\n      mstore\n      0x20\n      add\n      0x00\n      keccak256\n        /* \"contracts/Twitter.sol\":1411:1413  id */\n      dup3\n        /* \"contracts/Twitter.sol\":1396:1414  tweets[author][id] */\n      dup2\n      sload\n      dup2\n      lt\n      tag_60\n      jumpi\n      tag_61\n      tag_62\n      jump\t// in\n    tag_61:\n    tag_60:\n      swap1\n      0x00\n      mstore\n      keccak256(0x00, 0x20)\n      swap1\n      0x05\n      mul\n      add\n        /* \"contracts/Twitter.sol\":1396:1417  tweets[author][id].id */\n      0x00\n      add\n      sload\n        /* \"contracts/Twitter.sol\":1396:1423  tweets[author][id].id == id */\n      eq\n        /* \"contracts/Twitter.sol\":1388:1449  require(tweets[author][id].id == id, \"TWEET DOES NOT EXIST!\") */\n      tag_64\n      jumpi\n      mload(0x40)\n      0x08c379a000000000000000000000000000000000000000000000000000000000\n      dup2\n      mstore\n      0x04\n      add\n      tag_65\n      swap1\n      tag_66\n      jump\t// in\n    tag_65:\n      mload(0x40)\n      dup1\n      swap2\n      sub\n      swap1\n      revert\n    tag_64:\n        /* \"contracts/Twitter.sol\":1495:1496  0 */\n      0x00\n        /* \"contracts/Twitter.sol\":1468:1474  tweets */\n      0x01\n        /* \"contracts/Twitter.sol\":1468:1482  tweets[author] */\n      0x00\n        /* \"contracts/Twitter.sol\":1475:1481  author */\n      dup5\n        /* \"contracts/Twitter.sol\":1468:1482  tweets[author] */\n      0xffffffffffffffffffffffffffffffffffffffff\n      and\n      0xffffffffffffffffffffffffffffffffffffffff\n      and\n      dup2\n      mstore\n      0x20\n      add\n      swap1\n      dup2\n      mstore\n      0x20\n      add\n      0x00\n      keccak256\n        /* \"contracts/Twitter.sol\":1483:1485  id */\n      dup3\n        /* \"contracts/Twitter.sol\":1468:1486  tweets[author][id] */\n      dup2\n      sload\n      dup2\n      lt\n      tag_67\n      jumpi\n      tag_68\n      tag_62\n      jump\t// in\n    tag_68:\n    tag_67:\n      swap1\n      0x00\n      mstore\n      keccak256(0x00, 0x20)\n      swap1\n      0x05\n      mul\n      add\n        /* \"contracts/Twitter.sol\":1468:1492  tweets[author][id].likes */\n      0x04\n      add\n      sload\n        /* \"contracts/Twitter.sol\":1468:1496  tweets[author][id].likes > 0 */\n      gt\n        /* \"contracts/Twitter.sol\":1460:1520  require(tweets[author][id].likes > 0, \"TWEET HAS NOT LIKES\") */\n      tag_70\n      jumpi\n      mload(0x40)\n      0x08c379a000000000000000000000000000000000000000000000000000000000\n      dup2\n      mstore\n      0x04\n      add\n      tag_71\n      swap1\n      tag_72\n      jump\t// in\n    tag_71:\n      mload(0x40)\n      dup1\n      swap2\n      sub\n      swap1\n      revert\n    tag_70:\n        /* \"contracts/Twitter.sol\":1541:1547  tweets */\n      0x01\n        /* \"contracts/Twitter.sol\":1541:1555  tweets[author] */\n      0x00\n        /* \"contracts/Twitter.sol\":1548:1554  author */\n      dup4\n        /* \"contracts/Twitter.sol\":1541:1555  tweets[author] */\n      0xffffffffffffffffffffffffffffffffffffffff\n      and\n      0xffffffffffffffffffffffffffffffffffffffff\n      and\n      dup2\n      mstore\n      0x20\n      add\n      swap1\n      dup2\n      mstore\n      0x20\n      add\n      0x00\n      keccak256\n        /* \"contracts/Twitter.sol\":1556:1558  id */\n      dup2\n        /* \"contracts/Twitter.sol\":1541:1559  tweets[author][id] */\n      dup2\n      sload\n      dup2\n      lt\n      tag_73\n      jumpi\n      tag_74\n      tag_62\n      jump\t// in\n    tag_74:\n    tag_73:\n      swap1\n      0x00\n      mstore\n      keccak256(0x00, 0x20)\n      swap1\n      0x05\n      mul\n      add\n        /* \"contracts/Twitter.sol\":1541:1565  tweets[author][id].likes */\n      0x04\n      add\n      0x00\n        /* \"contracts/Twitter.sol\":1541:1567  tweets[author][id].likes-- */\n      dup2\n      sload\n      dup1\n      swap3\n      swap2\n      swap1\n      tag_76\n      swap1\n      tag_77\n      jump\t// in\n    tag_76:\n      swap2\n      swap1\n      pop\n      sstore\n      pop\n        /* \"contracts/Twitter.sol\":1319:1575  function unlikeTweet(address author, uint256 id) external {... */\n      pop\n      pop\n      jump\t// out\n        /* \"contracts/Twitter.sol\":1701:1807  function getAllTweets() public  view returns (Tweet[] memory) {... */\n    tag_23:\n        /* \"contracts/Twitter.sol\":1747:1761  Tweet[] memory */\n      0x60\n        /* \"contracts/Twitter.sol\":1781:1787  tweets */\n      0x01\n        /* \"contracts/Twitter.sol\":1781:1799  tweets[msg.sender] */\n      0x00\n        /* \"contracts/Twitter.sol\":1788:1798  msg.sender */\n      caller\n        /* \"contracts/Twitter.sol\":1781:1799  tweets[msg.sender] */\n      0xffffffffffffffffffffffffffffffffffffffff\n      and\n      0xffffffffffffffffffffffffffffffffffffffff\n      and\n      dup2\n      mstore\n      0x20\n      add\n      swap1\n      dup2\n      mstore\n      0x20\n      add\n      0x00\n      keccak256\n        /* \"contracts/Twitter.sol\":1774:1799  return tweets[msg.sender] */\n      dup1\n      sload\n      dup1\n      0x20\n      mul\n      0x20\n      add\n      mload(0x40)\n      swap1\n      dup2\n      add\n      0x40\n      mstore\n      dup1\n      swap3\n      swap2\n      swap1\n      dup2\n      dup2\n      mstore\n      0x20\n      add\n      0x00\n      swap1\n    tag_79:\n      dup3\n      dup3\n      lt\n      iszero\n      tag_80\n      jumpi\n      dup4\n      dup3\n      swap1\n      0x00\n      mstore\n      keccak256(0x00, 0x20)\n      swap1\n      0x05\n      mul\n      add\n      mload(0x40)\n      dup1\n      0xa0\n      add\n      0x40\n      mstore\n      swap1\n      dup2\n      0x00\n      dup3\n      add\n      sload\n      dup2\n      mstore\n      0x20\n      add\n      0x01\n      dup3\n      add\n      0x00\n      swap1\n      sload\n      swap1\n      0x0100\n      exp\n      swap1\n      div\n      0xffffffffffffffffffffffffffffffffffffffff\n      and\n      0xffffffffffffffffffffffffffffffffffffffff\n      and\n      0xffffffffffffffffffffffffffffffffffffffff\n      and\n      dup2\n      mstore\n      0x20\n      add\n      0x02\n      dup3\n      add\n      dup1\n      sload\n      tag_82\n      swap1\n      tag_54\n      jump\t// in\n    tag_82:\n      dup1\n      0x1f\n      add\n      0x20\n      dup1\n      swap2\n      div\n      mul\n      0x20\n      add\n      mload(0x40)\n      swap1\n      dup2\n      add\n      0x40\n      mstore\n      dup1\n      swap3\n      swap2\n      swap1\n      dup2\n      dup2\n      mstore\n      0x20\n      add\n      dup3\n      dup1\n      sload\n      tag_83\n      swap1\n      tag_54\n      jump\t// in\n    tag_83:\n      dup1\n      iszero\n      tag_84\n      jumpi\n      dup1\n      0x1f\n      lt\n      tag_85\n      jumpi\n      0x0100\n      dup1\n      dup4\n      sload\n      div\n      mul\n      dup4\n      mstore\n      swap2\n      0x20\n      add\n      swap2\n      jump(tag_84)\n    tag_85:\n      dup3\n      add\n      swap2\n      swap1\n      0x00\n      mstore\n      keccak256(0x00, 0x20)\n      swap1\n    tag_86:\n      dup2\n      sload\n      dup2\n      mstore\n      swap1\n      0x01\n      add\n      swap1\n      0x20\n      add\n      dup1\n      dup4\n      gt\n      tag_86\n      jumpi\n      dup3\n      swap1\n      sub\n      0x1f\n      and\n      dup3\n      add\n      swap2\n    tag_84:\n      pop\n      pop\n      pop\n      pop\n      pop\n      dup2\n      mstore\n      0x20\n      add\n      0x03\n      dup3\n      add\n      sload\n      dup2\n      mstore\n      0x20\n      add\n      0x04\n      dup3\n      add\n      sload\n      dup2\n      mstore\n      pop\n      pop\n      dup2\n      mstore\n      0x20\n      add\n      swap1\n      0x01\n      add\n      swap1\n      jump(tag_79)\n    tag_80:\n      pop\n      pop\n      pop\n      pop\n      swap1\n      pop\n        /* \"contracts/Twitter.sol\":1701:1807  function getAllTweets() public  view returns (Tweet[] memory) {... */\n      swap1\n      jump\t// out\n        /* \"contracts/Twitter.sol\":1009:1128  function changeTweetLength(uint16 newTweetLength) public onlyOwner {... */\n    tag_29:\n        /* \"contracts/Twitter.sol\":508:513  owner */\n      0x00\n      0x02\n      swap1\n      sload\n      swap1\n      0x0100\n      exp\n      swap1\n      div\n      0xffffffffffffffffffffffffffffffffffffffff\n      and\n        /* \"contracts/Twitter.sol\":494:513  msg.sender == owner */\n      0xffffffffffffffffffffffffffffffffffffffff\n      and\n        /* \"contracts/Twitter.sol\":494:504  msg.sender */\n      caller\n        /* \"contracts/Twitter.sol\":494:513  msg.sender == owner */\n      0xffffffffffffffffffffffffffffffffffffffff\n      and\n      eq\n        /* \"contracts/Twitter.sol\":486:540  require(msg.sender == owner, \"YOU ARE NOT THE OWNER!\") */\n      tag_88\n      jumpi\n      mload(0x40)\n      0x08c379a000000000000000000000000000000000000000000000000000000000\n      dup2\n      mstore\n      0x04\n      add\n      tag_89\n      swap1\n      tag_90\n      jump\t// in\n    tag_89:\n      mload(0x40)\n      dup1\n      swap2\n      sub\n      swap1\n      revert\n    tag_88:\n        /* \"contracts/Twitter.sol\":1106:1120  newTweetLength */\n      dup1\n        /* \"contracts/Twitter.sol\":1087:1103  MAX_TWEET_LENGTH */\n      0x00\n      dup1\n        /* \"contracts/Twitter.sol\":1087:1120  MAX_TWEET_LENGTH = newTweetLength */\n      0x0100\n      exp\n      dup2\n      sload\n      dup2\n      0xffff\n      mul\n      not\n      and\n      swap1\n      dup4\n      0xffff\n      and\n      mul\n      or\n      swap1\n      sstore\n      pop\n        /* \"contracts/Twitter.sol\":1009:1128  function changeTweetLength(uint16 newTweetLength) public onlyOwner {... */\n      pop\n      jump\t// out\n        /* \"contracts/Twitter.sol\":1136:1311  function likeTweet(address author, uint256 id) external {... */\n    tag_32:\n        /* \"contracts/Twitter.sol\":1236:1238  id */\n      dup1\n        /* \"contracts/Twitter.sol\":1211:1217  tweets */\n      0x01\n        /* \"contracts/Twitter.sol\":1211:1225  tweets[author] */\n      0x00\n        /* \"contracts/Twitter.sol\":1218:1224  author */\n      dup5\n        /* \"contracts/Twitter.sol\":1211:1225  tweets[author] */\n      0xffffffffffffffffffffffffffffffffffffffff\n      and\n      0xffffffffffffffffffffffffffffffffffffffff\n      and\n      dup2\n      mstore\n      0x20\n      add\n      swap1\n      dup2\n      mstore\n      0x20\n      add\n      0x00\n      keccak256\n        /* \"contracts/Twitter.sol\":1226:1228  id */\n      dup3\n        /* \"contracts/Twitter.sol\":1211:1229  tweets[author][id] */\n      dup2\n      sload\n      dup2\n      lt\n      tag_93\n      jumpi\n      tag_94\n      tag_62\n      jump\t// in\n    tag_94:\n    tag_93:\n      swap1\n      0x00\n      mstore\n      keccak256(0x00, 0x20)\n      swap1\n      0x05\n      mul\n      add\n        /* \"contracts/Twitter.sol\":1211:1232  tweets[author][id].id */\n      0x00\n      add\n      sload\n        /* \"contracts/Twitter.sol\":1211:1238  tweets[author][id].id == id */\n      eq\n        /* \"contracts/Twitter.sol\":1203:1264  require(tweets[author][id].id == id, \"TWEET DOES NOT EXIST!\") */\n      tag_96\n      jumpi\n      mload(0x40)\n      0x08c379a000000000000000000000000000000000000000000000000000000000\n      dup2\n      mstore\n      0x04\n      add\n      tag_97\n      swap1\n      tag_66\n      jump\t// in\n    tag_97:\n      mload(0x40)\n      dup1\n      swap2\n      sub\n      swap1\n      revert\n    tag_96:\n        /* \"contracts/Twitter.sol\":1277:1283  tweets */\n      0x01\n        /* \"contracts/Twitter.sol\":1277:1291  tweets[author] */\n      0x00\n        /* \"contracts/Twitter.sol\":1284:1290  author */\n      dup4\n        /* \"contracts/Twitter.sol\":1277:1291  tweets[author] */\n      0xffffffffffffffffffffffffffffffffffffffff\n      and\n      0xffffffffffffffffffffffffffffffffffffffff\n      and\n      dup2\n      mstore\n      0x20\n      add\n      swap1\n      dup2\n      mstore\n      0x20\n      add\n      0x00\n      keccak256\n        /* \"contracts/Twitter.sol\":1292:1294  id */\n      dup2\n        /* \"contracts/Twitter.sol\":1277:1295  tweets[author][id] */\n      dup2\n      sload\n      dup2\n      lt\n      tag_98\n      jumpi\n      tag_99\n      tag_62\n      jump\t// in\n    tag_99:\n    tag_98:\n      swap1\n      0x00\n      mstore\n      keccak256(0x00, 0x20)\n      swap1\n      0x05\n      mul\n      add\n        /* \"contracts/Twitter.sol\":1277:1301  tweets[author][id].likes */\n      0x04\n      add\n      0x00\n        /* \"contracts/Twitter.sol\":1277:1303  tweets[author][id].likes++ */\n      dup2\n      sload\n      dup1\n      swap3\n      swap2\n      swap1\n      tag_101\n      swap1\n      tag_102\n      jump\t// in\n    tag_101:\n      swap2\n      swap1\n      pop\n      sstore\n      pop\n        /* \"contracts/Twitter.sol\":1136:1311  function likeTweet(address author, uint256 id) external {... */\n      pop\n      pop\n      jump\t// out\n        /* \"contracts/Twitter.sol\":102:138  uint16 public MAX_TWEET_LENGTH = 200 */\n    tag_34:\n      0x00\n      dup1\n      sload\n      swap1\n      0x0100\n      exp\n      swap1\n      div\n      0xffff\n      and\n      dup2\n      jump\t// out\n        /* \"contracts/Twitter.sol\":585:1001  function createTweet(string memory _tweet) public {... */\n    tag_40:\n        /* \"contracts/Twitter.sol\":678:694  MAX_TWEET_LENGTH */\n      0x00\n      dup1\n      sload\n      swap1\n      0x0100\n      exp\n      swap1\n      div\n      0xffff\n      and\n        /* \"contracts/Twitter.sol\":654:694  bytes(_tweet).length <= MAX_TWEET_LENGTH */\n      0xffff\n      and\n        /* \"contracts/Twitter.sol\":660:666  _tweet */\n      dup2\n        /* \"contracts/Twitter.sol\":654:674  bytes(_tweet).length */\n      mload\n        /* \"contracts/Twitter.sol\":654:694  bytes(_tweet).length <= MAX_TWEET_LENGTH */\n      gt\n      iszero\n        /* \"contracts/Twitter.sol\":646:721  require(bytes(_tweet).length <= MAX_TWEET_LENGTH, \"Tweet is to high, bro!\") */\n      tag_104\n      jumpi\n      mload(0x40)\n      0x08c379a000000000000000000000000000000000000000000000000000000000\n      dup2\n      mstore\n      0x04\n      add\n      tag_105\n      swap1\n      tag_106\n      jump\t// in\n    tag_105:\n      mload(0x40)\n      dup1\n      swap2\n      sub\n      swap1\n      revert\n    tag_104:\n        /* \"contracts/Twitter.sol\":734:755  Tweet memory newTweet */\n      0x00\n        /* \"contracts/Twitter.sol\":758:947  Tweet({... */\n      mload(0x40)\n      dup1\n      0xa0\n      add\n      0x40\n      mstore\n      dup1\n        /* \"contracts/Twitter.sol\":783:789  tweets */\n      0x01\n        /* \"contracts/Twitter.sol\":783:801  tweets[msg.sender] */\n      0x00\n        /* \"contracts/Twitter.sol\":790:800  msg.sender */\n      caller\n        /* \"contracts/Twitter.sol\":783:801  tweets[msg.sender] */\n      0xffffffffffffffffffffffffffffffffffffffff\n      and\n      0xffffffffffffffffffffffffffffffffffffffff\n      and\n      dup2\n      mstore\n      0x20\n      add\n      swap1\n      dup2\n      mstore\n      0x20\n      add\n      0x00\n      keccak256\n        /* \"contracts/Twitter.sol\":783:808  tweets[msg.sender].length */\n      dup1\n      sload\n      swap1\n      pop\n        /* \"contracts/Twitter.sol\":758:947  Tweet({... */\n      dup2\n      mstore\n      0x20\n      add\n        /* \"contracts/Twitter.sol\":831:841  msg.sender */\n      caller\n        /* \"contracts/Twitter.sol\":758:947  Tweet({... */\n      0xffffffffffffffffffffffffffffffffffffffff\n      and\n      dup2\n      mstore\n      0x20\n      add\n        /* \"contracts/Twitter.sol\":865:871  _tweet */\n      dup4\n        /* \"contracts/Twitter.sol\":758:947  Tweet({... */\n      dup2\n      mstore\n      0x20\n      add\n        /* \"contracts/Twitter.sol\":897:912  block.timestamp */\n      timestamp\n        /* \"contracts/Twitter.sol\":758:947  Tweet({... */\n      dup2\n      mstore\n      0x20\n      add\n        /* \"contracts/Twitter.sol\":934:935  0 */\n      0x00\n        /* \"contracts/Twitter.sol\":758:947  Tweet({... */\n      dup2\n      mstore\n      pop\n        /* \"contracts/Twitter.sol\":734:947  Tweet memory newTweet = Tweet({... */\n      swap1\n      pop\n        /* \"contracts/Twitter.sol\":960:966  tweets */\n      0x01\n        /* \"contracts/Twitter.sol\":960:978  tweets[msg.sender] */\n      0x00\n        /* \"contracts/Twitter.sol\":967:977  msg.sender */\n      caller\n        /* \"contracts/Twitter.sol\":960:978  tweets[msg.sender] */\n      0xffffffffffffffffffffffffffffffffffffffff\n      and\n      0xffffffffffffffffffffffffffffffffffffffff\n      and\n      dup2\n      mstore\n      0x20\n      add\n      swap1\n      dup2\n      mstore\n      0x20\n      add\n      0x00\n      keccak256\n        /* \"contracts/Twitter.sol\":984:992  newTweet */\n      dup2\n        /* \"contracts/Twitter.sol\":960:993  tweets[msg.sender].push(newTweet) */\n      swap1\n      dup1\n      0x01\n      dup2\n      sload\n      add\n      dup1\n      dup3\n      sstore\n      dup1\n      swap2\n      pop\n      pop\n      0x01\n      swap1\n      sub\n      swap1\n      0x00\n      mstore\n      keccak256(0x00, 0x20)\n      swap1\n      0x05\n      mul\n      add\n      0x00\n      swap1\n      swap2\n      swap1\n      swap2\n      swap1\n      swap2\n      pop\n      0x00\n      dup3\n      add\n      mload\n      dup2\n      0x00\n      add\n      sstore\n      0x20\n      dup3\n      add\n      mload\n      dup2\n      0x01\n      add\n      exp(0x0100, 0x00)\n      dup2\n      sload\n      dup2\n      0xffffffffffffffffffffffffffffffffffffffff\n      mul\n      not\n      and\n      swap1\n      dup4\n      0xffffffffffffffffffffffffffffffffffffffff\n      and\n      mul\n      or\n      swap1\n      sstore\n      pop\n      0x40\n      dup3\n      add\n      mload\n      dup2\n      0x02\n      add\n      swap1\n      dup2\n      tag_108\n      swap2\n      swap1\n      tag_109\n      jump\t// in\n    tag_108:\n      pop\n      0x60\n      dup3\n      add\n      mload\n      dup2\n      0x03\n      add\n      sstore\n      0x80\n      dup3\n      add\n      mload\n      dup2\n      0x04\n      add\n      sstore\n      pop\n      pop\n        /* \"contracts/Twitter.sol\":635:1001  {... */\n      pop\n        /* \"contracts/Twitter.sol\":585:1001  function createTweet(string memory _tweet) public {... */\n      pop\n      jump\t// out\n        /* \"contracts/Twitter.sol\":145:165  address public owner */\n    tag_42:\n      0x00\n      0x02\n      swap1\n      sload\n      swap1\n      0x0100\n      exp\n      swap1\n      div\n      0xffffffffffffffffffffffffffffffffffffffff\n      and\n      dup2\n      jump\t// out\n        /* \"contracts/Twitter.sol\":1583:1693  function getTweet(uint _i) public view returns (Tweet memory) {... */\n    tag_48:\n        /* \"contracts/Twitter.sol\":1631:1643  Tweet memory */\n      tag_110\n      tag_111\n      jump\t// in\n    tag_110:\n        /* \"contracts/Twitter.sol\":1663:1669  tweets */\n      0x01\n        /* \"contracts/Twitter.sol\":1663:1681  tweets[msg.sender] */\n      0x00\n        /* \"contracts/Twitter.sol\":1670:1680  msg.sender */\n      caller\n        /* \"contracts/Twitter.sol\":1663:1681  tweets[msg.sender] */\n      0xffffffffffffffffffffffffffffffffffffffff\n      and\n      0xffffffffffffffffffffffffffffffffffffffff\n      and\n      dup2\n      mstore\n      0x20\n      add\n      swap1\n      dup2\n      mstore\n      0x20\n      add\n      0x00\n      keccak256\n        /* \"contracts/Twitter.sol\":1682:1684  _i */\n      dup3\n        /* \"contracts/Twitter.sol\":1663:1685  tweets[msg.sender][_i] */\n      dup2\n      sload\n      dup2\n      lt\n      tag_113\n      jumpi\n      tag_114\n      tag_62\n      jump\t// in\n    tag_114:\n    tag_113:\n      swap1\n      0x00\n      mstore\n      keccak256(0x00, 0x20)\n      swap1\n      0x05\n      mul\n      add\n        /* \"contracts/Twitter.sol\":1656:1685  return tweets[msg.sender][_i] */\n      mload(0x40)\n      dup1\n      0xa0\n      add\n      0x40\n      mstore\n      swap1\n      dup2\n      0x00\n      dup3\n      add\n      sload\n      dup2\n      mstore\n      0x20\n      add\n      0x01\n      dup3\n      add\n      0x00\n      swap1\n      sload\n      swap1\n      0x0100\n      exp\n      swap1\n      div\n      0xffffffffffffffffffffffffffffffffffffffff\n      and\n      0xffffffffffffffffffffffffffffffffffffffff\n      and\n      0xffffffffffffffffffffffffffffffffffffffff\n      and\n      dup2\n      mstore\n      0x20\n      add\n      0x02\n      dup3\n      add\n      dup1\n      sload\n      tag_116\n      swap1\n      tag_54\n      jump\t// in\n    tag_116:\n      dup1\n      0x1f\n      add\n      0x20\n      dup1\n      swap2\n      div\n      mul\n      0x20\n      add\n      mload(0x40)\n      swap1\n      dup2\n      add\n      0x40\n      mstore\n      dup1\n      swap3\n      swap2\n      swap1\n      dup2\n      dup2\n      mstore\n      0x20\n      add\n      dup3\n      dup1\n      sload\n      tag_117\n      swap1\n      tag_54\n      jump\t// in\n    tag_117:\n      dup1\n      iszero\n      tag_118\n      jumpi\n      dup1\n      0x1f\n      lt\n      tag_119\n      jumpi\n      0x0100\n      dup1\n      dup4\n      sload\n      div\n      mul\n      dup4\n      mstore\n      swap2\n      0x20\n      add\n      swap2\n      jump(tag_118)\n    tag_119:\n      dup3\n      add\n      swap2\n      swap1\n      0x00\n      mstore\n      keccak256(0x00, 0x20)\n      swap1\n    tag_120:\n      dup2\n      sload\n      dup2\n      mstore\n      swap1\n      0x01\n      add\n      swap1\n      0x20\n      add\n      dup1\n      dup4\n      gt\n      tag_120\n      jumpi\n      dup3\n      swap1\n      sub\n      0x1f\n      and\n      dup3\n      add\n      swap2\n    tag_118:\n      pop\n      pop\n      pop\n      pop\n      pop\n      dup2\n      mstore\n      0x20\n      add\n      0x03\n      dup3\n      add\n      sload\n      dup2\n      mstore\n      0x20\n      add\n      0x04\n      dup3\n      add\n      sload\n      dup2\n      mstore\n      pop\n      pop\n      swap1\n      pop\n        /* \"contracts/Twitter.sol\":1583:1693  function getTweet(uint _i) public view returns (Tweet memory) {... */\n      swap2\n      swap1\n      pop\n      jump\t// out\n    tag_111:\n      mload(0x40)\n      dup1\n      0xa0\n      add\n      0x40\n      mstore\n      dup1\n      0x00\n      dup2\n      mstore\n      0x20\n      add\n      and(0xffffffffffffffffffffffffffffffffffffffff, 0x00)\n      dup2\n      mstore\n      0x20\n      add\n      0x60\n      dup2\n      mstore\n      0x20\n      add\n      0x00\n      dup2\n      mstore\n      0x20\n      add\n      0x00\n      dup2\n      mstore\n      pop\n      swap1\n      jump\t// out\n        /* \"#utility.yul\":7:82   */\n    tag_121:\n        /* \"#utility.yul\":40:46   */\n      0x00\n        /* \"#utility.yul\":73:75   */\n      0x40\n        /* \"#utility.yul\":67:76   */\n      mload\n        /* \"#utility.yul\":57:76   */\n      swap1\n      pop\n        /* \"#utility.yul\":7:82   */\n      swap1\n      jump\t// out\n        /* \"#utility.yul\":88:205   */\n    tag_122:\n        /* \"#utility.yul\":197:198   */\n      0x00\n        /* \"#utility.yul\":194:195   */\n      dup1\n        /* \"#utility.yul\":187:199   */\n      revert\n        /* \"#utility.yul\":211:328   */\n    tag_123:\n        /* \"#utility.yul\":320:321   */\n      0x00\n        /* \"#utility.yul\":317:318   */\n      dup1\n        /* \"#utility.yul\":310:322   */\n      revert\n        /* \"#utility.yul\":334:460   */\n    tag_124:\n        /* \"#utility.yul\":371:378   */\n      0x00\n        /* \"#utility.yul\":411:453   */\n      0xffffffffffffffffffffffffffffffffffffffff\n        /* \"#utility.yul\":404:409   */\n      dup3\n        /* \"#utility.yul\":400:454   */\n      and\n        /* \"#utility.yul\":389:454   */\n      swap1\n      pop\n        /* \"#utility.yul\":334:460   */\n      swap2\n      swap1\n      pop\n      jump\t// out\n        /* \"#utility.yul\":466:562   */\n    tag_125:\n        /* \"#utility.yul\":503:510   */\n      0x00\n        /* \"#utility.yul\":532:556   */\n      tag_194\n        /* \"#utility.yul\":550:555   */\n      dup3\n        /* \"#utility.yul\":532:556   */\n      tag_124\n      jump\t// in\n    tag_194:\n        /* \"#utility.yul\":521:556   */\n      swap1\n      pop\n        /* \"#utility.yul\":466:562   */\n      swap2\n      swap1\n      pop\n      jump\t// out\n        /* \"#utility.yul\":568:690   */\n    tag_126:\n        /* \"#utility.yul\":641:665   */\n      tag_196\n        /* \"#utility.yul\":659:664   */\n      dup2\n        /* \"#utility.yul\":641:665   */\n      tag_125\n      jump\t// in\n    tag_196:\n        /* \"#utility.yul\":634:639   */\n      dup2\n        /* \"#utility.yul\":631:666   */\n      eq\n        /* \"#utility.yul\":621:684   */\n      tag_197\n      jumpi\n        /* \"#utility.yul\":680:681   */\n      0x00\n        /* \"#utility.yul\":677:678   */\n      dup1\n        /* \"#utility.yul\":670:682   */\n      revert\n        /* \"#utility.yul\":621:684   */\n    tag_197:\n        /* \"#utility.yul\":568:690   */\n      pop\n      jump\t// out\n        /* \"#utility.yul\":696:835   */\n    tag_127:\n        /* \"#utility.yul\":742:747   */\n      0x00\n        /* \"#utility.yul\":780:786   */\n      dup2\n        /* \"#utility.yul\":767:787   */\n      calldataload\n        /* \"#utility.yul\":758:787   */\n      swap1\n      pop\n        /* \"#utility.yul\":796:829   */\n      tag_199\n        /* \"#utility.yul\":823:828   */\n      dup2\n        /* \"#utility.yul\":796:829   */\n      tag_126\n      jump\t// in\n    tag_199:\n        /* \"#utility.yul\":696:835   */\n      swap3\n      swap2\n      pop\n      pop\n      jump\t// out\n        /* \"#utility.yul\":841:918   */\n    tag_128:\n        /* \"#utility.yul\":878:885   */\n      0x00\n        /* \"#utility.yul\":907:912   */\n      dup2\n        /* \"#utility.yul\":896:912   */\n      swap1\n      pop\n        /* \"#utility.yul\":841:918   */\n      swap2\n      swap1\n      pop\n      jump\t// out\n        /* \"#utility.yul\":924:1046   */\n    tag_129:\n        /* \"#utility.yul\":997:1021   */\n      tag_202\n        /* \"#utility.yul\":1015:1020   */\n      dup2\n        /* \"#utility.yul\":997:1021   */\n      tag_128\n      jump\t// in\n    tag_202:\n        /* \"#utility.yul\":990:995   */\n      dup2\n        /* \"#utility.yul\":987:1022   */\n      eq\n        /* \"#utility.yul\":977:1040   */\n      tag_203\n      jumpi\n        /* \"#utility.yul\":1036:1037   */\n      0x00\n        /* \"#utility.yul\":1033:1034   */\n      dup1\n        /* \"#utility.yul\":1026:1038   */\n      revert\n        /* \"#utility.yul\":977:1040   */\n    tag_203:\n        /* \"#utility.yul\":924:1046   */\n      pop\n      jump\t// out\n        /* \"#utility.yul\":1052:1191   */\n    tag_130:\n        /* \"#utility.yul\":1098:1103   */\n      0x00\n        /* \"#utility.yul\":1136:1142   */\n      dup2\n        /* \"#utility.yul\":1123:1143   */\n      calldataload\n        /* \"#utility.yul\":1114:1143   */\n      swap1\n      pop\n        /* \"#utility.yul\":1152:1185   */\n      tag_205\n        /* \"#utility.yul\":1179:1184   */\n      dup2\n        /* \"#utility.yul\":1152:1185   */\n      tag_129\n      jump\t// in\n    tag_205:\n        /* \"#utility.yul\":1052:1191   */\n      swap3\n      swap2\n      pop\n      pop\n      jump\t// out\n        /* \"#utility.yul\":1197:1671   */\n    tag_15:\n        /* \"#utility.yul\":1265:1271   */\n      0x00\n        /* \"#utility.yul\":1273:1279   */\n      dup1\n        /* \"#utility.yul\":1322:1324   */\n      0x40\n        /* \"#utility.yul\":1310:1319   */\n      dup4\n        /* \"#utility.yul\":1301:1308   */\n      dup6\n        /* \"#utility.yul\":1297:1320   */\n      sub\n        /* \"#utility.yul\":1293:1325   */\n      slt\n        /* \"#utility.yul\":1290:1409   */\n      iszero\n      tag_207\n      jumpi\n        /* \"#utility.yul\":1328:1407   */\n      tag_208\n      tag_122\n      jump\t// in\n    tag_208:\n        /* \"#utility.yul\":1290:1409   */\n    tag_207:\n        /* \"#utility.yul\":1448:1449   */\n      0x00\n        /* \"#utility.yul\":1473:1526   */\n      tag_209\n        /* \"#utility.yul\":1518:1525   */\n      dup6\n        /* \"#utility.yul\":1509:1515   */\n      dup3\n        /* \"#utility.yul\":1498:1507   */\n      dup7\n        /* \"#utility.yul\":1494:1516   */\n      add\n        /* \"#utility.yul\":1473:1526   */\n      tag_127\n      jump\t// in\n    tag_209:\n        /* \"#utility.yul\":1463:1526   */\n      swap3\n      pop\n        /* \"#utility.yul\":1419:1536   */\n      pop\n        /* \"#utility.yul\":1575:1577   */\n      0x20\n        /* \"#utility.yul\":1601:1654   */\n      tag_210\n        /* \"#utility.yul\":1646:1653   */\n      dup6\n        /* \"#utility.yul\":1637:1643   */\n      dup3\n        /* \"#utility.yul\":1626:1635   */\n      dup7\n        /* \"#utility.yul\":1622:1644   */\n      add\n        /* \"#utility.yul\":1601:1654   */\n      tag_130\n      jump\t// in\n    tag_210:\n        /* \"#utility.yul\":1591:1654   */\n      swap2\n      pop\n        /* \"#utility.yul\":1546:1664   */\n      pop\n        /* \"#utility.yul\":1197:1671   */\n      swap3\n      pop\n      swap3\n      swap1\n      pop\n      jump\t// out\n        /* \"#utility.yul\":1677:1795   */\n    tag_131:\n        /* \"#utility.yul\":1764:1788   */\n      tag_212\n        /* \"#utility.yul\":1782:1787   */\n      dup2\n        /* \"#utility.yul\":1764:1788   */\n      tag_128\n      jump\t// in\n    tag_212:\n        /* \"#utility.yul\":1759:1762   */\n      dup3\n        /* \"#utility.yul\":1752:1789   */\n      mstore\n        /* \"#utility.yul\":1677:1795   */\n      pop\n      pop\n      jump\t// out\n        /* \"#utility.yul\":1801:1919   */\n    tag_132:\n        /* \"#utility.yul\":1888:1912   */\n      tag_214\n        /* \"#utility.yul\":1906:1911   */\n      dup2\n        /* \"#utility.yul\":1888:1912   */\n      tag_125\n      jump\t// in\n    tag_214:\n        /* \"#utility.yul\":1883:1886   */\n      dup3\n        /* \"#utility.yul\":1876:1913   */\n      mstore\n        /* \"#utility.yul\":1801:1919   */\n      pop\n      pop\n      jump\t// out\n        /* \"#utility.yul\":1925:2024   */\n    tag_133:\n        /* \"#utility.yul\":1977:1983   */\n      0x00\n        /* \"#utility.yul\":2011:2016   */\n      dup2\n        /* \"#utility.yul\":2005:2017   */\n      mload\n        /* \"#utility.yul\":1995:2017   */\n      swap1\n      pop\n        /* \"#utility.yul\":1925:2024   */\n      swap2\n      swap1\n      pop\n      jump\t// out\n        /* \"#utility.yul\":2030:2199   */\n    tag_134:\n        /* \"#utility.yul\":2114:2125   */\n      0x00\n        /* \"#utility.yul\":2148:2154   */\n      dup3\n        /* \"#utility.yul\":2143:2146   */\n      dup3\n        /* \"#utility.yul\":2136:2155   */\n      mstore\n        /* \"#utility.yul\":2188:2192   */\n      0x20\n        /* \"#utility.yul\":2183:2186   */\n      dup3\n        /* \"#utility.yul\":2179:2193   */\n      add\n        /* \"#utility.yul\":2164:2193   */\n      swap1\n      pop\n        /* \"#utility.yul\":2030:2199   */\n      swap3\n      swap2\n      pop\n      pop\n      jump\t// out\n        /* \"#utility.yul\":2205:2344   */\n    tag_135:\n        /* \"#utility.yul\":2294:2300   */\n      dup3\n        /* \"#utility.yul\":2289:2292   */\n      dup2\n        /* \"#utility.yul\":2284:2287   */\n      dup4\n        /* \"#utility.yul\":2278:2301   */\n      mcopy\n        /* \"#utility.yul\":2335:2336   */\n      0x00\n        /* \"#utility.yul\":2326:2332   */\n      dup4\n        /* \"#utility.yul\":2321:2324   */\n      dup4\n        /* \"#utility.yul\":2317:2333   */\n      add\n        /* \"#utility.yul\":2310:2337   */\n      mstore\n        /* \"#utility.yul\":2205:2344   */\n      pop\n      pop\n      pop\n      jump\t// out\n        /* \"#utility.yul\":2350:2452   */\n    tag_136:\n        /* \"#utility.yul\":2391:2397   */\n      0x00\n        /* \"#utility.yul\":2442:2444   */\n      0x1f\n        /* \"#utility.yul\":2438:2445   */\n      not\n        /* \"#utility.yul\":2433:2435   */\n      0x1f\n        /* \"#utility.yul\":2426:2431   */\n      dup4\n        /* \"#utility.yul\":2422:2436   */\n      add\n        /* \"#utility.yul\":2418:2446   */\n      and\n        /* \"#utility.yul\":2408:2446   */\n      swap1\n      pop\n        /* \"#utility.yul\":2350:2452   */\n      swap2\n      swap1\n      pop\n      jump\t// out\n        /* \"#utility.yul\":2458:2835   */\n    tag_137:\n        /* \"#utility.yul\":2546:2549   */\n      0x00\n        /* \"#utility.yul\":2574:2613   */\n      tag_220\n        /* \"#utility.yul\":2607:2612   */\n      dup3\n        /* \"#utility.yul\":2574:2613   */\n      tag_133\n      jump\t// in\n    tag_220:\n        /* \"#utility.yul\":2629:2700   */\n      tag_221\n        /* \"#utility.yul\":2693:2699   */\n      dup2\n        /* \"#utility.yul\":2688:2691   */\n      dup6\n        /* \"#utility.yul\":2629:2700   */\n      tag_134\n      jump\t// in\n    tag_221:\n        /* \"#utility.yul\":2622:2700   */\n      swap4\n      pop\n        /* \"#utility.yul\":2709:2774   */\n      tag_222\n        /* \"#utility.yul\":2767:2773   */\n      dup2\n        /* \"#utility.yul\":2762:2765   */\n      dup6\n        /* \"#utility.yul\":2755:2759   */\n      0x20\n        /* \"#utility.yul\":2748:2753   */\n      dup7\n        /* \"#utility.yul\":2744:2760   */\n      add\n        /* \"#utility.yul\":2709:2774   */\n      tag_135\n      jump\t// in\n    tag_222:\n        /* \"#utility.yul\":2799:2828   */\n      tag_223\n        /* \"#utility.yul\":2821:2827   */\n      dup2\n        /* \"#utility.yul\":2799:2828   */\n      tag_136\n      jump\t// in\n    tag_223:\n        /* \"#utility.yul\":2794:2797   */\n      dup5\n        /* \"#utility.yul\":2790:2829   */\n      add\n        /* \"#utility.yul\":2783:2829   */\n      swap2\n      pop\n        /* \"#utility.yul\":2550:2835   */\n      pop\n        /* \"#utility.yul\":2458:2835   */\n      swap3\n      swap2\n      pop\n      pop\n      jump\t// out\n        /* \"#utility.yul\":2841:3596   */\n    tag_18:\n        /* \"#utility.yul\":3066:3070   */\n      0x00\n        /* \"#utility.yul\":3104:3107   */\n      0xa0\n        /* \"#utility.yul\":3093:3102   */\n      dup3\n        /* \"#utility.yul\":3089:3108   */\n      add\n        /* \"#utility.yul\":3081:3108   */\n      swap1\n      pop\n        /* \"#utility.yul\":3118:3189   */\n      tag_225\n        /* \"#utility.yul\":3186:3187   */\n      0x00\n        /* \"#utility.yul\":3175:3184   */\n      dup4\n        /* \"#utility.yul\":3171:3188   */\n      add\n        /* \"#utility.yul\":3162:3168   */\n      dup9\n        /* \"#utility.yul\":3118:3189   */\n      tag_131\n      jump\t// in\n    tag_225:\n        /* \"#utility.yul\":3199:3271   */\n      tag_226\n        /* \"#utility.yul\":3267:3269   */\n      0x20\n        /* \"#utility.yul\":3256:3265   */\n      dup4\n        /* \"#utility.yul\":3252:3270   */\n      add\n        /* \"#utility.yul\":3243:3249   */\n      dup8\n        /* \"#utility.yul\":3199:3271   */\n      tag_132\n      jump\t// in\n    tag_226:\n        /* \"#utility.yul\":3318:3327   */\n      dup2\n        /* \"#utility.yul\":3312:3316   */\n      dup2\n        /* \"#utility.yul\":3308:3328   */\n      sub\n        /* \"#utility.yul\":3303:3305   */\n      0x40\n        /* \"#utility.yul\":3292:3301   */\n      dup4\n        /* \"#utility.yul\":3288:3306   */\n      add\n        /* \"#utility.yul\":3281:3329   */\n      mstore\n        /* \"#utility.yul\":3346:3424   */\n      tag_227\n        /* \"#utility.yul\":3419:3423   */\n      dup2\n        /* \"#utility.yul\":3410:3416   */\n      dup7\n        /* \"#utility.yul\":3346:3424   */\n      tag_137\n      jump\t// in\n    tag_227:\n        /* \"#utility.yul\":3338:3424   */\n      swap1\n      pop\n        /* \"#utility.yul\":3434:3506   */\n      tag_228\n        /* \"#utility.yul\":3502:3504   */\n      0x60\n        /* \"#utility.yul\":3491:3500   */\n      dup4\n        /* \"#utility.yul\":3487:3505   */\n      add\n        /* \"#utility.yul\":3478:3484   */\n      dup6\n        /* \"#utility.yul\":3434:3506   */\n      tag_131\n      jump\t// in\n    tag_228:\n        /* \"#utility.yul\":3516:3589   */\n      tag_229\n        /* \"#utility.yul\":3584:3587   */\n      0x80\n        /* \"#utility.yul\":3573:3582   */\n      dup4\n        /* \"#utility.yul\":3569:3588   */\n      add\n        /* \"#utility.yul\":3560:3566   */\n      dup5\n        /* \"#utility.yul\":3516:3589   */\n      tag_131\n      jump\t// in\n    tag_229:\n        /* \"#utility.yul\":2841:3596   */\n      swap7\n      swap6\n      pop\n      pop\n      pop\n      pop\n      pop\n      pop\n      jump\t// out\n        /* \"#utility.yul\":3602:3737   */\n    tag_138:\n        /* \"#utility.yul\":3690:3696   */\n      0x00\n        /* \"#utility.yul\":3724:3729   */\n      dup2\n        /* \"#utility.yul\":3718:3730   */\n      mload\n        /* \"#utility.yul\":3708:3730   */\n      swap1\n      pop\n        /* \"#utility.yul\":3602:3737   */\n      swap2\n      swap1\n      pop\n      jump\t// out\n        /* \"#utility.yul\":3743:3948   */\n    tag_139:\n        /* \"#utility.yul\":3863:3874   */\n      0x00\n        /* \"#utility.yul\":3897:3903   */\n      dup3\n        /* \"#utility.yul\":3892:3895   */\n      dup3\n        /* \"#utility.yul\":3885:3904   */\n      mstore\n        /* \"#utility.yul\":3937:3941   */\n      0x20\n        /* \"#utility.yul\":3932:3935   */\n      dup3\n        /* \"#utility.yul\":3928:3942   */\n      add\n        /* \"#utility.yul\":3913:3942   */\n      swap1\n      pop\n        /* \"#utility.yul\":3743:3948   */\n      swap3\n      swap2\n      pop\n      pop\n      jump\t// out\n        /* \"#utility.yul\":3954:4107   */\n    tag_140:\n        /* \"#utility.yul\":4042:4046   */\n      0x00\n        /* \"#utility.yul\":4065:4068   */\n      dup2\n        /* \"#utility.yul\":4057:4068   */\n      swap1\n      pop\n        /* \"#utility.yul\":4095:4099   */\n      0x20\n        /* \"#utility.yul\":4090:4093   */\n      dup3\n        /* \"#utility.yul\":4086:4100   */\n      add\n        /* \"#utility.yul\":4078:4100   */\n      swap1\n      pop\n        /* \"#utility.yul\":3954:4107   */\n      swap2\n      swap1\n      pop\n      jump\t// out\n        /* \"#utility.yul\":4113:4221   */\n    tag_141:\n        /* \"#utility.yul\":4190:4214   */\n      tag_234\n        /* \"#utility.yul\":4208:4213   */\n      dup2\n        /* \"#utility.yul\":4190:4214   */\n      tag_128\n      jump\t// in\n    tag_234:\n        /* \"#utility.yul\":4185:4188   */\n      dup3\n        /* \"#utility.yul\":4178:4215   */\n      mstore\n        /* \"#utility.yul\":4113:4221   */\n      pop\n      pop\n      jump\t// out\n        /* \"#utility.yul\":4227:4335   */\n    tag_142:\n        /* \"#utility.yul\":4304:4328   */\n      tag_236\n        /* \"#utility.yul\":4322:4327   */\n      dup2\n        /* \"#utility.yul\":4304:4328   */\n      tag_125\n      jump\t// in\n    tag_236:\n        /* \"#utility.yul\":4299:4302   */\n      dup3\n        /* \"#utility.yul\":4292:4329   */\n      mstore\n        /* \"#utility.yul\":4227:4335   */\n      pop\n      pop\n      jump\t// out\n        /* \"#utility.yul\":4341:4500   */\n    tag_143:\n        /* \"#utility.yul\":4415:4426   */\n      0x00\n        /* \"#utility.yul\":4449:4455   */\n      dup3\n        /* \"#utility.yul\":4444:4447   */\n      dup3\n        /* \"#utility.yul\":4437:4456   */\n      mstore\n        /* \"#utility.yul\":4489:4493   */\n      0x20\n        /* \"#utility.yul\":4484:4487   */\n      dup3\n        /* \"#utility.yul\":4480:4494   */\n      add\n        /* \"#utility.yul\":4465:4494   */\n      swap1\n      pop\n        /* \"#utility.yul\":4341:4500   */\n      swap3\n      swap2\n      pop\n      pop\n      jump\t// out\n        /* \"#utility.yul\":4506:4863   */\n    tag_144:\n        /* \"#utility.yul\":4584:4587   */\n      0x00\n        /* \"#utility.yul\":4612:4651   */\n      tag_239\n        /* \"#utility.yul\":4645:4650   */\n      dup3\n        /* \"#utility.yul\":4612:4651   */\n      tag_133\n      jump\t// in\n    tag_239:\n        /* \"#utility.yul\":4667:4728   */\n      tag_240\n        /* \"#utility.yul\":4721:4727   */\n      dup2\n        /* \"#utility.yul\":4716:4719   */\n      dup6\n        /* \"#utility.yul\":4667:4728   */\n      tag_143\n      jump\t// in\n    tag_240:\n        /* \"#utility.yul\":4660:4728   */\n      swap4\n      pop\n        /* \"#utility.yul\":4737:4802   */\n      tag_241\n        /* \"#utility.yul\":4795:4801   */\n      dup2\n        /* \"#utility.yul\":4790:4793   */\n      dup6\n        /* \"#utility.yul\":4783:4787   */\n      0x20\n        /* \"#utility.yul\":4776:4781   */\n      dup7\n        /* \"#utility.yul\":4772:4788   */\n      add\n        /* \"#utility.yul\":4737:4802   */\n      tag_135\n      jump\t// in\n    tag_241:\n        /* \"#utility.yul\":4827:4856   */\n      tag_242\n        /* \"#utility.yul\":4849:4855   */\n      dup2\n        /* \"#utility.yul\":4827:4856   */\n      tag_136\n      jump\t// in\n    tag_242:\n        /* \"#utility.yul\":4822:4825   */\n      dup5\n        /* \"#utility.yul\":4818:4857   */\n      add\n        /* \"#utility.yul\":4811:4857   */\n      swap2\n      pop\n        /* \"#utility.yul\":4588:4863   */\n      pop\n        /* \"#utility.yul\":4506:4863   */\n      swap3\n      swap2\n      pop\n      pop\n      jump\t// out\n        /* \"#utility.yul\":4921:6040   */\n    tag_145:\n        /* \"#utility.yul\":5022:5025   */\n      0x00\n        /* \"#utility.yul\":5058:5062   */\n      0xa0\n        /* \"#utility.yul\":5053:5056   */\n      dup4\n        /* \"#utility.yul\":5049:5063   */\n      add\n        /* \"#utility.yul\":5143:5147   */\n      0x00\n        /* \"#utility.yul\":5136:5141   */\n      dup4\n        /* \"#utility.yul\":5132:5148   */\n      add\n        /* \"#utility.yul\":5126:5149   */\n      mload\n        /* \"#utility.yul\":5162:5225   */\n      tag_244\n        /* \"#utility.yul\":5219:5223   */\n      0x00\n        /* \"#utility.yul\":5214:5217   */\n      dup7\n        /* \"#utility.yul\":5210:5224   */\n      add\n        /* \"#utility.yul\":5196:5208   */\n      dup3\n        /* \"#utility.yul\":5162:5225   */\n      tag_141\n      jump\t// in\n    tag_244:\n        /* \"#utility.yul\":5073:5235   */\n      pop\n        /* \"#utility.yul\":5319:5323   */\n      0x20\n        /* \"#utility.yul\":5312:5317   */\n      dup4\n        /* \"#utility.yul\":5308:5324   */\n      add\n        /* \"#utility.yul\":5302:5325   */\n      mload\n        /* \"#utility.yul\":5338:5401   */\n      tag_245\n        /* \"#utility.yul\":5395:5399   */\n      0x20\n        /* \"#utility.yul\":5390:5393   */\n      dup7\n        /* \"#utility.yul\":5386:5400   */\n      add\n        /* \"#utility.yul\":5372:5384   */\n      dup3\n        /* \"#utility.yul\":5338:5401   */\n      tag_142\n      jump\t// in\n    tag_245:\n        /* \"#utility.yul\":5245:5411   */\n      pop\n        /* \"#utility.yul\":5496:5500   */\n      0x40\n        /* \"#utility.yul\":5489:5494   */\n      dup4\n        /* \"#utility.yul\":5485:5501   */\n      add\n        /* \"#utility.yul\":5479:5502   */\n      mload\n        /* \"#utility.yul\":5549:5552   */\n      dup5\n        /* \"#utility.yul\":5543:5547   */\n      dup3\n        /* \"#utility.yul\":5539:5553   */\n      sub\n        /* \"#utility.yul\":5532:5536   */\n      0x40\n        /* \"#utility.yul\":5527:5530   */\n      dup7\n        /* \"#utility.yul\":5523:5537   */\n      add\n        /* \"#utility.yul\":5516:5554   */\n      mstore\n        /* \"#utility.yul\":5575:5648   */\n      tag_246\n        /* \"#utility.yul\":5643:5647   */\n      dup3\n        /* \"#utility.yul\":5629:5641   */\n      dup3\n        /* \"#utility.yul\":5575:5648   */\n      tag_144\n      jump\t// in\n    tag_246:\n        /* \"#utility.yul\":5567:5648   */\n      swap2\n      pop\n        /* \"#utility.yul\":5421:5659   */\n      pop\n        /* \"#utility.yul\":5746:5750   */\n      0x60\n        /* \"#utility.yul\":5739:5744   */\n      dup4\n        /* \"#utility.yul\":5735:5751   */\n      add\n        /* \"#utility.yul\":5729:5752   */\n      mload\n        /* \"#utility.yul\":5765:5828   */\n      tag_247\n        /* \"#utility.yul\":5822:5826   */\n      0x60\n        /* \"#utility.yul\":5817:5820   */\n      dup7\n        /* \"#utility.yul\":5813:5827   */\n      add\n        /* \"#utility.yul\":5799:5811   */\n      dup3\n        /* \"#utility.yul\":5765:5828   */\n      tag_141\n      jump\t// in\n    tag_247:\n        /* \"#utility.yul\":5669:5838   */\n      pop\n        /* \"#utility.yul\":5921:5925   */\n      0x80\n        /* \"#utility.yul\":5914:5919   */\n      dup4\n        /* \"#utility.yul\":5910:5926   */\n      add\n        /* \"#utility.yul\":5904:5927   */\n      mload\n        /* \"#utility.yul\":5940:6003   */\n      tag_248\n        /* \"#utility.yul\":5997:6001   */\n      0x80\n        /* \"#utility.yul\":5992:5995   */\n      dup7\n        /* \"#utility.yul\":5988:6002   */\n      add\n        /* \"#utility.yul\":5974:5986   */\n      dup3\n        /* \"#utility.yul\":5940:6003   */\n      tag_141\n      jump\t// in\n    tag_248:\n        /* \"#utility.yul\":5848:6013   */\n      pop\n        /* \"#utility.yul\":6030:6034   */\n      dup1\n        /* \"#utility.yul\":6023:6034   */\n      swap2\n      pop\n        /* \"#utility.yul\":5027:6040   */\n      pop\n        /* \"#utility.yul\":4921:6040   */\n      swap3\n      swap2\n      pop\n      pop\n      jump\t// out\n        /* \"#utility.yul\":6046:6286   */\n    tag_146:\n        /* \"#utility.yul\":6157:6167   */\n      0x00\n        /* \"#utility.yul\":6192:6280   */\n      tag_250\n        /* \"#utility.yul\":6276:6279   */\n      dup4\n        /* \"#utility.yul\":6268:6274   */\n      dup4\n        /* \"#utility.yul\":6192:6280   */\n      tag_145\n      jump\t// in\n    tag_250:\n        /* \"#utility.yul\":6178:6280   */\n      swap1\n      pop\n        /* \"#utility.yul\":6046:6286   */\n      swap3\n      swap2\n      pop\n      pop\n      jump\t// out\n        /* \"#utility.yul\":6292:6426   */\n    tag_147:\n        /* \"#utility.yul\":6383:6387   */\n      0x00\n        /* \"#utility.yul\":6415:6419   */\n      0x20\n        /* \"#utility.yul\":6410:6413   */\n      dup3\n        /* \"#utility.yul\":6406:6420   */\n      add\n        /* \"#utility.yul\":6398:6420   */\n      swap1\n      pop\n        /* \"#utility.yul\":6292:6426   */\n      swap2\n      swap1\n      pop\n      jump\t// out\n        /* \"#utility.yul\":6488:7567   */\n    tag_148:\n        /* \"#utility.yul\":6649:6652   */\n      0x00\n        /* \"#utility.yul\":6678:6753   */\n      tag_253\n        /* \"#utility.yul\":6747:6752   */\n      dup3\n        /* \"#utility.yul\":6678:6753   */\n      tag_138\n      jump\t// in\n    tag_253:\n        /* \"#utility.yul\":6769:6876   */\n      tag_254\n        /* \"#utility.yul\":6869:6875   */\n      dup2\n        /* \"#utility.yul\":6864:6867   */\n      dup6\n        /* \"#utility.yul\":6769:6876   */\n      tag_139\n      jump\t// in\n    tag_254:\n        /* \"#utility.yul\":6762:6876   */\n      swap4\n      pop\n        /* \"#utility.yul\":6902:6905   */\n      dup4\n        /* \"#utility.yul\":6947:6951   */\n      0x20\n        /* \"#utility.yul\":6939:6945   */\n      dup3\n        /* \"#utility.yul\":6935:6952   */\n      mul\n        /* \"#utility.yul\":6930:6933   */\n      dup6\n        /* \"#utility.yul\":6926:6953   */\n      add\n        /* \"#utility.yul\":6977:7054   */\n      tag_255\n        /* \"#utility.yul\":7048:7053   */\n      dup6\n        /* \"#utility.yul\":6977:7054   */\n      tag_140\n      jump\t// in\n    tag_255:\n        /* \"#utility.yul\":7077:7084   */\n      dup1\n        /* \"#utility.yul\":7108:7109   */\n      0x00\n        /* \"#utility.yul\":7093:7522   */\n    tag_256:\n        /* \"#utility.yul\":7118:7124   */\n      dup6\n        /* \"#utility.yul\":7115:7116   */\n      dup2\n        /* \"#utility.yul\":7112:7125   */\n      lt\n        /* \"#utility.yul\":7093:7522   */\n      iszero\n      tag_258\n      jumpi\n        /* \"#utility.yul\":7189:7198   */\n      dup5\n        /* \"#utility.yul\":7183:7187   */\n      dup5\n        /* \"#utility.yul\":7179:7199   */\n      sub\n        /* \"#utility.yul\":7174:7177   */\n      dup10\n        /* \"#utility.yul\":7167:7200   */\n      mstore\n        /* \"#utility.yul\":7240:7246   */\n      dup2\n        /* \"#utility.yul\":7234:7247   */\n      mload\n        /* \"#utility.yul\":7268:7374   */\n      tag_259\n        /* \"#utility.yul\":7369:7373   */\n      dup6\n        /* \"#utility.yul\":7354:7367   */\n      dup3\n        /* \"#utility.yul\":7268:7374   */\n      tag_146\n      jump\t// in\n    tag_259:\n        /* \"#utility.yul\":7260:7374   */\n      swap5\n      pop\n        /* \"#utility.yul\":7397:7478   */\n      tag_260\n        /* \"#utility.yul\":7471:7477   */\n      dup4\n        /* \"#utility.yul\":7397:7478   */\n      tag_147\n      jump\t// in\n    tag_260:\n        /* \"#utility.yul\":7387:7478   */\n      swap3\n      pop\n        /* \"#utility.yul\":7507:7511   */\n      0x20\n        /* \"#utility.yul\":7502:7505   */\n      dup11\n        /* \"#utility.yul\":7498:7512   */\n      add\n        /* \"#utility.yul\":7491:7512   */\n      swap10\n      pop\n        /* \"#utility.yul\":7153:7522   */\n      pop\n        /* \"#utility.yul\":7140:7141   */\n      0x01\n        /* \"#utility.yul\":7137:7138   */\n      dup2\n        /* \"#utility.yul\":7133:7142   */\n      add\n        /* \"#utility.yul\":7128:7142   */\n      swap1\n      pop\n        /* \"#utility.yul\":7093:7522   */\n      jump(tag_256)\n    tag_258:\n        /* \"#utility.yul\":7097:7111   */\n      pop\n        /* \"#utility.yul\":7538:7542   */\n      dup3\n        /* \"#utility.yul\":7531:7542   */\n      swap8\n      pop\n        /* \"#utility.yul\":7558:7561   */\n      dup8\n        /* \"#utility.yul\":7551:7561   */\n      swap6\n      pop\n        /* \"#utility.yul\":6654:7567   */\n      pop\n      pop\n      pop\n      pop\n      pop\n        /* \"#utility.yul\":6488:7567   */\n      swap3\n      swap2\n      pop\n      pop\n      jump\t// out\n        /* \"#utility.yul\":7573:8030   */\n    tag_25:\n        /* \"#utility.yul\":7758:7762   */\n      0x00\n        /* \"#utility.yul\":7796:7798   */\n      0x20\n        /* \"#utility.yul\":7785:7794   */\n      dup3\n        /* \"#utility.yul\":7781:7799   */\n      add\n        /* \"#utility.yul\":7773:7799   */\n      swap1\n      pop\n        /* \"#utility.yul\":7845:7854   */\n      dup2\n        /* \"#utility.yul\":7839:7843   */\n      dup2\n        /* \"#utility.yul\":7835:7855   */\n      sub\n        /* \"#utility.yul\":7831:7832   */\n      0x00\n        /* \"#utility.yul\":7820:7829   */\n      dup4\n        /* \"#utility.yul\":7816:7833   */\n      add\n        /* \"#utility.yul\":7809:7856   */\n      mstore\n        /* \"#utility.yul\":7873:8023   */\n      tag_262\n        /* \"#utility.yul\":8018:8022   */\n      dup2\n        /* \"#utility.yul\":8009:8015   */\n      dup5\n        /* \"#utility.yul\":7873:8023   */\n      tag_148\n      jump\t// in\n    tag_262:\n        /* \"#utility.yul\":7865:8023   */\n      swap1\n      pop\n        /* \"#utility.yul\":7573:8030   */\n      swap3\n      swap2\n      pop\n      pop\n      jump\t// out\n        /* \"#utility.yul\":8036:8125   */\n    tag_149:\n        /* \"#utility.yul\":8072:8079   */\n      0x00\n        /* \"#utility.yul\":8112:8118   */\n      0xffff\n        /* \"#utility.yul\":8105:8110   */\n      dup3\n        /* \"#utility.yul\":8101:8119   */\n      and\n        /* \"#utility.yul\":8090:8119   */\n      swap1\n      pop\n        /* \"#utility.yul\":8036:8125   */\n      swap2\n      swap1\n      pop\n      jump\t// out\n        /* \"#utility.yul\":8131:8251   */\n    tag_150:\n        /* \"#utility.yul\":8203:8226   */\n      tag_265\n        /* \"#utility.yul\":8220:8225   */\n      dup2\n        /* \"#utility.yul\":8203:8226   */\n      tag_149\n      jump\t// in\n    tag_265:\n        /* \"#utility.yul\":8196:8201   */\n      dup2\n        /* \"#utility.yul\":8193:8227   */\n      eq\n        /* \"#utility.yul\":8183:8245   */\n      tag_266\n      jumpi\n        /* \"#utility.yul\":8241:8242   */\n      0x00\n        /* \"#utility.yul\":8238:8239   */\n      dup1\n        /* \"#utility.yul\":8231:8243   */\n      revert\n        /* \"#utility.yul\":8183:8245   */\n    tag_266:\n        /* \"#utility.yul\":8131:8251   */\n      pop\n      jump\t// out\n        /* \"#utility.yul\":8257:8394   */\n    tag_151:\n        /* \"#utility.yul\":8302:8307   */\n      0x00\n        /* \"#utility.yul\":8340:8346   */\n      dup2\n        /* \"#utility.yul\":8327:8347   */\n      calldataload\n        /* \"#utility.yul\":8318:8347   */\n      swap1\n      pop\n        /* \"#utility.yul\":8356:8388   */\n      tag_268\n        /* \"#utility.yul\":8382:8387   */\n      dup2\n        /* \"#utility.yul\":8356:8388   */\n      tag_150\n      jump\t// in\n    tag_268:\n        /* \"#utility.yul\":8257:8394   */\n      swap3\n      swap2\n      pop\n      pop\n      jump\t// out\n        /* \"#utility.yul\":8400:8727   */\n    tag_28:\n        /* \"#utility.yul\":8458:8464   */\n      0x00\n        /* \"#utility.yul\":8507:8509   */\n      0x20\n        /* \"#utility.yul\":8495:8504   */\n      dup3\n        /* \"#utility.yul\":8486:8493   */\n      dup5\n        /* \"#utility.yul\":8482:8505   */\n      sub\n        /* \"#utility.yul\":8478:8510   */\n      slt\n        /* \"#utility.yul\":8475:8594   */\n      iszero\n      tag_270\n      jumpi\n        /* \"#utility.yul\":8513:8592   */\n      tag_271\n      tag_122\n      jump\t// in\n    tag_271:\n        /* \"#utility.yul\":8475:8594   */\n    tag_270:\n        /* \"#utility.yul\":8633:8634   */\n      0x00\n        /* \"#utility.yul\":8658:8710   */\n      tag_272\n        /* \"#utility.yul\":8702:8709   */\n      dup5\n        /* \"#utility.yul\":8693:8699   */\n      dup3\n        /* \"#utility.yul\":8682:8691   */\n      dup6\n        /* \"#utility.yul\":8678:8700   */\n      add\n        /* \"#utility.yul\":8658:8710   */\n      tag_151\n      jump\t// in\n    tag_272:\n        /* \"#utility.yul\":8648:8710   */\n      swap2\n      pop\n        /* \"#utility.yul\":8604:8720   */\n      pop\n        /* \"#utility.yul\":8400:8727   */\n      swap3\n      swap2\n      pop\n      pop\n      jump\t// out\n        /* \"#utility.yul\":8733:8848   */\n    tag_152:\n        /* \"#utility.yul\":8818:8841   */\n      tag_274\n        /* \"#utility.yul\":8835:8840   */\n      dup2\n        /* \"#utility.yul\":8818:8841   */\n      tag_149\n      jump\t// in\n    tag_274:\n        /* \"#utility.yul\":8813:8816   */\n      dup3\n        /* \"#utility.yul\":8806:8842   */\n      mstore\n        /* \"#utility.yul\":8733:8848   */\n      pop\n      pop\n      jump\t// out\n        /* \"#utility.yul\":8854:9072   */\n    tag_36:\n        /* \"#utility.yul\":8945:8949   */\n      0x00\n        /* \"#utility.yul\":8983:8985   */\n      0x20\n        /* \"#utility.yul\":8972:8981   */\n      dup3\n        /* \"#utility.yul\":8968:8986   */\n      add\n        /* \"#utility.yul\":8960:8986   */\n      swap1\n      pop\n        /* \"#utility.yul\":8996:9065   */\n      tag_276\n        /* \"#utility.yul\":9062:9063   */\n      0x00\n        /* \"#utility.yul\":9051:9060   */\n      dup4\n        /* \"#utility.yul\":9047:9064   */\n      add\n        /* \"#utility.yul\":9038:9044   */\n      dup5\n        /* \"#utility.yul\":8996:9065   */\n      tag_152\n      jump\t// in\n    tag_276:\n        /* \"#utility.yul\":8854:9072   */\n      swap3\n      swap2\n      pop\n      pop\n      jump\t// out\n        /* \"#utility.yul\":9078:9195   */\n    tag_153:\n        /* \"#utility.yul\":9187:9188   */\n      0x00\n        /* \"#utility.yul\":9184:9185   */\n      dup1\n        /* \"#utility.yul\":9177:9189   */\n      revert\n        /* \"#utility.yul\":9201:9318   */\n    tag_154:\n        /* \"#utility.yul\":9310:9311   */\n      0x00\n        /* \"#utility.yul\":9307:9308   */\n      dup1\n        /* \"#utility.yul\":9300:9312   */\n      revert\n        /* \"#utility.yul\":9324:9504   */\n    tag_155:\n        /* \"#utility.yul\":9372:9449   */\n      0x4e487b7100000000000000000000000000000000000000000000000000000000\n        /* \"#utility.yul\":9369:9370   */\n      0x00\n        /* \"#utility.yul\":9362:9450   */\n      mstore\n        /* \"#utility.yul\":9469:9473   */\n      0x41\n        /* \"#utility.yul\":9466:9467   */\n      0x04\n        /* \"#utility.yul\":9459:9474   */\n      mstore\n        /* \"#utility.yul\":9493:9497   */\n      0x24\n        /* \"#utility.yul\":9490:9491   */\n      0x00\n        /* \"#utility.yul\":9483:9498   */\n      revert\n        /* \"#utility.yul\":9510:9791   */\n    tag_156:\n        /* \"#utility.yul\":9593:9620   */\n      tag_281\n        /* \"#utility.yul\":9615:9619   */\n      dup3\n        /* \"#utility.yul\":9593:9620   */\n      tag_136\n      jump\t// in\n    tag_281:\n        /* \"#utility.yul\":9585:9591   */\n      dup2\n        /* \"#utility.yul\":9581:9621   */\n      add\n        /* \"#utility.yul\":9723:9729   */\n      dup2\n        /* \"#utility.yul\":9711:9721   */\n      dup2\n        /* \"#utility.yul\":9708:9730   */\n      lt\n        /* \"#utility.yul\":9687:9705   */\n      0xffffffffffffffff\n        /* \"#utility.yul\":9675:9685   */\n      dup3\n        /* \"#utility.yul\":9672:9706   */\n      gt\n        /* \"#utility.yul\":9669:9731   */\n      or\n        /* \"#utility.yul\":9666:9754   */\n      iszero\n      tag_282\n      jumpi\n        /* \"#utility.yul\":9734:9752   */\n      tag_283\n      tag_155\n      jump\t// in\n    tag_283:\n        /* \"#utility.yul\":9666:9754   */\n    tag_282:\n        /* \"#utility.yul\":9774:9784   */\n      dup1\n        /* \"#utility.yul\":9770:9772   */\n      0x40\n        /* \"#utility.yul\":9763:9785   */\n      mstore\n        /* \"#utility.yul\":9553:9791   */\n      pop\n        /* \"#utility.yul\":9510:9791   */\n      pop\n      pop\n      jump\t// out\n        /* \"#utility.yul\":9797:9926   */\n    tag_157:\n        /* \"#utility.yul\":9831:9837   */\n      0x00\n        /* \"#utility.yul\":9858:9878   */\n      tag_285\n      tag_121\n      jump\t// in\n    tag_285:\n        /* \"#utility.yul\":9848:9878   */\n      swap1\n      pop\n        /* \"#utility.yul\":9887:9920   */\n      tag_286\n        /* \"#utility.yul\":9915:9919   */\n      dup3\n        /* \"#utility.yul\":9907:9913   */\n      dup3\n        /* \"#utility.yul\":9887:9920   */\n      tag_156\n      jump\t// in\n    tag_286:\n        /* \"#utility.yul\":9797:9926   */\n      swap2\n      swap1\n      pop\n      jump\t// out\n        /* \"#utility.yul\":9932:10240   */\n    tag_158:\n        /* \"#utility.yul\":9994:9998   */\n      0x00\n        /* \"#utility.yul\":10084:10102   */\n      0xffffffffffffffff\n        /* \"#utility.yul\":10076:10082   */\n      dup3\n        /* \"#utility.yul\":10073:10103   */\n      gt\n        /* \"#utility.yul\":10070:10126   */\n      iszero\n      tag_288\n      jumpi\n        /* \"#utility.yul\":10106:10124   */\n      tag_289\n      tag_155\n      jump\t// in\n    tag_289:\n        /* \"#utility.yul\":10070:10126   */\n    tag_288:\n        /* \"#utility.yul\":10144:10173   */\n      tag_290\n        /* \"#utility.yul\":10166:10172   */\n      dup3\n        /* \"#utility.yul\":10144:10173   */\n      tag_136\n      jump\t// in\n    tag_290:\n        /* \"#utility.yul\":10136:10173   */\n      swap1\n      pop\n        /* \"#utility.yul\":10228:10232   */\n      0x20\n        /* \"#utility.yul\":10222:10226   */\n      dup2\n        /* \"#utility.yul\":10218:10233   */\n      add\n        /* \"#utility.yul\":10210:10233   */\n      swap1\n      pop\n        /* \"#utility.yul\":9932:10240   */\n      swap2\n      swap1\n      pop\n      jump\t// out\n        /* \"#utility.yul\":10246:10394   */\n    tag_159:\n        /* \"#utility.yul\":10344:10350   */\n      dup3\n        /* \"#utility.yul\":10339:10342   */\n      dup2\n        /* \"#utility.yul\":10334:10337   */\n      dup4\n        /* \"#utility.yul\":10321:10351   */\n      calldatacopy\n        /* \"#utility.yul\":10385:10386   */\n      0x00\n        /* \"#utility.yul\":10376:10382   */\n      dup4\n        /* \"#utility.yul\":10371:10374   */\n      dup4\n        /* \"#utility.yul\":10367:10383   */\n      add\n        /* \"#utility.yul\":10360:10387   */\n      mstore\n        /* \"#utility.yul\":10246:10394   */\n      pop\n      pop\n      pop\n      jump\t// out\n        /* \"#utility.yul\":10400:10825   */\n    tag_160:\n        /* \"#utility.yul\":10478:10483   */\n      0x00\n        /* \"#utility.yul\":10503:10569   */\n      tag_293\n        /* \"#utility.yul\":10519:10568   */\n      tag_294\n        /* \"#utility.yul\":10561:10567   */\n      dup5\n        /* \"#utility.yul\":10519:10568   */\n      tag_158\n      jump\t// in\n    tag_294:\n        /* \"#utility.yul\":10503:10569   */\n      tag_157\n      jump\t// in\n    tag_293:\n        /* \"#utility.yul\":10494:10569   */\n      swap1\n      pop\n        /* \"#utility.yul\":10592:10598   */\n      dup3\n        /* \"#utility.yul\":10585:10590   */\n      dup2\n        /* \"#utility.yul\":10578:10599   */\n      mstore\n        /* \"#utility.yul\":10630:10634   */\n      0x20\n        /* \"#utility.yul\":10623:10628   */\n      dup2\n        /* \"#utility.yul\":10619:10635   */\n      add\n        /* \"#utility.yul\":10668:10671   */\n      dup5\n        /* \"#utility.yul\":10659:10665   */\n      dup5\n        /* \"#utility.yul\":10654:10657   */\n      dup5\n        /* \"#utility.yul\":10650:10666   */\n      add\n        /* \"#utility.yul\":10647:10672   */\n      gt\n        /* \"#utility.yul\":10644:10756   */\n      iszero\n      tag_295\n      jumpi\n        /* \"#utility.yul\":10675:10754   */\n      tag_296\n      tag_154\n      jump\t// in\n    tag_296:\n        /* \"#utility.yul\":10644:10756   */\n    tag_295:\n        /* \"#utility.yul\":10765:10819   */\n      tag_297\n        /* \"#utility.yul\":10812:10818   */\n      dup5\n        /* \"#utility.yul\":10807:10810   */\n      dup3\n        /* \"#utility.yul\":10802:10805   */\n      dup6\n        /* \"#utility.yul\":10765:10819   */\n      tag_159\n      jump\t// in\n    tag_297:\n        /* \"#utility.yul\":10484:10825   */\n      pop\n        /* \"#utility.yul\":10400:10825   */\n      swap4\n      swap3\n      pop\n      pop\n      pop\n      jump\t// out\n        /* \"#utility.yul\":10845:11185   */\n    tag_161:\n        /* \"#utility.yul\":10901:10906   */\n      0x00\n        /* \"#utility.yul\":10950:10953   */\n      dup3\n        /* \"#utility.yul\":10943:10947   */\n      0x1f\n        /* \"#utility.yul\":10935:10941   */\n      dup4\n        /* \"#utility.yul\":10931:10948   */\n      add\n        /* \"#utility.yul\":10927:10954   */\n      slt\n        /* \"#utility.yul\":10917:11039   */\n      tag_299\n      jumpi\n        /* \"#utility.yul\":10958:11037   */\n      tag_300\n      tag_153\n      jump\t// in\n    tag_300:\n        /* \"#utility.yul\":10917:11039   */\n    tag_299:\n        /* \"#utility.yul\":11075:11081   */\n      dup2\n        /* \"#utility.yul\":11062:11082   */\n      calldataload\n        /* \"#utility.yul\":11100:11179   */\n      tag_301\n        /* \"#utility.yul\":11175:11178   */\n      dup5\n        /* \"#utility.yul\":11167:11173   */\n      dup3\n        /* \"#utility.yul\":11160:11164   */\n      0x20\n        /* \"#utility.yul\":11152:11158   */\n      dup7\n        /* \"#utility.yul\":11148:11165   */\n      add\n        /* \"#utility.yul\":11100:11179   */\n      tag_160\n      jump\t// in\n    tag_301:\n        /* \"#utility.yul\":11091:11179   */\n      swap2\n      pop\n        /* \"#utility.yul\":10907:11185   */\n      pop\n        /* \"#utility.yul\":10845:11185   */\n      swap3\n      swap2\n      pop\n      pop\n      jump\t// out\n        /* \"#utility.yul\":11191:11700   */\n    tag_39:\n        /* \"#utility.yul\":11260:11266   */\n      0x00\n        /* \"#utility.yul\":11309:11311   */\n      0x20\n        /* \"#utility.yul\":11297:11306   */\n      dup3\n        /* \"#utility.yul\":11288:11295   */\n      dup5\n        /* \"#utility.yul\":11284:11307   */\n      sub\n        /* \"#utility.yul\":11280:11312   */\n      slt\n        /* \"#utility.yul\":11277:11396   */\n      iszero\n      tag_303\n      jumpi\n        /* \"#utility.yul\":11315:11394   */\n      tag_304\n      tag_122\n      jump\t// in\n    tag_304:\n        /* \"#utility.yul\":11277:11396   */\n    tag_303:\n        /* \"#utility.yul\":11463:11464   */\n      0x00\n        /* \"#utility.yul\":11452:11461   */\n      dup3\n        /* \"#utility.yul\":11448:11465   */\n      add\n        /* \"#utility.yul\":11435:11466   */\n      calldataload\n        /* \"#utility.yul\":11493:11511   */\n      0xffffffffffffffff\n        /* \"#utility.yul\":11485:11491   */\n      dup2\n        /* \"#utility.yul\":11482:11512   */\n      gt\n        /* \"#utility.yul\":11479:11596   */\n      iszero\n      tag_305\n      jumpi\n        /* \"#utility.yul\":11515:11594   */\n      tag_306\n      tag_123\n      jump\t// in\n    tag_306:\n        /* \"#utility.yul\":11479:11596   */\n    tag_305:\n        /* \"#utility.yul\":11620:11683   */\n      tag_307\n        /* \"#utility.yul\":11675:11682   */\n      dup5\n        /* \"#utility.yul\":11666:11672   */\n      dup3\n        /* \"#utility.yul\":11655:11664   */\n      dup6\n        /* \"#utility.yul\":11651:11673   */\n      add\n        /* \"#utility.yul\":11620:11683   */\n      tag_161\n      jump\t// in\n    tag_307:\n        /* \"#utility.yul\":11610:11683   */\n      swap2\n      pop\n        /* \"#utility.yul\":11406:11693   */\n      pop\n        /* \"#utility.yul\":11191:11700   */\n      swap3\n      swap2\n      pop\n      pop\n      jump\t// out\n        /* \"#utility.yul\":11706:11928   */\n    tag_44:\n        /* \"#utility.yul\":11799:11803   */\n      0x00\n        /* \"#utility.yul\":11837:11839   */\n      0x20\n        /* \"#utility.yul\":11826:11835   */\n      dup3\n        /* \"#utility.yul\":11822:11840   */\n      add\n        /* \"#utility.yul\":11814:11840   */\n      swap1\n      pop\n        /* \"#utility.yul\":11850:11921   */\n      tag_309\n        /* \"#utility.yul\":11918:11919   */\n      0x00\n        /* \"#utility.yul\":11907:11916   */\n      dup4\n        /* \"#utility.yul\":11903:11920   */\n      add\n        /* \"#utility.yul\":11894:11900   */\n      dup5\n        /* \"#utility.yul\":11850:11921   */\n      tag_132\n      jump\t// in\n    tag_309:\n        /* \"#utility.yul\":11706:11928   */\n      swap3\n      swap2\n      pop\n      pop\n      jump\t// out\n        /* \"#utility.yul\":11934:12263   */\n    tag_47:\n        /* \"#utility.yul\":11993:11999   */\n      0x00\n        /* \"#utility.yul\":12042:12044   */\n      0x20\n        /* \"#utility.yul\":12030:12039   */\n      dup3\n        /* \"#utility.yul\":12021:12028   */\n      dup5\n        /* \"#utility.yul\":12017:12040   */\n      sub\n        /* \"#utility.yul\":12013:12045   */\n      slt\n        /* \"#utility.yul\":12010:12129   */\n      iszero\n      tag_311\n      jumpi\n        /* \"#utility.yul\":12048:12127   */\n      tag_312\n      tag_122\n      jump\t// in\n    tag_312:\n        /* \"#utility.yul\":12010:12129   */\n    tag_311:\n        /* \"#utility.yul\":12168:12169   */\n      0x00\n        /* \"#utility.yul\":12193:12246   */\n      tag_313\n        /* \"#utility.yul\":12238:12245   */\n      dup5\n        /* \"#utility.yul\":12229:12235   */\n      dup3\n        /* \"#utility.yul\":12218:12227   */\n      dup6\n        /* \"#utility.yul\":12214:12236   */\n      add\n        /* \"#utility.yul\":12193:12246   */\n      tag_130\n      jump\t// in\n    tag_313:\n        /* \"#utility.yul\":12183:12246   */\n      swap2\n      pop\n        /* \"#utility.yul\":12139:12256   */\n      pop\n        /* \"#utility.yul\":11934:12263   */\n      swap3\n      swap2\n      pop\n      pop\n      jump\t// out\n        /* \"#utility.yul\":12321:13450   */\n    tag_162:\n        /* \"#utility.yul\":12432:12435   */\n      0x00\n        /* \"#utility.yul\":12468:12472   */\n      0xa0\n        /* \"#utility.yul\":12463:12466   */\n      dup4\n        /* \"#utility.yul\":12459:12473   */\n      add\n        /* \"#utility.yul\":12553:12557   */\n      0x00\n        /* \"#utility.yul\":12546:12551   */\n      dup4\n        /* \"#utility.yul\":12542:12558   */\n      add\n        /* \"#utility.yul\":12536:12559   */\n      mload\n        /* \"#utility.yul\":12572:12635   */\n      tag_315\n        /* \"#utility.yul\":12629:12633   */\n      0x00\n        /* \"#utility.yul\":12624:12627   */\n      dup7\n        /* \"#utility.yul\":12620:12634   */\n      add\n        /* \"#utility.yul\":12606:12618   */\n      dup3\n        /* \"#utility.yul\":12572:12635   */\n      tag_141\n      jump\t// in\n    tag_315:\n        /* \"#utility.yul\":12483:12645   */\n      pop\n        /* \"#utility.yul\":12729:12733   */\n      0x20\n        /* \"#utility.yul\":12722:12727   */\n      dup4\n        /* \"#utility.yul\":12718:12734   */\n      add\n        /* \"#utility.yul\":12712:12735   */\n      mload\n        /* \"#utility.yul\":12748:12811   */\n      tag_316\n        /* \"#utility.yul\":12805:12809   */\n      0x20\n        /* \"#utility.yul\":12800:12803   */\n      dup7\n        /* \"#utility.yul\":12796:12810   */\n      add\n        /* \"#utility.yul\":12782:12794   */\n      dup3\n        /* \"#utility.yul\":12748:12811   */\n      tag_142\n      jump\t// in\n    tag_316:\n        /* \"#utility.yul\":12655:12821   */\n      pop\n        /* \"#utility.yul\":12906:12910   */\n      0x40\n        /* \"#utility.yul\":12899:12904   */\n      dup4\n        /* \"#utility.yul\":12895:12911   */\n      add\n        /* \"#utility.yul\":12889:12912   */\n      mload\n        /* \"#utility.yul\":12959:12962   */\n      dup5\n        /* \"#utility.yul\":12953:12957   */\n      dup3\n        /* \"#utility.yul\":12949:12963   */\n      sub\n        /* \"#utility.yul\":12942:12946   */\n      0x40\n        /* \"#utility.yul\":12937:12940   */\n      dup7\n        /* \"#utility.yul\":12933:12947   */\n      add\n        /* \"#utility.yul\":12926:12964   */\n      mstore\n        /* \"#utility.yul\":12985:13058   */\n      tag_317\n        /* \"#utility.yul\":13053:13057   */\n      dup3\n        /* \"#utility.yul\":13039:13051   */\n      dup3\n        /* \"#utility.yul\":12985:13058   */\n      tag_144\n      jump\t// in\n    tag_317:\n        /* \"#utility.yul\":12977:13058   */\n      swap2\n      pop\n        /* \"#utility.yul\":12831:13069   */\n      pop\n        /* \"#utility.yul\":13156:13160   */\n      0x60\n        /* \"#utility.yul\":13149:13154   */\n      dup4\n        /* \"#utility.yul\":13145:13161   */\n      add\n        /* \"#utility.yul\":13139:13162   */\n      mload\n        /* \"#utility.yul\":13175:13238   */\n      tag_318\n        /* \"#utility.yul\":13232:13236   */\n      0x60\n        /* \"#utility.yul\":13227:13230   */\n      dup7\n        /* \"#utility.yul\":13223:13237   */\n      add\n        /* \"#utility.yul\":13209:13221   */\n      dup3\n        /* \"#utility.yul\":13175:13238   */\n      tag_141\n      jump\t// in\n    tag_318:\n        /* \"#utility.yul\":13079:13248   */\n      pop\n        /* \"#utility.yul\":13331:13335   */\n      0x80\n        /* \"#utility.yul\":13324:13329   */\n      dup4\n        /* \"#utility.yul\":13320:13336   */\n      add\n        /* \"#utility.yul\":13314:13337   */\n      mload\n        /* \"#utility.yul\":13350:13413   */\n      tag_319\n        /* \"#utility.yul\":13407:13411   */\n      0x80\n        /* \"#utility.yul\":13402:13405   */\n      dup7\n        /* \"#utility.yul\":13398:13412   */\n      add\n        /* \"#utility.yul\":13384:13396   */\n      dup3\n        /* \"#utility.yul\":13350:13413   */\n      tag_141\n      jump\t// in\n    tag_319:\n        /* \"#utility.yul\":13258:13423   */\n      pop\n        /* \"#utility.yul\":13440:13444   */\n      dup1\n        /* \"#utility.yul\":13433:13444   */\n      swap2\n      pop\n        /* \"#utility.yul\":12437:13450   */\n      pop\n        /* \"#utility.yul\":12321:13450   */\n      swap3\n      swap2\n      pop\n      pop\n      jump\t// out\n        /* \"#utility.yul\":13456:13813   */\n    tag_50:\n        /* \"#utility.yul\":13591:13595   */\n      0x00\n        /* \"#utility.yul\":13629:13631   */\n      0x20\n        /* \"#utility.yul\":13618:13627   */\n      dup3\n        /* \"#utility.yul\":13614:13632   */\n      add\n        /* \"#utility.yul\":13606:13632   */\n      swap1\n      pop\n        /* \"#utility.yul\":13678:13687   */\n      dup2\n        /* \"#utility.yul\":13672:13676   */\n      dup2\n        /* \"#utility.yul\":13668:13688   */\n      sub\n        /* \"#utility.yul\":13664:13665   */\n      0x00\n        /* \"#utility.yul\":13653:13662   */\n      dup4\n        /* \"#utility.yul\":13649:13666   */\n      add\n        /* \"#utility.yul\":13642:13689   */\n      mstore\n        /* \"#utility.yul\":13706:13806   */\n      tag_321\n        /* \"#utility.yul\":13801:13805   */\n      dup2\n        /* \"#utility.yul\":13792:13798   */\n      dup5\n        /* \"#utility.yul\":13706:13806   */\n      tag_162\n      jump\t// in\n    tag_321:\n        /* \"#utility.yul\":13698:13806   */\n      swap1\n      pop\n        /* \"#utility.yul\":13456:13813   */\n      swap3\n      swap2\n      pop\n      pop\n      jump\t// out\n        /* \"#utility.yul\":13819:13999   */\n    tag_163:\n        /* \"#utility.yul\":13867:13944   */\n      0x4e487b7100000000000000000000000000000000000000000000000000000000\n        /* \"#utility.yul\":13864:13865   */\n      0x00\n        /* \"#utility.yul\":13857:13945   */\n      mstore\n        /* \"#utility.yul\":13964:13968   */\n      0x22\n        /* \"#utility.yul\":13961:13962   */\n      0x04\n        /* \"#utility.yul\":13954:13969   */\n      mstore\n        /* \"#utility.yul\":13988:13992   */\n      0x24\n        /* \"#utility.yul\":13985:13986   */\n      0x00\n        /* \"#utility.yul\":13978:13993   */\n      revert\n        /* \"#utility.yul\":14005:14325   */\n    tag_54:\n        /* \"#utility.yul\":14049:14055   */\n      0x00\n        /* \"#utility.yul\":14086:14087   */\n      0x02\n        /* \"#utility.yul\":14080:14084   */\n      dup3\n        /* \"#utility.yul\":14076:14088   */\n      div\n        /* \"#utility.yul\":14066:14088   */\n      swap1\n      pop\n        /* \"#utility.yul\":14133:14134   */\n      0x01\n        /* \"#utility.yul\":14127:14131   */\n      dup3\n        /* \"#utility.yul\":14123:14135   */\n      and\n        /* \"#utility.yul\":14154:14172   */\n      dup1\n        /* \"#utility.yul\":14144:14225   */\n      tag_324\n      jumpi\n        /* \"#utility.yul\":14210:14214   */\n      0x7f\n        /* \"#utility.yul\":14202:14208   */\n      dup3\n        /* \"#utility.yul\":14198:14215   */\n      and\n        /* \"#utility.yul\":14188:14215   */\n      swap2\n      pop\n        /* \"#utility.yul\":14144:14225   */\n    tag_324:\n        /* \"#utility.yul\":14272:14274   */\n      0x20\n        /* \"#utility.yul\":14264:14270   */\n      dup3\n        /* \"#utility.yul\":14261:14275   */\n      lt\n        /* \"#utility.yul\":14241:14259   */\n      dup2\n        /* \"#utility.yul\":14238:14276   */\n      sub\n        /* \"#utility.yul\":14235:14319   */\n      tag_325\n      jumpi\n        /* \"#utility.yul\":14291:14309   */\n      tag_326\n      tag_163\n      jump\t// in\n    tag_326:\n        /* \"#utility.yul\":14235:14319   */\n    tag_325:\n        /* \"#utility.yul\":14056:14325   */\n      pop\n        /* \"#utility.yul\":14005:14325   */\n      swap2\n      swap1\n      pop\n      jump\t// out\n        /* \"#utility.yul\":14331:14511   */\n    tag_62:\n        /* \"#utility.yul\":14379:14456   */\n      0x4e487b7100000000000000000000000000000000000000000000000000000000\n        /* \"#utility.yul\":14376:14377   */\n      0x00\n        /* \"#utility.yul\":14369:14457   */\n      mstore\n        /* \"#utility.yul\":14476:14480   */\n      0x32\n        /* \"#utility.yul\":14473:14474   */\n      0x04\n        /* \"#utility.yul\":14466:14481   */\n      mstore\n        /* \"#utility.yul\":14500:14504   */\n      0x24\n        /* \"#utility.yul\":14497:14498   */\n      0x00\n        /* \"#utility.yul\":14490:14505   */\n      revert\n        /* \"#utility.yul\":14517:14688   */\n    tag_164:\n        /* \"#utility.yul\":14657:14680   */\n      0x545745455420444f4553204e4f54204558495354210000000000000000000000\n        /* \"#utility.yul\":14653:14654   */\n      0x00\n        /* \"#utility.yul\":14645:14651   */\n      dup3\n        /* \"#utility.yul\":14641:14655   */\n      add\n        /* \"#utility.yul\":14634:14681   */\n      mstore\n        /* \"#utility.yul\":14517:14688   */\n      pop\n      jump\t// out\n        /* \"#utility.yul\":14694:15060   */\n    tag_165:\n        /* \"#utility.yul\":14836:14839   */\n      0x00\n        /* \"#utility.yul\":14857:14924   */\n      tag_330\n        /* \"#utility.yul\":14921:14923   */\n      0x15\n        /* \"#utility.yul\":14916:14919   */\n      dup4\n        /* \"#utility.yul\":14857:14924   */\n      tag_134\n      jump\t// in\n    tag_330:\n        /* \"#utility.yul\":14850:14924   */\n      swap2\n      pop\n        /* \"#utility.yul\":14933:15026   */\n      tag_331\n        /* \"#utility.yul\":15022:15025   */\n      dup3\n        /* \"#utility.yul\":14933:15026   */\n      tag_164\n      jump\t// in\n    tag_331:\n        /* \"#utility.yul\":15051:15053   */\n      0x20\n        /* \"#utility.yul\":15046:15049   */\n      dup3\n        /* \"#utility.yul\":15042:15054   */\n      add\n        /* \"#utility.yul\":15035:15054   */\n      swap1\n      pop\n        /* \"#utility.yul\":14694:15060   */\n      swap2\n      swap1\n      pop\n      jump\t// out\n        /* \"#utility.yul\":15066:15485   */\n    tag_66:\n        /* \"#utility.yul\":15232:15236   */\n      0x00\n        /* \"#utility.yul\":15270:15272   */\n      0x20\n        /* \"#utility.yul\":15259:15268   */\n      dup3\n        /* \"#utility.yul\":15255:15273   */\n      add\n        /* \"#utility.yul\":15247:15273   */\n      swap1\n      pop\n        /* \"#utility.yul\":15319:15328   */\n      dup2\n        /* \"#utility.yul\":15313:15317   */\n      dup2\n        /* \"#utility.yul\":15309:15329   */\n      sub\n        /* \"#utility.yul\":15305:15306   */\n      0x00\n        /* \"#utility.yul\":15294:15303   */\n      dup4\n        /* \"#utility.yul\":15290:15307   */\n      add\n        /* \"#utility.yul\":15283:15330   */\n      mstore\n        /* \"#utility.yul\":15347:15478   */\n      tag_333\n        /* \"#utility.yul\":15473:15477   */\n      dup2\n        /* \"#utility.yul\":15347:15478   */\n      tag_165\n      jump\t// in\n    tag_333:\n        /* \"#utility.yul\":15339:15478   */\n      swap1\n      pop\n        /* \"#utility.yul\":15066:15485   */\n      swap2\n      swap1\n      pop\n      jump\t// out\n        /* \"#utility.yul\":15491:15660   */\n    tag_166:\n        /* \"#utility.yul\":15631:15652   */\n      0x545745455420484153204e4f54204c494b455300000000000000000000000000\n        /* \"#utility.yul\":15627:15628   */\n      0x00\n        /* \"#utility.yul\":15619:15625   */\n      dup3\n        /* \"#utility.yul\":15615:15629   */\n      add\n        /* \"#utility.yul\":15608:15653   */\n      mstore\n        /* \"#utility.yul\":15491:15660   */\n      pop\n      jump\t// out\n        /* \"#utility.yul\":15666:16032   */\n    tag_167:\n        /* \"#utility.yul\":15808:15811   */\n      0x00\n        /* \"#utility.yul\":15829:15896   */\n      tag_336\n        /* \"#utility.yul\":15893:15895   */\n      0x13\n        /* \"#utility.yul\":15888:15891   */\n      dup4\n        /* \"#utility.yul\":15829:15896   */\n      tag_134\n      jump\t// in\n    tag_336:\n        /* \"#utility.yul\":15822:15896   */\n      swap2\n      pop\n        /* \"#utility.yul\":15905:15998   */\n      tag_337\n        /* \"#utility.yul\":15994:15997   */\n      dup3\n        /* \"#utility.yul\":15905:15998   */\n      tag_166\n      jump\t// in\n    tag_337:\n        /* \"#utility.yul\":16023:16025   */\n      0x20\n        /* \"#utility.yul\":16018:16021   */\n      dup3\n        /* \"#utility.yul\":16014:16026   */\n      add\n        /* \"#utility.yul\":16007:16026   */\n      swap1\n      pop\n        /* \"#utility.yul\":15666:16032   */\n      swap2\n      swap1\n      pop\n      jump\t// out\n        /* \"#utility.yul\":16038:16457   */\n    tag_72:\n        /* \"#utility.yul\":16204:16208   */\n      0x00\n        /* \"#utility.yul\":16242:16244   */\n      0x20\n        /* \"#utility.yul\":16231:16240   */\n      dup3\n        /* \"#utility.yul\":16227:16245   */\n      add\n        /* \"#utility.yul\":16219:16245   */\n      swap1\n      pop\n        /* \"#utility.yul\":16291:16300   */\n      dup2\n        /* \"#utility.yul\":16285:16289   */\n      dup2\n        /* \"#utility.yul\":16281:16301   */\n      sub\n        /* \"#utility.yul\":16277:16278   */\n      0x00\n        /* \"#utility.yul\":16266:16275   */\n      dup4\n        /* \"#utility.yul\":16262:16279   */\n      add\n        /* \"#utility.yul\":16255:16302   */\n      mstore\n        /* \"#utility.yul\":16319:16450   */\n      tag_339\n        /* \"#utility.yul\":16445:16449   */\n      dup2\n        /* \"#utility.yul\":16319:16450   */\n      tag_167\n      jump\t// in\n    tag_339:\n        /* \"#utility.yul\":16311:16450   */\n      swap1\n      pop\n        /* \"#utility.yul\":16038:16457   */\n      swap2\n      swap1\n      pop\n      jump\t// out\n        /* \"#utility.yul\":16463:16643   */\n    tag_168:\n        /* \"#utility.yul\":16511:16588   */\n      0x4e487b7100000000000000000000000000000000000000000000000000000000\n        /* \"#utility.yul\":16508:16509   */\n      0x00\n        /* \"#utility.yul\":16501:16589   */\n      mstore\n        /* \"#utility.yul\":16608:16612   */\n      0x11\n        /* \"#utility.yul\":16605:16606   */\n      0x04\n        /* \"#utility.yul\":16598:16613   */\n      mstore\n        /* \"#utility.yul\":16632:16636   */\n      0x24\n        /* \"#utility.yul\":16629:16630   */\n      0x00\n        /* \"#utility.yul\":16622:16637   */\n      revert\n        /* \"#utility.yul\":16649:16820   */\n    tag_77:\n        /* \"#utility.yul\":16688:16691   */\n      0x00\n        /* \"#utility.yul\":16711:16735   */\n      tag_342\n        /* \"#utility.yul\":16729:16734   */\n      dup3\n        /* \"#utility.yul\":16711:16735   */\n      tag_128\n      jump\t// in\n    tag_342:\n        /* \"#utility.yul\":16702:16735   */\n      swap2\n      pop\n        /* \"#utility.yul\":16757:16761   */\n      0x00\n        /* \"#utility.yul\":16750:16755   */\n      dup3\n        /* \"#utility.yul\":16747:16762   */\n      sub\n        /* \"#utility.yul\":16744:16785   */\n      tag_343\n      jumpi\n        /* \"#utility.yul\":16765:16783   */\n      tag_344\n      tag_168\n      jump\t// in\n    tag_344:\n        /* \"#utility.yul\":16744:16785   */\n    tag_343:\n        /* \"#utility.yul\":16812:16813   */\n      0x01\n        /* \"#utility.yul\":16805:16810   */\n      dup3\n        /* \"#utility.yul\":16801:16814   */\n      sub\n        /* \"#utility.yul\":16794:16814   */\n      swap1\n      pop\n        /* \"#utility.yul\":16649:16820   */\n      swap2\n      swap1\n      pop\n      jump\t// out\n        /* \"#utility.yul\":16826:16998   */\n    tag_169:\n        /* \"#utility.yul\":16966:16990   */\n      0x594f5520415245204e4f5420544845204f574e45522100000000000000000000\n        /* \"#utility.yul\":16962:16963   */\n      0x00\n        /* \"#utility.yul\":16954:16960   */\n      dup3\n        /* \"#utility.yul\":16950:16964   */\n      add\n        /* \"#utility.yul\":16943:16991   */\n      mstore\n        /* \"#utility.yul\":16826:16998   */\n      pop\n      jump\t// out\n        /* \"#utility.yul\":17004:17370   */\n    tag_170:\n        /* \"#utility.yul\":17146:17149   */\n      0x00\n        /* \"#utility.yul\":17167:17234   */\n      tag_347\n        /* \"#utility.yul\":17231:17233   */\n      0x16\n        /* \"#utility.yul\":17226:17229   */\n      dup4\n        /* \"#utility.yul\":17167:17234   */\n      tag_134\n      jump\t// in\n    tag_347:\n        /* \"#utility.yul\":17160:17234   */\n      swap2\n      pop\n        /* \"#utility.yul\":17243:17336   */\n      tag_348\n        /* \"#utility.yul\":17332:17335   */\n      dup3\n        /* \"#utility.yul\":17243:17336   */\n      tag_169\n      jump\t// in\n    tag_348:\n        /* \"#utility.yul\":17361:17363   */\n      0x20\n        /* \"#utility.yul\":17356:17359   */\n      dup3\n        /* \"#utility.yul\":17352:17364   */\n      add\n        /* \"#utility.yul\":17345:17364   */\n      swap1\n      pop\n        /* \"#utility.yul\":17004:17370   */\n      swap2\n      swap1\n      pop\n      jump\t// out\n        /* \"#utility.yul\":17376:17795   */\n    tag_90:\n        /* \"#utility.yul\":17542:17546   */\n      0x00\n        /* \"#utility.yul\":17580:17582   */\n      0x20\n        /* \"#utility.yul\":17569:17578   */\n      dup3\n        /* \"#utility.yul\":17565:17583   */\n      add\n        /* \"#utility.yul\":17557:17583   */\n      swap1\n      pop\n        /* \"#utility.yul\":17629:17638   */\n      dup2\n        /* \"#utility.yul\":17623:17627   */\n      dup2\n        /* \"#utility.yul\":17619:17639   */\n      sub\n        /* \"#utility.yul\":17615:17616   */\n      0x00\n        /* \"#utility.yul\":17604:17613   */\n      dup4\n        /* \"#utility.yul\":17600:17617   */\n      add\n        /* \"#utility.yul\":17593:17640   */\n      mstore\n        /* \"#utility.yul\":17657:17788   */\n      tag_350\n        /* \"#utility.yul\":17783:17787   */\n      dup2\n        /* \"#utility.yul\":17657:17788   */\n      tag_170\n      jump\t// in\n    tag_350:\n        /* \"#utility.yul\":17649:17788   */\n      swap1\n      pop\n        /* \"#utility.yul\":17376:17795   */\n      swap2\n      swap1\n      pop\n      jump\t// out\n        /* \"#utility.yul\":17801:18034   */\n    tag_102:\n        /* \"#utility.yul\":17840:17843   */\n      0x00\n        /* \"#utility.yul\":17863:17887   */\n      tag_352\n        /* \"#utility.yul\":17881:17886   */\n      dup3\n        /* \"#utility.yul\":17863:17887   */\n      tag_128\n      jump\t// in\n    tag_352:\n        /* \"#utility.yul\":17854:17887   */\n      swap2\n      pop\n        /* \"#utility.yul\":17909:17975   */\n      0xffffffffffffffffffffffffffffffffffffffffffffffffffffffffffffffff\n        /* \"#utility.yul\":17902:17907   */\n      dup3\n        /* \"#utility.yul\":17899:17976   */\n      sub\n        /* \"#utility.yul\":17896:17999   */\n      tag_353\n      jumpi\n        /* \"#utility.yul\":17979:17997   */\n      tag_354\n      tag_168\n      jump\t// in\n    tag_354:\n        /* \"#utility.yul\":17896:17999   */\n    tag_353:\n        /* \"#utility.yul\":18026:18027   */\n      0x01\n        /* \"#utility.yul\":18019:18024   */\n      dup3\n        /* \"#utility.yul\":18015:18028   */\n      add\n        /* \"#utility.yul\":18008:18028   */\n      swap1\n      pop\n        /* \"#utility.yul\":17801:18034   */\n      swap2\n      swap1\n      pop\n      jump\t// out\n        /* \"#utility.yul\":18040:18212   */\n    tag_171:\n        /* \"#utility.yul\":18180:18204   */\n      0x547765657420697320746f20686967682c2062726f2100000000000000000000\n        /* \"#utility.yul\":18176:18177   */\n      0x00\n        /* \"#utility.yul\":18168:18174   */\n      dup3\n        /* \"#utility.yul\":18164:18178   */\n      add\n        /* \"#utility.yul\":18157:18205   */\n      mstore\n        /* \"#utility.yul\":18040:18212   */\n      pop\n      jump\t// out\n        /* \"#utility.yul\":18218:18584   */\n    tag_172:\n        /* \"#utility.yul\":18360:18363   */\n      0x00\n        /* \"#utility.yul\":18381:18448   */\n      tag_357\n        /* \"#utility.yul\":18445:18447   */\n      0x16\n        /* \"#utility.yul\":18440:18443   */\n      dup4\n        /* \"#utility.yul\":18381:18448   */\n      tag_134\n      jump\t// in\n    tag_357:\n        /* \"#utility.yul\":18374:18448   */\n      swap2\n      pop\n        /* \"#utility.yul\":18457:18550   */\n      tag_358\n        /* \"#utility.yul\":18546:18549   */\n      dup3\n        /* \"#utility.yul\":18457:18550   */\n      tag_171\n      jump\t// in\n    tag_358:\n        /* \"#utility.yul\":18575:18577   */\n      0x20\n        /* \"#utility.yul\":18570:18573   */\n      dup3\n        /* \"#utility.yul\":18566:18578   */\n      add\n        /* \"#utility.yul\":18559:18578   */\n      swap1\n      pop\n        /* \"#utility.yul\":18218:18584   */\n      swap2\n      swap1\n      pop\n      jump\t// out\n        /* \"#utility.yul\":18590:19009   */\n    tag_106:\n        /* \"#utility.yul\":18756:18760   */\n      0x00\n        /* \"#utility.yul\":18794:18796   */\n      0x20\n        /* \"#utility.yul\":18783:18792   */\n      dup3\n        /* \"#utility.yul\":18779:18797   */\n      add\n        /* \"#utility.yul\":18771:18797   */\n      swap1\n      pop\n        /* \"#utility.yul\":18843:18852   */\n      dup2\n        /* \"#utility.yul\":18837:18841   */\n      dup2\n        /* \"#utility.yul\":18833:18853   */\n      sub\n        /* \"#utility.yul\":18829:18830   */\n      0x00\n        /* \"#utility.yul\":18818:18827   */\n      dup4\n        /* \"#utility.yul\":18814:18831   */\n      add\n        /* \"#utility.yul\":18807:18854   */\n      mstore\n        /* \"#utility.yul\":18871:19002   */\n      tag_360\n        /* \"#utility.yul\":18997:19001   */\n      dup2\n        /* \"#utility.yul\":18871:19002   */\n      tag_172\n      jump\t// in\n    tag_360:\n        /* \"#utility.yul\":18863:19002   */\n      swap1\n      pop\n        /* \"#utility.yul\":18590:19009   */\n      swap2\n      swap1\n      pop\n      jump\t// out\n        /* \"#utility.yul\":19015:19156   */\n    tag_173:\n        /* \"#utility.yul\":19064:19068   */\n      0x00\n        /* \"#utility.yul\":19087:19090   */\n      dup2\n        /* \"#utility.yul\":19079:19090   */\n      swap1\n      pop\n        /* \"#utility.yul\":19110:19113   */\n      dup2\n        /* \"#utility.yul\":19107:19108   */\n      0x00\n        /* \"#utility.yul\":19100:19114   */\n      mstore\n        /* \"#utility.yul\":19144:19148   */\n      0x20\n        /* \"#utility.yul\":19141:19142   */\n      0x00\n        /* \"#utility.yul\":19131:19149   */\n      keccak256\n        /* \"#utility.yul\":19123:19149   */\n      swap1\n      pop\n        /* \"#utility.yul\":19015:19156   */\n      swap2\n      swap1\n      pop\n      jump\t// out\n        /* \"#utility.yul\":19162:19255   */\n    tag_174:\n        /* \"#utility.yul\":19199:19205   */\n      0x00\n        /* \"#utility.yul\":19246:19248   */\n      0x20\n        /* \"#utility.yul\":19241:19243   */\n      0x1f\n        /* \"#utility.yul\":19234:19239   */\n      dup4\n        /* \"#utility.yul\":19230:19244   */\n      add\n        /* \"#utility.yul\":19226:19249   */\n      div\n        /* \"#utility.yul\":19216:19249   */\n      swap1\n      pop\n        /* \"#utility.yul\":19162:19255   */\n      swap2\n      swap1\n      pop\n      jump\t// out\n        /* \"#utility.yul\":19261:19368   */\n    tag_175:\n        /* \"#utility.yul\":19305:19313   */\n      0x00\n        /* \"#utility.yul\":19355:19360   */\n      dup3\n        /* \"#utility.yul\":19349:19353   */\n      dup3\n        /* \"#utility.yul\":19345:19361   */\n      shl\n        /* \"#utility.yul\":19324:19361   */\n      swap1\n      pop\n        /* \"#utility.yul\":19261:19368   */\n      swap3\n      swap2\n      pop\n      pop\n      jump\t// out\n        /* \"#utility.yul\":19374:19767   */\n    tag_176:\n        /* \"#utility.yul\":19443:19449   */\n      0x00\n        /* \"#utility.yul\":19493:19494   */\n      0x08\n        /* \"#utility.yul\":19481:19491   */\n      dup4\n        /* \"#utility.yul\":19477:19495   */\n      mul\n        /* \"#utility.yul\":19516:19613   */\n      tag_365\n        /* \"#utility.yul\":19546:19612   */\n      0xffffffffffffffffffffffffffffffffffffffffffffffffffffffffffffffff\n        /* \"#utility.yul\":19535:19544   */\n      dup3\n        /* \"#utility.yul\":19516:19613   */\n      tag_175\n      jump\t// in\n    tag_365:\n        /* \"#utility.yul\":19634:19673   */\n      tag_366\n        /* \"#utility.yul\":19664:19672   */\n      dup7\n        /* \"#utility.yul\":19653:19662   */\n      dup4\n        /* \"#utility.yul\":19634:19673   */\n      tag_175\n      jump\t// in\n    tag_366:\n        /* \"#utility.yul\":19622:19673   */\n      swap6\n      pop\n        /* \"#utility.yul\":19706:19710   */\n      dup1\n        /* \"#utility.yul\":19702:19711   */\n      not\n        /* \"#utility.yul\":19695:19700   */\n      dup5\n        /* \"#utility.yul\":19691:19712   */\n      and\n        /* \"#utility.yul\":19682:19712   */\n      swap4\n      pop\n        /* \"#utility.yul\":19755:19759   */\n      dup1\n        /* \"#utility.yul\":19745:19753   */\n      dup7\n        /* \"#utility.yul\":19741:19760   */\n      and\n        /* \"#utility.yul\":19734:19739   */\n      dup5\n        /* \"#utility.yul\":19731:19761   */\n      or\n        /* \"#utility.yul\":19721:19761   */\n      swap3\n      pop\n        /* \"#utility.yul\":19450:19767   */\n      pop\n      pop\n        /* \"#utility.yul\":19374:19767   */\n      swap4\n      swap3\n      pop\n      pop\n      pop\n      jump\t// out\n        /* \"#utility.yul\":19773:19833   */\n    tag_177:\n        /* \"#utility.yul\":19801:19804   */\n      0x00\n        /* \"#utility.yul\":19822:19827   */\n      dup2\n        /* \"#utility.yul\":19815:19827   */\n      swap1\n      pop\n        /* \"#utility.yul\":19773:19833   */\n      swap2\n      swap1\n      pop\n      jump\t// out\n        /* \"#utility.yul\":19839:19981   */\n    tag_178:\n        /* \"#utility.yul\":19889:19898   */\n      0x00\n        /* \"#utility.yul\":19922:19975   */\n      tag_369\n        /* \"#utility.yul\":19940:19974   */\n      tag_370\n        /* \"#utility.yul\":19949:19973   */\n      tag_371\n        /* \"#utility.yul\":19967:19972   */\n      dup5\n        /* \"#utility.yul\":19949:19973   */\n      tag_128\n      jump\t// in\n    tag_371:\n        /* \"#utility.yul\":19940:19974   */\n      tag_177\n      jump\t// in\n    tag_370:\n        /* \"#utility.yul\":19922:19975   */\n      tag_128\n      jump\t// in\n    tag_369:\n        /* \"#utility.yul\":19909:19975   */\n      swap1\n      pop\n        /* \"#utility.yul\":19839:19981   */\n      swap2\n      swap1\n      pop\n      jump\t// out\n        /* \"#utility.yul\":19987:20062   */\n    tag_179:\n        /* \"#utility.yul\":20030:20033   */\n      0x00\n        /* \"#utility.yul\":20051:20056   */\n      dup2\n        /* \"#utility.yul\":20044:20056   */\n      swap1\n      pop\n        /* \"#utility.yul\":19987:20062   */\n      swap2\n      swap1\n      pop\n      jump\t// out\n        /* \"#utility.yul\":20068:20337   */\n    tag_180:\n        /* \"#utility.yul\":20178:20217   */\n      tag_374\n        /* \"#utility.yul\":20209:20216   */\n      dup4\n        /* \"#utility.yul\":20178:20217   */\n      tag_178\n      jump\t// in\n    tag_374:\n        /* \"#utility.yul\":20239:20330   */\n      tag_375\n        /* \"#utility.yul\":20288:20329   */\n      tag_376\n        /* \"#utility.yul\":20312:20328   */\n      dup3\n        /* \"#utility.yul\":20288:20329   */\n      tag_179\n      jump\t// in\n    tag_376:\n        /* \"#utility.yul\":20280:20286   */\n      dup5\n        /* \"#utility.yul\":20273:20277   */\n      dup5\n        /* \"#utility.yul\":20267:20278   */\n      sload\n        /* \"#utility.yul\":20239:20330   */\n      tag_176\n      jump\t// in\n    tag_375:\n        /* \"#utility.yul\":20233:20237   */\n      dup3\n        /* \"#utility.yul\":20226:20331   */\n      sstore\n        /* \"#utility.yul\":20144:20337   */\n      pop\n        /* \"#utility.yul\":20068:20337   */\n      pop\n      pop\n      pop\n      jump\t// out\n        /* \"#utility.yul\":20343:20416   */\n    tag_181:\n        /* \"#utility.yul\":20388:20391   */\n      0x00\n        /* \"#utility.yul\":20343:20416   */\n      swap1\n      jump\t// out\n        /* \"#utility.yul\":20422:20611   */\n    tag_182:\n        /* \"#utility.yul\":20499:20531   */\n      tag_379\n      tag_181\n      jump\t// in\n    tag_379:\n        /* \"#utility.yul\":20540:20605   */\n      tag_380\n        /* \"#utility.yul\":20598:20604   */\n      dup2\n        /* \"#utility.yul\":20590:20596   */\n      dup5\n        /* \"#utility.yul\":20584:20588   */\n      dup5\n        /* \"#utility.yul\":20540:20605   */\n      tag_180\n      jump\t// in\n    tag_380:\n        /* \"#utility.yul\":20475:20611   */\n      pop\n        /* \"#utility.yul\":20422:20611   */\n      pop\n      pop\n      jump\t// out\n        /* \"#utility.yul\":20617:20803   */\n    tag_183:\n        /* \"#utility.yul\":20677:20797   */\n    tag_382:\n        /* \"#utility.yul\":20694:20697   */\n      dup2\n        /* \"#utility.yul\":20687:20692   */\n      dup2\n        /* \"#utility.yul\":20684:20698   */\n      lt\n        /* \"#utility.yul\":20677:20797   */\n      iszero\n      tag_384\n      jumpi\n        /* \"#utility.yul\":20748:20787   */\n      tag_385\n        /* \"#utility.yul\":20785:20786   */\n      0x00\n        /* \"#utility.yul\":20778:20783   */\n      dup3\n        /* \"#utility.yul\":20748:20787   */\n      tag_182\n      jump\t// in\n    tag_385:\n        /* \"#utility.yul\":20721:20722   */\n      0x01\n        /* \"#utility.yul\":20714:20719   */\n      dup2\n        /* \"#utility.yul\":20710:20723   */\n      add\n        /* \"#utility.yul\":20701:20723   */\n      swap1\n      pop\n        /* \"#utility.yul\":20677:20797   */\n      jump(tag_382)\n    tag_384:\n        /* \"#utility.yul\":20617:20803   */\n      pop\n      pop\n      jump\t// out\n        /* \"#utility.yul\":20809:21352   */\n    tag_184:\n        /* \"#utility.yul\":20910:20912   */\n      0x1f\n        /* \"#utility.yul\":20905:20908   */\n      dup3\n        /* \"#utility.yul\":20902:20913   */\n      gt\n        /* \"#utility.yul\":20899:21345   */\n      iszero\n      tag_387\n      jumpi\n        /* \"#utility.yul\":20944:20982   */\n      tag_388\n        /* \"#utility.yul\":20976:20981   */\n      dup2\n        /* \"#utility.yul\":20944:20982   */\n      tag_173\n      jump\t// in\n    tag_388:\n        /* \"#utility.yul\":21028:21057   */\n      tag_389\n        /* \"#utility.yul\":21046:21056   */\n      dup5\n        /* \"#utility.yul\":21028:21057   */\n      tag_174\n      jump\t// in\n    tag_389:\n        /* \"#utility.yul\":21018:21026   */\n      dup2\n        /* \"#utility.yul\":21014:21058   */\n      add\n        /* \"#utility.yul\":21211:21213   */\n      0x20\n        /* \"#utility.yul\":21199:21209   */\n      dup6\n        /* \"#utility.yul\":21196:21214   */\n      lt\n        /* \"#utility.yul\":21193:21242   */\n      iszero\n      tag_390\n      jumpi\n        /* \"#utility.yul\":21232:21240   */\n      dup2\n        /* \"#utility.yul\":21217:21240   */\n      swap1\n      pop\n        /* \"#utility.yul\":21193:21242   */\n    tag_390:\n        /* \"#utility.yul\":21255:21335   */\n      tag_391\n        /* \"#utility.yul\":21311:21333   */\n      tag_392\n        /* \"#utility.yul\":21329:21332   */\n      dup6\n        /* \"#utility.yul\":21311:21333   */\n      tag_174\n      jump\t// in\n    tag_392:\n        /* \"#utility.yul\":21301:21309   */\n      dup4\n        /* \"#utility.yul\":21297:21334   */\n      add\n        /* \"#utility.yul\":21284:21295   */\n      dup3\n        /* \"#utility.yul\":21255:21335   */\n      tag_183\n      jump\t// in\n    tag_391:\n        /* \"#utility.yul\":20914:21345   */\n      pop\n      pop\n        /* \"#utility.yul\":20899:21345   */\n    tag_387:\n        /* \"#utility.yul\":20809:21352   */\n      pop\n      pop\n      pop\n      jump\t// out\n        /* \"#utility.yul\":21358:21475   */\n    tag_185:\n        /* \"#utility.yul\":21412:21420   */\n      0x00\n        /* \"#utility.yul\":21462:21467   */\n      dup3\n        /* \"#utility.yul\":21456:21460   */\n      dup3\n        /* \"#utility.yul\":21452:21468   */\n      shr\n        /* \"#utility.yul\":21431:21468   */\n      swap1\n      pop\n        /* \"#utility.yul\":21358:21475   */\n      swap3\n      swap2\n      pop\n      pop\n      jump\t// out\n        /* \"#utility.yul\":21481:21650   */\n    tag_186:\n        /* \"#utility.yul\":21525:21531   */\n      0x00\n        /* \"#utility.yul\":21558:21609   */\n      tag_395\n        /* \"#utility.yul\":21606:21607   */\n      0x00\n        /* \"#utility.yul\":21602:21608   */\n      not\n        /* \"#utility.yul\":21594:21599   */\n      dup5\n        /* \"#utility.yul\":21591:21592   */\n      0x08\n        /* \"#utility.yul\":21587:21600   */\n      mul\n        /* \"#utility.yul\":21558:21609   */\n      tag_185\n      jump\t// in\n    tag_395:\n        /* \"#utility.yul\":21554:21610   */\n      not\n        /* \"#utility.yul\":21639:21643   */\n      dup1\n        /* \"#utility.yul\":21633:21637   */\n      dup4\n        /* \"#utility.yul\":21629:21644   */\n      and\n        /* \"#utility.yul\":21619:21644   */\n      swap2\n      pop\n        /* \"#utility.yul\":21532:21650   */\n      pop\n        /* \"#utility.yul\":21481:21650   */\n      swap3\n      swap2\n      pop\n      pop\n      jump\t// out\n        /* \"#utility.yul\":21655:21950   */\n    tag_187:\n        /* \"#utility.yul\":21731:21735   */\n      0x00\n        /* \"#utility.yul\":21877:21906   */\n      tag_397\n        /* \"#utility.yul\":21902:21905   */\n      dup4\n        /* \"#utility.yul\":21896:21900   */\n      dup4\n        /* \"#utility.yul\":21877:21906   */\n      tag_186\n      jump\t// in\n    tag_397:\n        /* \"#utility.yul\":21869:21906   */\n      swap2\n      pop\n        /* \"#utility.yul\":21939:21942   */\n      dup3\n        /* \"#utility.yul\":21936:21937   */\n      0x02\n        /* \"#utility.yul\":21932:21943   */\n      mul\n        /* \"#utility.yul\":21926:21930   */\n      dup3\n        /* \"#utility.yul\":21923:21944   */\n      or\n        /* \"#utility.yul\":21915:21944   */\n      swap1\n      pop\n        /* \"#utility.yul\":21655:21950   */\n      swap3\n      swap2\n      pop\n      pop\n      jump\t// out\n        /* \"#utility.yul\":21955:23350   */\n    tag_109:\n        /* \"#utility.yul\":22072:22109   */\n      tag_399\n        /* \"#utility.yul\":22105:22108   */\n      dup3\n        /* \"#utility.yul\":22072:22109   */\n      tag_133\n      jump\t// in\n    tag_399:\n        /* \"#utility.yul\":22174:22192   */\n      0xffffffffffffffff\n        /* \"#utility.yul\":22166:22172   */\n      dup2\n        /* \"#utility.yul\":22163:22193   */\n      gt\n        /* \"#utility.yul\":22160:22216   */\n      iszero\n      tag_400\n      jumpi\n        /* \"#utility.yul\":22196:22214   */\n      tag_401\n      tag_155\n      jump\t// in\n    tag_401:\n        /* \"#utility.yul\":22160:22216   */\n    tag_400:\n        /* \"#utility.yul\":22240:22278   */\n      tag_402\n        /* \"#utility.yul\":22272:22276   */\n      dup3\n        /* \"#utility.yul\":22266:22277   */\n      sload\n        /* \"#utility.yul\":22240:22278   */\n      tag_54\n      jump\t// in\n    tag_402:\n        /* \"#utility.yul\":22325:22392   */\n      tag_403\n        /* \"#utility.yul\":22385:22391   */\n      dup3\n        /* \"#utility.yul\":22377:22383   */\n      dup3\n        /* \"#utility.yul\":22371:22375   */\n      dup6\n        /* \"#utility.yul\":22325:22392   */\n      tag_184\n      jump\t// in\n    tag_403:\n        /* \"#utility.yul\":22419:22420   */\n      0x00\n        /* \"#utility.yul\":22443:22447   */\n      0x20\n        /* \"#utility.yul\":22430:22447   */\n      swap1\n      pop\n        /* \"#utility.yul\":22475:22477   */\n      0x1f\n        /* \"#utility.yul\":22467:22473   */\n      dup4\n        /* \"#utility.yul\":22464:22478   */\n      gt\n        /* \"#utility.yul\":22492:22493   */\n      0x01\n        /* \"#utility.yul\":22487:23105   */\n      dup2\n      eq\n      tag_405\n      jumpi\n        /* \"#utility.yul\":23149:23150   */\n      0x00\n        /* \"#utility.yul\":23166:23172   */\n      dup5\n        /* \"#utility.yul\":23163:23240   */\n      iszero\n      tag_406\n      jumpi\n        /* \"#utility.yul\":23215:23224   */\n      dup3\n        /* \"#utility.yul\":23210:23213   */\n      dup8\n        /* \"#utility.yul\":23206:23225   */\n      add\n        /* \"#utility.yul\":23200:23226   */\n      mload\n        /* \"#utility.yul\":23191:23226   */\n      swap1\n      pop\n        /* \"#utility.yul\":23163:23240   */\n    tag_406:\n        /* \"#utility.yul\":23266:23333   */\n      tag_407\n        /* \"#utility.yul\":23326:23332   */\n      dup6\n        /* \"#utility.yul\":23319:23324   */\n      dup3\n        /* \"#utility.yul\":23266:23333   */\n      tag_187\n      jump\t// in\n    tag_407:\n        /* \"#utility.yul\":23260:23264   */\n      dup7\n        /* \"#utility.yul\":23253:23334   */\n      sstore\n        /* \"#utility.yul\":23122:23344   */\n      pop\n        /* \"#utility.yul\":22457:23344   */\n      jump(tag_404)\n        /* \"#utility.yul\":22487:23105   */\n    tag_405:\n        /* \"#utility.yul\":22539:22543   */\n      0x1f\n        /* \"#utility.yul\":22535:22544   */\n      not\n        /* \"#utility.yul\":22527:22533   */\n      dup5\n        /* \"#utility.yul\":22523:22545   */\n      and\n        /* \"#utility.yul\":22573:22610   */\n      tag_408\n        /* \"#utility.yul\":22605:22609   */\n      dup7\n        /* \"#utility.yul\":22573:22610   */\n      tag_173\n      jump\t// in\n    tag_408:\n        /* \"#utility.yul\":22632:22633   */\n      0x00\n        /* \"#utility.yul\":22646:22854   */\n    tag_409:\n        /* \"#utility.yul\":22660:22667   */\n      dup3\n        /* \"#utility.yul\":22657:22658   */\n      dup2\n        /* \"#utility.yul\":22654:22668   */\n      lt\n        /* \"#utility.yul\":22646:22854   */\n      iszero\n      tag_411\n      jumpi\n        /* \"#utility.yul\":22739:22748   */\n      dup5\n        /* \"#utility.yul\":22734:22737   */\n      dup10\n        /* \"#utility.yul\":22730:22749   */\n      add\n        /* \"#utility.yul\":22724:22750   */\n      mload\n        /* \"#utility.yul\":22716:22722   */\n      dup3\n        /* \"#utility.yul\":22709:22751   */\n      sstore\n        /* \"#utility.yul\":22790:22791   */\n      0x01\n        /* \"#utility.yul\":22782:22788   */\n      dup3\n        /* \"#utility.yul\":22778:22792   */\n      add\n        /* \"#utility.yul\":22768:22792   */\n      swap2\n      pop\n        /* \"#utility.yul\":22837:22839   */\n      0x20\n        /* \"#utility.yul\":22826:22835   */\n      dup6\n        /* \"#utility.yul\":22822:22840   */\n      add\n        /* \"#utility.yul\":22809:22840   */\n      swap5\n      pop\n        /* \"#utility.yul\":22683:22687   */\n      0x20\n        /* \"#utility.yul\":22680:22681   */\n      dup2\n        /* \"#utility.yul\":22676:22688   */\n      add\n        /* \"#utility.yul\":22671:22688   */\n      swap1\n      pop\n        /* \"#utility.yul\":22646:22854   */\n      jump(tag_409)\n    tag_411:\n        /* \"#utility.yul\":22882:22888   */\n      dup7\n        /* \"#utility.yul\":22873:22880   */\n      dup4\n        /* \"#utility.yul\":22870:22889   */\n      lt\n        /* \"#utility.yul\":22867:23046   */\n      iszero\n      tag_412\n      jumpi\n        /* \"#utility.yul\":22940:22949   */\n      dup5\n        /* \"#utility.yul\":22935:22938   */\n      dup10\n        /* \"#utility.yul\":22931:22950   */\n      add\n        /* \"#utility.yul\":22925:22951   */\n      mload\n        /* \"#utility.yul\":22983:23031   */\n      tag_413\n        /* \"#utility.yul\":23025:23029   */\n      0x1f\n        /* \"#utility.yul\":23017:23023   */\n      dup10\n        /* \"#utility.yul\":23013:23030   */\n      and\n        /* \"#utility.yul\":23002:23011   */\n      dup3\n        /* \"#utility.yul\":22983:23031   */\n      tag_186\n      jump\t// in\n    tag_413:\n        /* \"#utility.yul\":22975:22981   */\n      dup4\n        /* \"#utility.yul\":22968:23032   */\n      sstore\n        /* \"#utility.yul\":22890:23046   */\n      pop\n        /* \"#utility.yul\":22867:23046   */\n    tag_412:\n        /* \"#utility.yul\":23092:23093   */\n      0x01\n        /* \"#utility.yul\":23088:23089   */\n      0x02\n        /* \"#utility.yul\":23080:23086   */\n      dup9\n        /* \"#utility.yul\":23076:23090   */\n      mul\n        /* \"#utility.yul\":23072:23094   */\n      add\n        /* \"#utility.yul\":23066:23070   */\n      dup9\n        /* \"#utility.yul\":23059:23095   */\n      sstore\n        /* \"#utility.yul\":22494:23105   */\n      pop\n      pop\n      pop\n        /* \"#utility.yul\":22457:23344   */\n    tag_404:\n      pop\n        /* \"#utility.yul\":22047:23350   */\n      pop\n      pop\n      pop\n        /* \"#utility.yul\":21955:23350   */\n      pop\n      pop\n      jump\t// out\n\n    auxdata: 0xa26469706673582212207f4e07c91c9a72203aa931b4385c384be6e888109a84a07c7518206497ad454464736f6c634300081a0033\n}\n",
				"bytecode": {
					"linkReferences": {},
					"object": "608060405260c85f806101000a81548161ffff021916908361ffff160217905550348015602a575f80fd5b50335f60026101000a81548173ffffffffffffffffffffffffffffffffffffffff021916908373ffffffffffffffffffffffffffffffffffffffff16021790555061171c806100785f395ff3fe608060405234801561000f575f80fd5b5060043610610091575f3560e01c80636337821611610064578063633782161461011f5780636eb107971461013b5780637c9cd2bc146101595780638da5cb5b14610175578063c3ad5ecb1461019357610091565b806305a1b4a9146100955780633d9b569f146100c957806353256135146100e557806358bfa4ab14610103575b5f80fd5b6100af60048036038101906100aa9190610c09565b6101c3565b6040516100c0959493929190610cd5565b60405180910390f35b6100e360048036038101906100de9190610c09565b6102b4565b005b6100ed61046a565b6040516100fa9190610ec1565b60405180910390f35b61011d60048036038101906101189190610f18565b610603565b005b61013960048036038101906101349190610c09565b6106b0565b005b6101436107c6565b6040516101509190610f52565b60405180910390f35b610173600480360381019061016e9190611097565b6107d7565b005b61017d61098e565b60405161018a91906110de565b60405180910390f35b6101ad60048036038101906101a891906110f7565b6109b3565b6040516101ba9190611195565b60405180910390f35b6001602052815f5260405f2081815481106101dc575f80fd5b905f5260205f2090600502015f9150915050805f015490806001015f9054906101000a900473ffffffffffffffffffffffffffffffffffffffff1690806002018054610227906111e2565b80601f0160208091040260200160405190810160405280929190818152602001828054610253906111e2565b801561029e5780601f106102755761010080835404028352916020019161029e565b820191905f5260205f20905b81548152906001019060200180831161028157829003601f168201915b5050505050908060030154908060040154905085565b8060015f8473ffffffffffffffffffffffffffffffffffffffff1673ffffffffffffffffffffffffffffffffffffffff1681526020019081526020015f20828154811061030457610303611212565b5b905f5260205f2090600502015f015414610353576040517f08c379a000000000000000000000000000000000000000000000000000000000815260040161034a90611289565b60405180910390fd5b5f60015f8473ffffffffffffffffffffffffffffffffffffffff1673ffffffffffffffffffffffffffffffffffffffff1681526020019081526020015f2082815481106103a3576103a2611212565b5b905f5260205f20906005020160040154116103f3576040517f08c379a00000000000000000000000000000000000000000000000000000000081526004016103ea906112f1565b60405180910390fd5b60015f8373ffffffffffffffffffffffffffffffffffffffff1673ffffffffffffffffffffffffffffffffffffffff1681526020019081526020015f20818154811061044257610441611212565b5b905f5260205f2090600502016004015f8154809291906104619061133c565b91905055505050565b606060015f3373ffffffffffffffffffffffffffffffffffffffff1673ffffffffffffffffffffffffffffffffffffffff1681526020019081526020015f20805480602002602001604051908101604052809291908181526020015f905b828210156105fa578382905f5260205f2090600502016040518060a00160405290815f8201548152602001600182015f9054906101000a900473ffffffffffffffffffffffffffffffffffffffff1673ffffffffffffffffffffffffffffffffffffffff1673ffffffffffffffffffffffffffffffffffffffff168152602001600282018054610557906111e2565b80601f0160208091040260200160405190810160405280929190818152602001828054610583906111e2565b80156105ce5780601f106105a5576101008083540402835291602001916105ce565b820191905f5260205f20905b8154815290600101906020018083116105b157829003601f168201915b5050505050815260200160038201548152602001600482015481525050815260200190600101906104c8565b50505050905090565b5f60029054906101000a900473ffffffffffffffffffffffffffffffffffffffff1673ffffffffffffffffffffffffffffffffffffffff163373ffffffffffffffffffffffffffffffffffffffff1614610692576040517f08c379a0000000000000000000000000000000000000000000000000000000008152600401610689906113ad565b60405180910390fd5b805f806101000a81548161ffff021916908361ffff16021790555050565b8060015f8473ffffffffffffffffffffffffffffffffffffffff1673ffffffffffffffffffffffffffffffffffffffff1681526020019081526020015f208281548110610700576106ff611212565b5b905f5260205f2090600502015f01541461074f576040517f08c379a000000000000000000000000000000000000000000000000000000000815260040161074690611289565b60405180910390fd5b60015f8373ffffffffffffffffffffffffffffffffffffffff1673ffffffffffffffffffffffffffffffffffffffff1681526020019081526020015f20818154811061079e5761079d611212565b5b905f5260205f2090600502016004015f8154809291906107bd906113cb565b91905055505050565b5f8054906101000a900461ffff1681565b5f8054906101000a900461ffff1661ffff168151111561082c576040517f08c379a00000000000000000000000000000000000000000000000000000000081526004016108239061145c565b60405180910390fd5b5f6040518060a0016040528060015f3373ffffffffffffffffffffffffffffffffffffffff1673ffffffffffffffffffffffffffffffffffffffff1681526020019081526020015f208054905081526020013373ffffffffffffffffffffffffffffffffffffffff1681526020018381526020014281526020015f815250905060015f3373ffffffffffffffffffffffffffffffffffffffff1673ffffffffffffffffffffffffffffffffffffffff1681526020019081526020015f2081908060018154018082558091505060019003905f5260205f2090600502015f909190919091505f820151815f01556020820151816001015f6101000a81548173ffffffffffffffffffffffffffffffffffffffff021916908373ffffffffffffffffffffffffffffffffffffffff16021790555060408201518160020190816109739190611617565b50606082015181600301556080820151816004015550505050565b5f60029054906101000a900473ffffffffffffffffffffffffffffffffffffffff1681565b6109bb610b2a565b60015f3373ffffffffffffffffffffffffffffffffffffffff1673ffffffffffffffffffffffffffffffffffffffff1681526020019081526020015f208281548110610a0a57610a09611212565b5b905f5260205f2090600502016040518060a00160405290815f8201548152602001600182015f9054906101000a900473ffffffffffffffffffffffffffffffffffffffff1673ffffffffffffffffffffffffffffffffffffffff1673ffffffffffffffffffffffffffffffffffffffff168152602001600282018054610a8f906111e2565b80601f0160208091040260200160405190810160405280929190818152602001828054610abb906111e2565b8015610b065780601f10610add57610100808354040283529160200191610b06565b820191905f5260205f20905b815481529060010190602001808311610ae957829003601f168201915b50505050508152602001600382015481526020016004820154815250509050919050565b6040518060a001604052805f81526020015f73ffffffffffffffffffffffffffffffffffffffff168152602001606081526020015f81526020015f81525090565b5f604051905090565b5f80fd5b5f80fd5b5f73ffffffffffffffffffffffffffffffffffffffff82169050919050565b5f610ba582610b7c565b9050919050565b610bb581610b9b565b8114610bbf575f80fd5b50565b5f81359050610bd081610bac565b92915050565b5f819050919050565b610be881610bd6565b8114610bf2575f80fd5b50565b5f81359050610c0381610bdf565b92915050565b5f8060408385031215610c1f57610c1e610b74565b5b5f610c2c85828601610bc2565b9250506020610c3d85828601610bf5565b9150509250929050565b610c5081610bd6565b82525050565b610c5f81610b9b565b82525050565b5f81519050919050565b5f82825260208201905092915050565b8281835e5f83830152505050565b5f601f19601f8301169050919050565b5f610ca782610c65565b610cb18185610c6f565b9350610cc1818560208601610c7f565b610cca81610c8d565b840191505092915050565b5f60a082019050610ce85f830188610c47565b610cf56020830187610c56565b8181036040830152610d078186610c9d565b9050610d166060830185610c47565b610d236080830184610c47565b9695505050505050565b5f81519050919050565b5f82825260208201905092915050565b5f819050602082019050919050565b610d5f81610bd6565b82525050565b610d6e81610b9b565b82525050565b5f82825260208201905092915050565b5f610d8e82610c65565b610d988185610d74565b9350610da8818560208601610c7f565b610db181610c8d565b840191505092915050565b5f60a083015f830151610dd15f860182610d56565b506020830151610de46020860182610d65565b5060408301518482036040860152610dfc8282610d84565b9150506060830151610e116060860182610d56565b506080830151610e246080860182610d56565b508091505092915050565b5f610e3a8383610dbc565b905092915050565b5f602082019050919050565b5f610e5882610d2d565b610e628185610d37565b935083602082028501610e7485610d47565b805f5b85811015610eaf5784840389528151610e908582610e2f565b9450610e9b83610e42565b925060208a01995050600181019050610e77565b50829750879550505050505092915050565b5f6020820190508181035f830152610ed98184610e4e565b905092915050565b5f61ffff82169050919050565b610ef781610ee1565b8114610f01575f80fd5b50565b5f81359050610f1281610eee565b92915050565b5f60208284031215610f2d57610f2c610b74565b5b5f610f3a84828501610f04565b91505092915050565b610f4c81610ee1565b82525050565b5f602082019050610f655f830184610f43565b92915050565b5f80fd5b5f80fd5b7f4e487b71000000000000000000000000000000000000000000000000000000005f52604160045260245ffd5b610fa982610c8d565b810181811067ffffffffffffffff82111715610fc857610fc7610f73565b5b80604052505050565b5f610fda610b6b565b9050610fe68282610fa0565b919050565b5f67ffffffffffffffff82111561100557611004610f73565b5b61100e82610c8d565b9050602081019050919050565b828183375f83830152505050565b5f61103b61103684610feb565b610fd1565b90508281526020810184848401111561105757611056610f6f565b5b61106284828561101b565b509392505050565b5f82601f83011261107e5761107d610f6b565b5b813561108e848260208601611029565b91505092915050565b5f602082840312156110ac576110ab610b74565b5b5f82013567ffffffffffffffff8111156110c9576110c8610b78565b5b6110d58482850161106a565b91505092915050565b5f6020820190506110f15f830184610c56565b92915050565b5f6020828403121561110c5761110b610b74565b5b5f61111984828501610bf5565b91505092915050565b5f60a083015f8301516111375f860182610d56565b50602083015161114a6020860182610d65565b50604083015184820360408601526111628282610d84565b91505060608301516111776060860182610d56565b50608083015161118a6080860182610d56565b508091505092915050565b5f6020820190508181035f8301526111ad8184611122565b905092915050565b7f4e487b71000000000000000000000000000000000000000000000000000000005f52602260045260245ffd5b5f60028204905060018216806111f957607f821691505b60208210810361120c5761120b6111b5565b5b50919050565b7f4e487b71000000000000000000000000000000000000000000000000000000005f52603260045260245ffd5b7f545745455420444f4553204e4f542045584953542100000000000000000000005f82015250565b5f611273601583610c6f565b915061127e8261123f565b602082019050919050565b5f6020820190508181035f8301526112a081611267565b9050919050565b7f545745455420484153204e4f54204c494b4553000000000000000000000000005f82015250565b5f6112db601383610c6f565b91506112e6826112a7565b602082019050919050565b5f6020820190508181035f830152611308816112cf565b9050919050565b7f4e487b71000000000000000000000000000000000000000000000000000000005f52601160045260245ffd5b5f61134682610bd6565b91505f82036113585761135761130f565b5b600182039050919050565b7f594f5520415245204e4f5420544845204f574e455221000000000000000000005f82015250565b5f611397601683610c6f565b91506113a282611363565b602082019050919050565b5f6020820190508181035f8301526113c48161138b565b9050919050565b5f6113d582610bd6565b91507fffffffffffffffffffffffffffffffffffffffffffffffffffffffffffffffff82036114075761140661130f565b5b600182019050919050565b7f547765657420697320746f20686967682c2062726f21000000000000000000005f82015250565b5f611446601683610c6f565b915061145182611412565b602082019050919050565b5f6020820190508181035f8301526114738161143a565b9050919050565b5f819050815f5260205f209050919050565b5f6020601f8301049050919050565b5f82821b905092915050565b5f600883026114d67fffffffffffffffffffffffffffffffffffffffffffffffffffffffffffffffff8261149b565b6114e0868361149b565b95508019841693508086168417925050509392505050565b5f819050919050565b5f61151b61151661151184610bd6565b6114f8565b610bd6565b9050919050565b5f819050919050565b61153483611501565b61154861154082611522565b8484546114a7565b825550505050565b5f90565b61155c611550565b61156781848461152b565b505050565b5b8181101561158a5761157f5f82611554565b60018101905061156d565b5050565b601f8211156115cf576115a08161147a565b6115a98461148c565b810160208510156115b8578190505b6115cc6115c48561148c565b83018261156c565b50505b505050565b5f82821c905092915050565b5f6115ef5f19846008026115d4565b1980831691505092915050565b5f61160783836115e0565b9150826002028217905092915050565b61162082610c65565b67ffffffffffffffff81111561163957611638610f73565b5b61164382546111e2565b61164e82828561158e565b5f60209050601f83116001811461167f575f841561166d578287015190505b61167785826115fc565b8655506116de565b601f19841661168d8661147a565b5f5b828110156116b45784890151825560018201915060208501945060208101905061168f565b868310156116d157848901516116cd601f8916826115e0565b8355505b6001600288020188555050505b50505050505056fea26469706673582212207f4e07c91c9a72203aa931b4385c384be6e888109a84a07c7518206497ad454464736f6c634300081a0033",
					"opcodes": "PUSH1 0x80 PUSH1 0x40 MSTORE PUSH1 0xC8 PUSH0 DUP1 PUSH2 0x100 EXP DUP2 SLOAD DUP2 PUSH2 0xFFFF MUL NOT AND SWAP1 DUP4 PUSH2 0xFFFF AND MUL OR SWAP1 SSTORE POP CALLVALUE DUP1 ISZERO PUSH1 0x2A JUMPI PUSH0 DUP1 REVERT JUMPDEST POP CALLER PUSH0 PUSH1 0x2 PUSH2 0x100 EXP DUP2 SLOAD DUP2 PUSH20 0xFFFFFFFFFFFFFFFFFFFFFFFFFFFFFFFFFFFFFFFF MUL NOT AND SWAP1 DUP4 PUSH20 0xFFFFFFFFFFFFFFFFFFFFFFFFFFFFFFFFFFFFFFFF AND MUL OR SWAP1 SSTORE POP PUSH2 0x171C DUP1 PUSH2 0x78 PUSH0 CODECOPY PUSH0 RETURN INVALID PUSH1 0x80 PUSH1 0x40 MSTORE CALLVALUE DUP1 ISZERO PUSH2 0xF JUMPI PUSH0 DUP1 REVERT JUMPDEST POP PUSH1 0x4 CALLDATASIZE LT PUSH2 0x91 JUMPI PUSH0 CALLDATALOAD PUSH1 0xE0 SHR DUP1 PUSH4 0x63378216 GT PUSH2 0x64 JUMPI DUP1 PUSH4 0x63378216 EQ PUSH2 0x11F JUMPI DUP1 PUSH4 0x6EB10797 EQ PUSH2 0x13B JUMPI DUP1 PUSH4 0x7C9CD2BC EQ PUSH2 0x159 JUMPI DUP1 PUSH4 0x8DA5CB5B EQ PUSH2 0x175 JUMPI DUP1 PUSH4 0xC3AD5ECB EQ PUSH2 0x193 JUMPI PUSH2 0x91 JUMP JUMPDEST DUP1 PUSH4 0x5A1B4A9 EQ PUSH2 0x95 JUMPI DUP1 PUSH4 0x3D9B569F EQ PUSH2 0xC9 JUMPI DUP1 PUSH4 0x53256135 EQ PUSH2 0xE5 JUMPI DUP1 PUSH4 0x58BFA4AB EQ PUSH2 0x103 JUMPI JUMPDEST PUSH0 DUP1 REVERT JUMPDEST PUSH2 0xAF PUSH1 0x4 DUP1 CALLDATASIZE SUB DUP2 ADD SWAP1 PUSH2 0xAA SWAP2 SWAP1 PUSH2 0xC09 JUMP JUMPDEST PUSH2 0x1C3 JUMP JUMPDEST PUSH1 0x40 MLOAD PUSH2 0xC0 SWAP6 SWAP5 SWAP4 SWAP3 SWAP2 SWAP1 PUSH2 0xCD5 JUMP JUMPDEST PUSH1 0x40 MLOAD DUP1 SWAP2 SUB SWAP1 RETURN JUMPDEST PUSH2 0xE3 PUSH1 0x4 DUP1 CALLDATASIZE SUB DUP2 ADD SWAP1 PUSH2 0xDE SWAP2 SWAP1 PUSH2 0xC09 JUMP JUMPDEST PUSH2 0x2B4 JUMP JUMPDEST STOP JUMPDEST PUSH2 0xED PUSH2 0x46A JUMP JUMPDEST PUSH1 0x40 MLOAD PUSH2 0xFA SWAP2 SWAP1 PUSH2 0xEC1 JUMP JUMPDEST PUSH1 0x40 MLOAD DUP1 SWAP2 SUB SWAP1 RETURN JUMPDEST PUSH2 0x11D PUSH1 0x4 DUP1 CALLDATASIZE SUB DUP2 ADD SWAP1 PUSH2 0x118 SWAP2 SWAP1 PUSH2 0xF18 JUMP JUMPDEST PUSH2 0x603 JUMP JUMPDEST STOP JUMPDEST PUSH2 0x139 PUSH1 0x4 DUP1 CALLDATASIZE SUB DUP2 ADD SWAP1 PUSH2 0x134 SWAP2 SWAP1 PUSH2 0xC09 JUMP JUMPDEST PUSH2 0x6B0 JUMP JUMPDEST STOP JUMPDEST PUSH2 0x143 PUSH2 0x7C6 JUMP JUMPDEST PUSH1 0x40 MLOAD PUSH2 0x150 SWAP2 SWAP1 PUSH2 0xF52 JUMP JUMPDEST PUSH1 0x40 MLOAD DUP1 SWAP2 SUB SWAP1 RETURN JUMPDEST PUSH2 0x173 PUSH1 0x4 DUP1 CALLDATASIZE SUB DUP2 ADD SWAP1 PUSH2 0x16E SWAP2 SWAP1 PUSH2 0x1097 JUMP JUMPDEST PUSH2 0x7D7 JUMP JUMPDEST STOP JUMPDEST PUSH2 0x17D PUSH2 0x98E JUMP JUMPDEST PUSH1 0x40 MLOAD PUSH2 0x18A SWAP2 SWAP1 PUSH2 0x10DE JUMP JUMPDEST PUSH1 0x40 MLOAD DUP1 SWAP2 SUB SWAP1 RETURN JUMPDEST PUSH2 0x1AD PUSH1 0x4 DUP1 CALLDATASIZE SUB DUP2 ADD SWAP1 PUSH2 0x1A8 SWAP2 SWAP1 PUSH2 0x10F7 JUMP JUMPDEST PUSH2 0x9B3 JUMP JUMPDEST PUSH1 0x40 MLOAD PUSH2 0x1BA SWAP2 SWAP1 PUSH2 0x1195 JUMP JUMPDEST PUSH1 0x40 MLOAD DUP1 SWAP2 SUB SWAP1 RETURN JUMPDEST PUSH1 0x1 PUSH1 0x20 MSTORE DUP2 PUSH0 MSTORE PUSH1 0x40 PUSH0 KECCAK256 DUP2 DUP2 SLOAD DUP2 LT PUSH2 0x1DC JUMPI PUSH0 DUP1 REVERT JUMPDEST SWAP1 PUSH0 MSTORE PUSH1 0x20 PUSH0 KECCAK256 SWAP1 PUSH1 0x5 MUL ADD PUSH0 SWAP2 POP SWAP2 POP POP DUP1 PUSH0 ADD SLOAD SWAP1 DUP1 PUSH1 0x1 ADD PUSH0 SWAP1 SLOAD SWAP1 PUSH2 0x100 EXP SWAP1 DIV PUSH20 0xFFFFFFFFFFFFFFFFFFFFFFFFFFFFFFFFFFFFFFFF AND SWAP1 DUP1 PUSH1 0x2 ADD DUP1 SLOAD PUSH2 0x227 SWAP1 PUSH2 0x11E2 JUMP JUMPDEST DUP1 PUSH1 0x1F ADD PUSH1 0x20 DUP1 SWAP2 DIV MUL PUSH1 0x20 ADD PUSH1 0x40 MLOAD SWAP1 DUP2 ADD PUSH1 0x40 MSTORE DUP1 SWAP3 SWAP2 SWAP1 DUP2 DUP2 MSTORE PUSH1 0x20 ADD DUP3 DUP1 SLOAD PUSH2 0x253 SWAP1 PUSH2 0x11E2 JUMP JUMPDEST DUP1 ISZERO PUSH2 0x29E JUMPI DUP1 PUSH1 0x1F LT PUSH2 0x275 JUMPI PUSH2 0x100 DUP1 DUP4 SLOAD DIV MUL DUP4 MSTORE SWAP2 PUSH1 0x20 ADD SWAP2 PUSH2 0x29E JUMP JUMPDEST DUP3 ADD SWAP2 SWAP1 PUSH0 MSTORE PUSH1 0x20 PUSH0 KECCAK256 SWAP1 JUMPDEST DUP2 SLOAD DUP2 MSTORE SWAP1 PUSH1 0x1 ADD SWAP1 PUSH1 0x20 ADD DUP1 DUP4 GT PUSH2 0x281 JUMPI DUP3 SWAP1 SUB PUSH1 0x1F AND DUP3 ADD SWAP2 JUMPDEST POP POP POP POP POP SWAP1 DUP1 PUSH1 0x3 ADD SLOAD SWAP1 DUP1 PUSH1 0x4 ADD SLOAD SWAP1 POP DUP6 JUMP JUMPDEST DUP1 PUSH1 0x1 PUSH0 DUP5 PUSH20 0xFFFFFFFFFFFFFFFFFFFFFFFFFFFFFFFFFFFFFFFF AND PUSH20 0xFFFFFFFFFFFFFFFFFFFFFFFFFFFFFFFFFFFFFFFF AND DUP2 MSTORE PUSH1 0x20 ADD SWAP1 DUP2 MSTORE PUSH1 0x20 ADD PUSH0 KECCAK256 DUP3 DUP2 SLOAD DUP2 LT PUSH2 0x304 JUMPI PUSH2 0x303 PUSH2 0x1212 JUMP JUMPDEST JUMPDEST SWAP1 PUSH0 MSTORE PUSH1 0x20 PUSH0 KECCAK256 SWAP1 PUSH1 0x5 MUL ADD PUSH0 ADD SLOAD EQ PUSH2 0x353 JUMPI PUSH1 0x40 MLOAD PUSH32 0x8C379A000000000000000000000000000000000000000000000000000000000 DUP2 MSTORE PUSH1 0x4 ADD PUSH2 0x34A SWAP1 PUSH2 0x1289 JUMP JUMPDEST PUSH1 0x40 MLOAD DUP1 SWAP2 SUB SWAP1 REVERT JUMPDEST PUSH0 PUSH1 0x1 PUSH0 DUP5 PUSH20 0xFFFFFFFFFFFFFFFFFFFFFFFFFFFFFFFFFFFFFFFF AND PUSH20 0xFFFFFFFFFFFFFFFFFFFFFFFFFFFFFFFFFFFFFFFF AND DUP2 MSTORE PUSH1 0x20 ADD SWAP1 DUP2 MSTORE PUSH1 0x20 ADD PUSH0 KECCAK256 DUP3 DUP2 SLOAD DUP2 LT PUSH2 0x3A3 JUMPI PUSH2 0x3A2 PUSH2 0x1212 JUMP JUMPDEST JUMPDEST SWAP1 PUSH0 MSTORE PUSH1 0x20 PUSH0 KECCAK256 SWAP1 PUSH1 0x5 MUL ADD PUSH1 0x4 ADD SLOAD GT PUSH2 0x3F3 JUMPI PUSH1 0x40 MLOAD PUSH32 0x8C379A000000000000000000000000000000000000000000000000000000000 DUP2 MSTORE PUSH1 0x4 ADD PUSH2 0x3EA SWAP1 PUSH2 0x12F1 JUMP JUMPDEST PUSH1 0x40 MLOAD DUP1 SWAP2 SUB SWAP1 REVERT JUMPDEST PUSH1 0x1 PUSH0 DUP4 PUSH20 0xFFFFFFFFFFFFFFFFFFFFFFFFFFFFFFFFFFFFFFFF AND PUSH20 0xFFFFFFFFFFFFFFFFFFFFFFFFFFFFFFFFFFFFFFFF AND DUP2 MSTORE PUSH1 0x20 ADD SWAP1 DUP2 MSTORE PUSH1 0x20 ADD PUSH0 KECCAK256 DUP2 DUP2 SLOAD DUP2 LT PUSH2 0x442 JUMPI PUSH2 0x441 PUSH2 0x1212 JUMP JUMPDEST JUMPDEST SWAP1 PUSH0 MSTORE PUSH1 0x20 PUSH0 KECCAK256 SWAP1 PUSH1 0x5 MUL ADD PUSH1 0x4 ADD PUSH0 DUP2 SLOAD DUP1 SWAP3 SWAP2 SWAP1 PUSH2 0x461 SWAP1 PUSH2 0x133C JUMP JUMPDEST SWAP2 SWAP1 POP SSTORE POP POP POP JUMP JUMPDEST PUSH1 0x60 PUSH1 0x1 PUSH0 CALLER PUSH20 0xFFFFFFFFFFFFFFFFFFFFFFFFFFFFFFFFFFFFFFFF AND PUSH20 0xFFFFFFFFFFFFFFFFFFFFFFFFFFFFFFFFFFFFFFFF AND DUP2 MSTORE PUSH1 0x20 ADD SWAP1 DUP2 MSTORE PUSH1 0x20 ADD PUSH0 KECCAK256 DUP1 SLOAD DUP1 PUSH1 0x20 MUL PUSH1 0x20 ADD PUSH1 0x40 MLOAD SWAP1 DUP2 ADD PUSH1 0x40 MSTORE DUP1 SWAP3 SWAP2 SWAP1 DUP2 DUP2 MSTORE PUSH1 0x20 ADD PUSH0 SWAP1 JUMPDEST DUP3 DUP3 LT ISZERO PUSH2 0x5FA JUMPI DUP4 DUP3 SWAP1 PUSH0 MSTORE PUSH1 0x20 PUSH0 KECCAK256 SWAP1 PUSH1 0x5 MUL ADD PUSH1 0x40 MLOAD DUP1 PUSH1 0xA0 ADD PUSH1 0x40 MSTORE SWAP1 DUP2 PUSH0 DUP3 ADD SLOAD DUP2 MSTORE PUSH1 0x20 ADD PUSH1 0x1 DUP3 ADD PUSH0 SWAP1 SLOAD SWAP1 PUSH2 0x100 EXP SWAP1 DIV PUSH20 0xFFFFFFFFFFFFFFFFFFFFFFFFFFFFFFFFFFFFFFFF AND PUSH20 0xFFFFFFFFFFFFFFFFFFFFFFFFFFFFFFFFFFFFFFFF AND PUSH20 0xFFFFFFFFFFFFFFFFFFFFFFFFFFFFFFFFFFFFFFFF AND DUP2 MSTORE PUSH1 0x20 ADD PUSH1 0x2 DUP3 ADD DUP1 SLOAD PUSH2 0x557 SWAP1 PUSH2 0x11E2 JUMP JUMPDEST DUP1 PUSH1 0x1F ADD PUSH1 0x20 DUP1 SWAP2 DIV MUL PUSH1 0x20 ADD PUSH1 0x40 MLOAD SWAP1 DUP2 ADD PUSH1 0x40 MSTORE DUP1 SWAP3 SWAP2 SWAP1 DUP2 DUP2 MSTORE PUSH1 0x20 ADD DUP3 DUP1 SLOAD PUSH2 0x583 SWAP1 PUSH2 0x11E2 JUMP JUMPDEST DUP1 ISZERO PUSH2 0x5CE JUMPI DUP1 PUSH1 0x1F LT PUSH2 0x5A5 JUMPI PUSH2 0x100 DUP1 DUP4 SLOAD DIV MUL DUP4 MSTORE SWAP2 PUSH1 0x20 ADD SWAP2 PUSH2 0x5CE JUMP JUMPDEST DUP3 ADD SWAP2 SWAP1 PUSH0 MSTORE PUSH1 0x20 PUSH0 KECCAK256 SWAP1 JUMPDEST DUP2 SLOAD DUP2 MSTORE SWAP1 PUSH1 0x1 ADD SWAP1 PUSH1 0x20 ADD DUP1 DUP4 GT PUSH2 0x5B1 JUMPI DUP3 SWAP1 SUB PUSH1 0x1F AND DUP3 ADD SWAP2 JUMPDEST POP POP POP POP POP DUP2 MSTORE PUSH1 0x20 ADD PUSH1 0x3 DUP3 ADD SLOAD DUP2 MSTORE PUSH1 0x20 ADD PUSH1 0x4 DUP3 ADD SLOAD DUP2 MSTORE POP POP DUP2 MSTORE PUSH1 0x20 ADD SWAP1 PUSH1 0x1 ADD SWAP1 PUSH2 0x4C8 JUMP JUMPDEST POP POP POP POP SWAP1 POP SWAP1 JUMP JUMPDEST PUSH0 PUSH1 0x2 SWAP1 SLOAD SWAP1 PUSH2 0x100 EXP SWAP1 DIV PUSH20 0xFFFFFFFFFFFFFFFFFFFFFFFFFFFFFFFFFFFFFFFF AND PUSH20 0xFFFFFFFFFFFFFFFFFFFFFFFFFFFFFFFFFFFFFFFF AND CALLER PUSH20 0xFFFFFFFFFFFFFFFFFFFFFFFFFFFFFFFFFFFFFFFF AND EQ PUSH2 0x692 JUMPI PUSH1 0x40 MLOAD PUSH32 0x8C379A000000000000000000000000000000000000000000000000000000000 DUP2 MSTORE PUSH1 0x4 ADD PUSH2 0x689 SWAP1 PUSH2 0x13AD JUMP JUMPDEST PUSH1 0x40 MLOAD DUP1 SWAP2 SUB SWAP1 REVERT JUMPDEST DUP1 PUSH0 DUP1 PUSH2 0x100 EXP DUP2 SLOAD DUP2 PUSH2 0xFFFF MUL NOT AND SWAP1 DUP4 PUSH2 0xFFFF AND MUL OR SWAP1 SSTORE POP POP JUMP JUMPDEST DUP1 PUSH1 0x1 PUSH0 DUP5 PUSH20 0xFFFFFFFFFFFFFFFFFFFFFFFFFFFFFFFFFFFFFFFF AND PUSH20 0xFFFFFFFFFFFFFFFFFFFFFFFFFFFFFFFFFFFFFFFF AND DUP2 MSTORE PUSH1 0x20 ADD SWAP1 DUP2 MSTORE PUSH1 0x20 ADD PUSH0 KECCAK256 DUP3 DUP2 SLOAD DUP2 LT PUSH2 0x700 JUMPI PUSH2 0x6FF PUSH2 0x1212 JUMP JUMPDEST JUMPDEST SWAP1 PUSH0 MSTORE PUSH1 0x20 PUSH0 KECCAK256 SWAP1 PUSH1 0x5 MUL ADD PUSH0 ADD SLOAD EQ PUSH2 0x74F JUMPI PUSH1 0x40 MLOAD PUSH32 0x8C379A000000000000000000000000000000000000000000000000000000000 DUP2 MSTORE PUSH1 0x4 ADD PUSH2 0x746 SWAP1 PUSH2 0x1289 JUMP JUMPDEST PUSH1 0x40 MLOAD DUP1 SWAP2 SUB SWAP1 REVERT JUMPDEST PUSH1 0x1 PUSH0 DUP4 PUSH20 0xFFFFFFFFFFFFFFFFFFFFFFFFFFFFFFFFFFFFFFFF AND PUSH20 0xFFFFFFFFFFFFFFFFFFFFFFFFFFFFFFFFFFFFFFFF AND DUP2 MSTORE PUSH1 0x20 ADD SWAP1 DUP2 MSTORE PUSH1 0x20 ADD PUSH0 KECCAK256 DUP2 DUP2 SLOAD DUP2 LT PUSH2 0x79E JUMPI PUSH2 0x79D PUSH2 0x1212 JUMP JUMPDEST JUMPDEST SWAP1 PUSH0 MSTORE PUSH1 0x20 PUSH0 KECCAK256 SWAP1 PUSH1 0x5 MUL ADD PUSH1 0x4 ADD PUSH0 DUP2 SLOAD DUP1 SWAP3 SWAP2 SWAP1 PUSH2 0x7BD SWAP1 PUSH2 0x13CB JUMP JUMPDEST SWAP2 SWAP1 POP SSTORE POP POP POP JUMP JUMPDEST PUSH0 DUP1 SLOAD SWAP1 PUSH2 0x100 EXP SWAP1 DIV PUSH2 0xFFFF AND DUP2 JUMP JUMPDEST PUSH0 DUP1 SLOAD SWAP1 PUSH2 0x100 EXP SWAP1 DIV PUSH2 0xFFFF AND PUSH2 0xFFFF AND DUP2 MLOAD GT ISZERO PUSH2 0x82C JUMPI PUSH1 0x40 MLOAD PUSH32 0x8C379A000000000000000000000000000000000000000000000000000000000 DUP2 MSTORE PUSH1 0x4 ADD PUSH2 0x823 SWAP1 PUSH2 0x145C JUMP JUMPDEST PUSH1 0x40 MLOAD DUP1 SWAP2 SUB SWAP1 REVERT JUMPDEST PUSH0 PUSH1 0x40 MLOAD DUP1 PUSH1 0xA0 ADD PUSH1 0x40 MSTORE DUP1 PUSH1 0x1 PUSH0 CALLER PUSH20 0xFFFFFFFFFFFFFFFFFFFFFFFFFFFFFFFFFFFFFFFF AND PUSH20 0xFFFFFFFFFFFFFFFFFFFFFFFFFFFFFFFFFFFFFFFF AND DUP2 MSTORE PUSH1 0x20 ADD SWAP1 DUP2 MSTORE PUSH1 0x20 ADD PUSH0 KECCAK256 DUP1 SLOAD SWAP1 POP DUP2 MSTORE PUSH1 0x20 ADD CALLER PUSH20 0xFFFFFFFFFFFFFFFFFFFFFFFFFFFFFFFFFFFFFFFF AND DUP2 MSTORE PUSH1 0x20 ADD DUP4 DUP2 MSTORE PUSH1 0x20 ADD TIMESTAMP DUP2 MSTORE PUSH1 0x20 ADD PUSH0 DUP2 MSTORE POP SWAP1 POP PUSH1 0x1 PUSH0 CALLER PUSH20 0xFFFFFFFFFFFFFFFFFFFFFFFFFFFFFFFFFFFFFFFF AND PUSH20 0xFFFFFFFFFFFFFFFFFFFFFFFFFFFFFFFFFFFFFFFF AND DUP2 MSTORE PUSH1 0x20 ADD SWAP1 DUP2 MSTORE PUSH1 0x20 ADD PUSH0 KECCAK256 DUP2 SWAP1 DUP1 PUSH1 0x1 DUP2 SLOAD ADD DUP1 DUP3 SSTORE DUP1 SWAP2 POP POP PUSH1 0x1 SWAP1 SUB SWAP1 PUSH0 MSTORE PUSH1 0x20 PUSH0 KECCAK256 SWAP1 PUSH1 0x5 MUL ADD PUSH0 SWAP1 SWAP2 SWAP1 SWAP2 SWAP1 SWAP2 POP PUSH0 DUP3 ADD MLOAD DUP2 PUSH0 ADD SSTORE PUSH1 0x20 DUP3 ADD MLOAD DUP2 PUSH1 0x1 ADD PUSH0 PUSH2 0x100 EXP DUP2 SLOAD DUP2 PUSH20 0xFFFFFFFFFFFFFFFFFFFFFFFFFFFFFFFFFFFFFFFF MUL NOT AND SWAP1 DUP4 PUSH20 0xFFFFFFFFFFFFFFFFFFFFFFFFFFFFFFFFFFFFFFFF AND MUL OR SWAP1 SSTORE POP PUSH1 0x40 DUP3 ADD MLOAD DUP2 PUSH1 0x2 ADD SWAP1 DUP2 PUSH2 0x973 SWAP2 SWAP1 PUSH2 0x1617 JUMP JUMPDEST POP PUSH1 0x60 DUP3 ADD MLOAD DUP2 PUSH1 0x3 ADD SSTORE PUSH1 0x80 DUP3 ADD MLOAD DUP2 PUSH1 0x4 ADD SSTORE POP POP POP POP JUMP JUMPDEST PUSH0 PUSH1 0x2 SWAP1 SLOAD SWAP1 PUSH2 0x100 EXP SWAP1 DIV PUSH20 0xFFFFFFFFFFFFFFFFFFFFFFFFFFFFFFFFFFFFFFFF AND DUP2 JUMP JUMPDEST PUSH2 0x9BB PUSH2 0xB2A JUMP JUMPDEST PUSH1 0x1 PUSH0 CALLER PUSH20 0xFFFFFFFFFFFFFFFFFFFFFFFFFFFFFFFFFFFFFFFF AND PUSH20 0xFFFFFFFFFFFFFFFFFFFFFFFFFFFFFFFFFFFFFFFF AND DUP2 MSTORE PUSH1 0x20 ADD SWAP1 DUP2 MSTORE PUSH1 0x20 ADD PUSH0 KECCAK256 DUP3 DUP2 SLOAD DUP2 LT PUSH2 0xA0A JUMPI PUSH2 0xA09 PUSH2 0x1212 JUMP JUMPDEST JUMPDEST SWAP1 PUSH0 MSTORE PUSH1 0x20 PUSH0 KECCAK256 SWAP1 PUSH1 0x5 MUL ADD PUSH1 0x40 MLOAD DUP1 PUSH1 0xA0 ADD PUSH1 0x40 MSTORE SWAP1 DUP2 PUSH0 DUP3 ADD SLOAD DUP2 MSTORE PUSH1 0x20 ADD PUSH1 0x1 DUP3 ADD PUSH0 SWAP1 SLOAD SWAP1 PUSH2 0x100 EXP SWAP1 DIV PUSH20 0xFFFFFFFFFFFFFFFFFFFFFFFFFFFFFFFFFFFFFFFF AND PUSH20 0xFFFFFFFFFFFFFFFFFFFFFFFFFFFFFFFFFFFFFFFF AND PUSH20 0xFFFFFFFFFFFFFFFFFFFFFFFFFFFFFFFFFFFFFFFF AND DUP2 MSTORE PUSH1 0x20 ADD PUSH1 0x2 DUP3 ADD DUP1 SLOAD PUSH2 0xA8F SWAP1 PUSH2 0x11E2 JUMP JUMPDEST DUP1 PUSH1 0x1F ADD PUSH1 0x20 DUP1 SWAP2 DIV MUL PUSH1 0x20 ADD PUSH1 0x40 MLOAD SWAP1 DUP2 ADD PUSH1 0x40 MSTORE DUP1 SWAP3 SWAP2 SWAP1 DUP2 DUP2 MSTORE PUSH1 0x20 ADD DUP3 DUP1 SLOAD PUSH2 0xABB SWAP1 PUSH2 0x11E2 JUMP JUMPDEST DUP1 ISZERO PUSH2 0xB06 JUMPI DUP1 PUSH1 0x1F LT PUSH2 0xADD JUMPI PUSH2 0x100 DUP1 DUP4 SLOAD DIV MUL DUP4 MSTORE SWAP2 PUSH1 0x20 ADD SWAP2 PUSH2 0xB06 JUMP JUMPDEST DUP3 ADD SWAP2 SWAP1 PUSH0 MSTORE PUSH1 0x20 PUSH0 KECCAK256 SWAP1 JUMPDEST DUP2 SLOAD DUP2 MSTORE SWAP1 PUSH1 0x1 ADD SWAP1 PUSH1 0x20 ADD DUP1 DUP4 GT PUSH2 0xAE9 JUMPI DUP3 SWAP1 SUB PUSH1 0x1F AND DUP3 ADD SWAP2 JUMPDEST POP POP POP POP POP DUP2 MSTORE PUSH1 0x20 ADD PUSH1 0x3 DUP3 ADD SLOAD DUP2 MSTORE PUSH1 0x20 ADD PUSH1 0x4 DUP3 ADD SLOAD DUP2 MSTORE POP POP SWAP1 POP SWAP2 SWAP1 POP JUMP JUMPDEST PUSH1 0x40 MLOAD DUP1 PUSH1 0xA0 ADD PUSH1 0x40 MSTORE DUP1 PUSH0 DUP2 MSTORE PUSH1 0x20 ADD PUSH0 PUSH20 0xFFFFFFFFFFFFFFFFFFFFFFFFFFFFFFFFFFFFFFFF AND DUP2 MSTORE PUSH1 0x20 ADD PUSH1 0x60 DUP2 MSTORE PUSH1 0x20 ADD PUSH0 DUP2 MSTORE PUSH1 0x20 ADD PUSH0 DUP2 MSTORE POP SWAP1 JUMP JUMPDEST PUSH0 PUSH1 0x40 MLOAD SWAP1 POP SWAP1 JUMP JUMPDEST PUSH0 DUP1 REVERT JUMPDEST PUSH0 DUP1 REVERT JUMPDEST PUSH0 PUSH20 0xFFFFFFFFFFFFFFFFFFFFFFFFFFFFFFFFFFFFFFFF DUP3 AND SWAP1 POP SWAP2 SWAP1 POP JUMP JUMPDEST PUSH0 PUSH2 0xBA5 DUP3 PUSH2 0xB7C JUMP JUMPDEST SWAP1 POP SWAP2 SWAP1 POP JUMP JUMPDEST PUSH2 0xBB5 DUP2 PUSH2 0xB9B JUMP JUMPDEST DUP2 EQ PUSH2 0xBBF JUMPI PUSH0 DUP1 REVERT JUMPDEST POP JUMP JUMPDEST PUSH0 DUP2 CALLDATALOAD SWAP1 POP PUSH2 0xBD0 DUP2 PUSH2 0xBAC JUMP JUMPDEST SWAP3 SWAP2 POP POP JUMP JUMPDEST PUSH0 DUP2 SWAP1 POP SWAP2 SWAP1 POP JUMP JUMPDEST PUSH2 0xBE8 DUP2 PUSH2 0xBD6 JUMP JUMPDEST DUP2 EQ PUSH2 0xBF2 JUMPI PUSH0 DUP1 REVERT JUMPDEST POP JUMP JUMPDEST PUSH0 DUP2 CALLDATALOAD SWAP1 POP PUSH2 0xC03 DUP2 PUSH2 0xBDF JUMP JUMPDEST SWAP3 SWAP2 POP POP JUMP JUMPDEST PUSH0 DUP1 PUSH1 0x40 DUP4 DUP6 SUB SLT ISZERO PUSH2 0xC1F JUMPI PUSH2 0xC1E PUSH2 0xB74 JUMP JUMPDEST JUMPDEST PUSH0 PUSH2 0xC2C DUP6 DUP3 DUP7 ADD PUSH2 0xBC2 JUMP JUMPDEST SWAP3 POP POP PUSH1 0x20 PUSH2 0xC3D DUP6 DUP3 DUP7 ADD PUSH2 0xBF5 JUMP JUMPDEST SWAP2 POP POP SWAP3 POP SWAP3 SWAP1 POP JUMP JUMPDEST PUSH2 0xC50 DUP2 PUSH2 0xBD6 JUMP JUMPDEST DUP3 MSTORE POP POP JUMP JUMPDEST PUSH2 0xC5F DUP2 PUSH2 0xB9B JUMP JUMPDEST DUP3 MSTORE POP POP JUMP JUMPDEST PUSH0 DUP2 MLOAD SWAP1 POP SWAP2 SWAP1 POP JUMP JUMPDEST PUSH0 DUP3 DUP3 MSTORE PUSH1 0x20 DUP3 ADD SWAP1 POP SWAP3 SWAP2 POP POP JUMP JUMPDEST DUP3 DUP2 DUP4 MCOPY PUSH0 DUP4 DUP4 ADD MSTORE POP POP POP JUMP JUMPDEST PUSH0 PUSH1 0x1F NOT PUSH1 0x1F DUP4 ADD AND SWAP1 POP SWAP2 SWAP1 POP JUMP JUMPDEST PUSH0 PUSH2 0xCA7 DUP3 PUSH2 0xC65 JUMP JUMPDEST PUSH2 0xCB1 DUP2 DUP6 PUSH2 0xC6F JUMP JUMPDEST SWAP4 POP PUSH2 0xCC1 DUP2 DUP6 PUSH1 0x20 DUP7 ADD PUSH2 0xC7F JUMP JUMPDEST PUSH2 0xCCA DUP2 PUSH2 0xC8D JUMP JUMPDEST DUP5 ADD SWAP2 POP POP SWAP3 SWAP2 POP POP JUMP JUMPDEST PUSH0 PUSH1 0xA0 DUP3 ADD SWAP1 POP PUSH2 0xCE8 PUSH0 DUP4 ADD DUP9 PUSH2 0xC47 JUMP JUMPDEST PUSH2 0xCF5 PUSH1 0x20 DUP4 ADD DUP8 PUSH2 0xC56 JUMP JUMPDEST DUP2 DUP2 SUB PUSH1 0x40 DUP4 ADD MSTORE PUSH2 0xD07 DUP2 DUP7 PUSH2 0xC9D JUMP JUMPDEST SWAP1 POP PUSH2 0xD16 PUSH1 0x60 DUP4 ADD DUP6 PUSH2 0xC47 JUMP JUMPDEST PUSH2 0xD23 PUSH1 0x80 DUP4 ADD DUP5 PUSH2 0xC47 JUMP JUMPDEST SWAP7 SWAP6 POP POP POP POP POP POP JUMP JUMPDEST PUSH0 DUP2 MLOAD SWAP1 POP SWAP2 SWAP1 POP JUMP JUMPDEST PUSH0 DUP3 DUP3 MSTORE PUSH1 0x20 DUP3 ADD SWAP1 POP SWAP3 SWAP2 POP POP JUMP JUMPDEST PUSH0 DUP2 SWAP1 POP PUSH1 0x20 DUP3 ADD SWAP1 POP SWAP2 SWAP1 POP JUMP JUMPDEST PUSH2 0xD5F DUP2 PUSH2 0xBD6 JUMP JUMPDEST DUP3 MSTORE POP POP JUMP JUMPDEST PUSH2 0xD6E DUP2 PUSH2 0xB9B JUMP JUMPDEST DUP3 MSTORE POP POP JUMP JUMPDEST PUSH0 DUP3 DUP3 MSTORE PUSH1 0x20 DUP3 ADD SWAP1 POP SWAP3 SWAP2 POP POP JUMP JUMPDEST PUSH0 PUSH2 0xD8E DUP3 PUSH2 0xC65 JUMP JUMPDEST PUSH2 0xD98 DUP2 DUP6 PUSH2 0xD74 JUMP JUMPDEST SWAP4 POP PUSH2 0xDA8 DUP2 DUP6 PUSH1 0x20 DUP7 ADD PUSH2 0xC7F JUMP JUMPDEST PUSH2 0xDB1 DUP2 PUSH2 0xC8D JUMP JUMPDEST DUP5 ADD SWAP2 POP POP SWAP3 SWAP2 POP POP JUMP JUMPDEST PUSH0 PUSH1 0xA0 DUP4 ADD PUSH0 DUP4 ADD MLOAD PUSH2 0xDD1 PUSH0 DUP7 ADD DUP3 PUSH2 0xD56 JUMP JUMPDEST POP PUSH1 0x20 DUP4 ADD MLOAD PUSH2 0xDE4 PUSH1 0x20 DUP7 ADD DUP3 PUSH2 0xD65 JUMP JUMPDEST POP PUSH1 0x40 DUP4 ADD MLOAD DUP5 DUP3 SUB PUSH1 0x40 DUP7 ADD MSTORE PUSH2 0xDFC DUP3 DUP3 PUSH2 0xD84 JUMP JUMPDEST SWAP2 POP POP PUSH1 0x60 DUP4 ADD MLOAD PUSH2 0xE11 PUSH1 0x60 DUP7 ADD DUP3 PUSH2 0xD56 JUMP JUMPDEST POP PUSH1 0x80 DUP4 ADD MLOAD PUSH2 0xE24 PUSH1 0x80 DUP7 ADD DUP3 PUSH2 0xD56 JUMP JUMPDEST POP DUP1 SWAP2 POP POP SWAP3 SWAP2 POP POP JUMP JUMPDEST PUSH0 PUSH2 0xE3A DUP4 DUP4 PUSH2 0xDBC JUMP JUMPDEST SWAP1 POP SWAP3 SWAP2 POP POP JUMP JUMPDEST PUSH0 PUSH1 0x20 DUP3 ADD SWAP1 POP SWAP2 SWAP1 POP JUMP JUMPDEST PUSH0 PUSH2 0xE58 DUP3 PUSH2 0xD2D JUMP JUMPDEST PUSH2 0xE62 DUP2 DUP6 PUSH2 0xD37 JUMP JUMPDEST SWAP4 POP DUP4 PUSH1 0x20 DUP3 MUL DUP6 ADD PUSH2 0xE74 DUP6 PUSH2 0xD47 JUMP JUMPDEST DUP1 PUSH0 JUMPDEST DUP6 DUP2 LT ISZERO PUSH2 0xEAF JUMPI DUP5 DUP5 SUB DUP10 MSTORE DUP2 MLOAD PUSH2 0xE90 DUP6 DUP3 PUSH2 0xE2F JUMP JUMPDEST SWAP5 POP PUSH2 0xE9B DUP4 PUSH2 0xE42 JUMP JUMPDEST SWAP3 POP PUSH1 0x20 DUP11 ADD SWAP10 POP POP PUSH1 0x1 DUP2 ADD SWAP1 POP PUSH2 0xE77 JUMP JUMPDEST POP DUP3 SWAP8 POP DUP8 SWAP6 POP POP POP POP POP POP SWAP3 SWAP2 POP POP JUMP JUMPDEST PUSH0 PUSH1 0x20 DUP3 ADD SWAP1 POP DUP2 DUP2 SUB PUSH0 DUP4 ADD MSTORE PUSH2 0xED9 DUP2 DUP5 PUSH2 0xE4E JUMP JUMPDEST SWAP1 POP SWAP3 SWAP2 POP POP JUMP JUMPDEST PUSH0 PUSH2 0xFFFF DUP3 AND SWAP1 POP SWAP2 SWAP1 POP JUMP JUMPDEST PUSH2 0xEF7 DUP2 PUSH2 0xEE1 JUMP JUMPDEST DUP2 EQ PUSH2 0xF01 JUMPI PUSH0 DUP1 REVERT JUMPDEST POP JUMP JUMPDEST PUSH0 DUP2 CALLDATALOAD SWAP1 POP PUSH2 0xF12 DUP2 PUSH2 0xEEE JUMP JUMPDEST SWAP3 SWAP2 POP POP JUMP JUMPDEST PUSH0 PUSH1 0x20 DUP3 DUP5 SUB SLT ISZERO PUSH2 0xF2D JUMPI PUSH2 0xF2C PUSH2 0xB74 JUMP JUMPDEST JUMPDEST PUSH0 PUSH2 0xF3A DUP5 DUP3 DUP6 ADD PUSH2 0xF04 JUMP JUMPDEST SWAP2 POP POP SWAP3 SWAP2 POP POP JUMP JUMPDEST PUSH2 0xF4C DUP2 PUSH2 0xEE1 JUMP JUMPDEST DUP3 MSTORE POP POP JUMP JUMPDEST PUSH0 PUSH1 0x20 DUP3 ADD SWAP1 POP PUSH2 0xF65 PUSH0 DUP4 ADD DUP5 PUSH2 0xF43 JUMP JUMPDEST SWAP3 SWAP2 POP POP JUMP JUMPDEST PUSH0 DUP1 REVERT JUMPDEST PUSH0 DUP1 REVERT JUMPDEST PUSH32 0x4E487B7100000000000000000000000000000000000000000000000000000000 PUSH0 MSTORE PUSH1 0x41 PUSH1 0x4 MSTORE PUSH1 0x24 PUSH0 REVERT JUMPDEST PUSH2 0xFA9 DUP3 PUSH2 0xC8D JUMP JUMPDEST DUP2 ADD DUP2 DUP2 LT PUSH8 0xFFFFFFFFFFFFFFFF DUP3 GT OR ISZERO PUSH2 0xFC8 JUMPI PUSH2 0xFC7 PUSH2 0xF73 JUMP JUMPDEST JUMPDEST DUP1 PUSH1 0x40 MSTORE POP POP POP JUMP JUMPDEST PUSH0 PUSH2 0xFDA PUSH2 0xB6B JUMP JUMPDEST SWAP1 POP PUSH2 0xFE6 DUP3 DUP3 PUSH2 0xFA0 JUMP JUMPDEST SWAP2 SWAP1 POP JUMP JUMPDEST PUSH0 PUSH8 0xFFFFFFFFFFFFFFFF DUP3 GT ISZERO PUSH2 0x1005 JUMPI PUSH2 0x1004 PUSH2 0xF73 JUMP JUMPDEST JUMPDEST PUSH2 0x100E DUP3 PUSH2 0xC8D JUMP JUMPDEST SWAP1 POP PUSH1 0x20 DUP2 ADD SWAP1 POP SWAP2 SWAP1 POP JUMP JUMPDEST DUP3 DUP2 DUP4 CALLDATACOPY PUSH0 DUP4 DUP4 ADD MSTORE POP POP POP JUMP JUMPDEST PUSH0 PUSH2 0x103B PUSH2 0x1036 DUP5 PUSH2 0xFEB JUMP JUMPDEST PUSH2 0xFD1 JUMP JUMPDEST SWAP1 POP DUP3 DUP2 MSTORE PUSH1 0x20 DUP2 ADD DUP5 DUP5 DUP5 ADD GT ISZERO PUSH2 0x1057 JUMPI PUSH2 0x1056 PUSH2 0xF6F JUMP JUMPDEST JUMPDEST PUSH2 0x1062 DUP5 DUP3 DUP6 PUSH2 0x101B JUMP JUMPDEST POP SWAP4 SWAP3 POP POP POP JUMP JUMPDEST PUSH0 DUP3 PUSH1 0x1F DUP4 ADD SLT PUSH2 0x107E JUMPI PUSH2 0x107D PUSH2 0xF6B JUMP JUMPDEST JUMPDEST DUP2 CALLDATALOAD PUSH2 0x108E DUP5 DUP3 PUSH1 0x20 DUP7 ADD PUSH2 0x1029 JUMP JUMPDEST SWAP2 POP POP SWAP3 SWAP2 POP POP JUMP JUMPDEST PUSH0 PUSH1 0x20 DUP3 DUP5 SUB SLT ISZERO PUSH2 0x10AC JUMPI PUSH2 0x10AB PUSH2 0xB74 JUMP JUMPDEST JUMPDEST PUSH0 DUP3 ADD CALLDATALOAD PUSH8 0xFFFFFFFFFFFFFFFF DUP2 GT ISZERO PUSH2 0x10C9 JUMPI PUSH2 0x10C8 PUSH2 0xB78 JUMP JUMPDEST JUMPDEST PUSH2 0x10D5 DUP5 DUP3 DUP6 ADD PUSH2 0x106A JUMP JUMPDEST SWAP2 POP POP SWAP3 SWAP2 POP POP JUMP JUMPDEST PUSH0 PUSH1 0x20 DUP3 ADD SWAP1 POP PUSH2 0x10F1 PUSH0 DUP4 ADD DUP5 PUSH2 0xC56 JUMP JUMPDEST SWAP3 SWAP2 POP POP JUMP JUMPDEST PUSH0 PUSH1 0x20 DUP3 DUP5 SUB SLT ISZERO PUSH2 0x110C JUMPI PUSH2 0x110B PUSH2 0xB74 JUMP JUMPDEST JUMPDEST PUSH0 PUSH2 0x1119 DUP5 DUP3 DUP6 ADD PUSH2 0xBF5 JUMP JUMPDEST SWAP2 POP POP SWAP3 SWAP2 POP POP JUMP JUMPDEST PUSH0 PUSH1 0xA0 DUP4 ADD PUSH0 DUP4 ADD MLOAD PUSH2 0x1137 PUSH0 DUP7 ADD DUP3 PUSH2 0xD56 JUMP JUMPDEST POP PUSH1 0x20 DUP4 ADD MLOAD PUSH2 0x114A PUSH1 0x20 DUP7 ADD DUP3 PUSH2 0xD65 JUMP JUMPDEST POP PUSH1 0x40 DUP4 ADD MLOAD DUP5 DUP3 SUB PUSH1 0x40 DUP7 ADD MSTORE PUSH2 0x1162 DUP3 DUP3 PUSH2 0xD84 JUMP JUMPDEST SWAP2 POP POP PUSH1 0x60 DUP4 ADD MLOAD PUSH2 0x1177 PUSH1 0x60 DUP7 ADD DUP3 PUSH2 0xD56 JUMP JUMPDEST POP PUSH1 0x80 DUP4 ADD MLOAD PUSH2 0x118A PUSH1 0x80 DUP7 ADD DUP3 PUSH2 0xD56 JUMP JUMPDEST POP DUP1 SWAP2 POP POP SWAP3 SWAP2 POP POP JUMP JUMPDEST PUSH0 PUSH1 0x20 DUP3 ADD SWAP1 POP DUP2 DUP2 SUB PUSH0 DUP4 ADD MSTORE PUSH2 0x11AD DUP2 DUP5 PUSH2 0x1122 JUMP JUMPDEST SWAP1 POP SWAP3 SWAP2 POP POP JUMP JUMPDEST PUSH32 0x4E487B7100000000000000000000000000000000000000000000000000000000 PUSH0 MSTORE PUSH1 0x22 PUSH1 0x4 MSTORE PUSH1 0x24 PUSH0 REVERT JUMPDEST PUSH0 PUSH1 0x2 DUP3 DIV SWAP1 POP PUSH1 0x1 DUP3 AND DUP1 PUSH2 0x11F9 JUMPI PUSH1 0x7F DUP3 AND SWAP2 POP JUMPDEST PUSH1 0x20 DUP3 LT DUP2 SUB PUSH2 0x120C JUMPI PUSH2 0x120B PUSH2 0x11B5 JUMP JUMPDEST JUMPDEST POP SWAP2 SWAP1 POP JUMP JUMPDEST PUSH32 0x4E487B7100000000000000000000000000000000000000000000000000000000 PUSH0 MSTORE PUSH1 0x32 PUSH1 0x4 MSTORE PUSH1 0x24 PUSH0 REVERT JUMPDEST PUSH32 0x545745455420444F4553204E4F54204558495354210000000000000000000000 PUSH0 DUP3 ADD MSTORE POP JUMP JUMPDEST PUSH0 PUSH2 0x1273 PUSH1 0x15 DUP4 PUSH2 0xC6F JUMP JUMPDEST SWAP2 POP PUSH2 0x127E DUP3 PUSH2 0x123F JUMP JUMPDEST PUSH1 0x20 DUP3 ADD SWAP1 POP SWAP2 SWAP1 POP JUMP JUMPDEST PUSH0 PUSH1 0x20 DUP3 ADD SWAP1 POP DUP2 DUP2 SUB PUSH0 DUP4 ADD MSTORE PUSH2 0x12A0 DUP2 PUSH2 0x1267 JUMP JUMPDEST SWAP1 POP SWAP2 SWAP1 POP JUMP JUMPDEST PUSH32 0x545745455420484153204E4F54204C494B455300000000000000000000000000 PUSH0 DUP3 ADD MSTORE POP JUMP JUMPDEST PUSH0 PUSH2 0x12DB PUSH1 0x13 DUP4 PUSH2 0xC6F JUMP JUMPDEST SWAP2 POP PUSH2 0x12E6 DUP3 PUSH2 0x12A7 JUMP JUMPDEST PUSH1 0x20 DUP3 ADD SWAP1 POP SWAP2 SWAP1 POP JUMP JUMPDEST PUSH0 PUSH1 0x20 DUP3 ADD SWAP1 POP DUP2 DUP2 SUB PUSH0 DUP4 ADD MSTORE PUSH2 0x1308 DUP2 PUSH2 0x12CF JUMP JUMPDEST SWAP1 POP SWAP2 SWAP1 POP JUMP JUMPDEST PUSH32 0x4E487B7100000000000000000000000000000000000000000000000000000000 PUSH0 MSTORE PUSH1 0x11 PUSH1 0x4 MSTORE PUSH1 0x24 PUSH0 REVERT JUMPDEST PUSH0 PUSH2 0x1346 DUP3 PUSH2 0xBD6 JUMP JUMPDEST SWAP2 POP PUSH0 DUP3 SUB PUSH2 0x1358 JUMPI PUSH2 0x1357 PUSH2 0x130F JUMP JUMPDEST JUMPDEST PUSH1 0x1 DUP3 SUB SWAP1 POP SWAP2 SWAP1 POP JUMP JUMPDEST PUSH32 0x594F5520415245204E4F5420544845204F574E45522100000000000000000000 PUSH0 DUP3 ADD MSTORE POP JUMP JUMPDEST PUSH0 PUSH2 0x1397 PUSH1 0x16 DUP4 PUSH2 0xC6F JUMP JUMPDEST SWAP2 POP PUSH2 0x13A2 DUP3 PUSH2 0x1363 JUMP JUMPDEST PUSH1 0x20 DUP3 ADD SWAP1 POP SWAP2 SWAP1 POP JUMP JUMPDEST PUSH0 PUSH1 0x20 DUP3 ADD SWAP1 POP DUP2 DUP2 SUB PUSH0 DUP4 ADD MSTORE PUSH2 0x13C4 DUP2 PUSH2 0x138B JUMP JUMPDEST SWAP1 POP SWAP2 SWAP1 POP JUMP JUMPDEST PUSH0 PUSH2 0x13D5 DUP3 PUSH2 0xBD6 JUMP JUMPDEST SWAP2 POP PUSH32 0xFFFFFFFFFFFFFFFFFFFFFFFFFFFFFFFFFFFFFFFFFFFFFFFFFFFFFFFFFFFFFFFF DUP3 SUB PUSH2 0x1407 JUMPI PUSH2 0x1406 PUSH2 0x130F JUMP JUMPDEST JUMPDEST PUSH1 0x1 DUP3 ADD SWAP1 POP SWAP2 SWAP1 POP JUMP JUMPDEST PUSH32 0x547765657420697320746F20686967682C2062726F2100000000000000000000 PUSH0 DUP3 ADD MSTORE POP JUMP JUMPDEST PUSH0 PUSH2 0x1446 PUSH1 0x16 DUP4 PUSH2 0xC6F JUMP JUMPDEST SWAP2 POP PUSH2 0x1451 DUP3 PUSH2 0x1412 JUMP JUMPDEST PUSH1 0x20 DUP3 ADD SWAP1 POP SWAP2 SWAP1 POP JUMP JUMPDEST PUSH0 PUSH1 0x20 DUP3 ADD SWAP1 POP DUP2 DUP2 SUB PUSH0 DUP4 ADD MSTORE PUSH2 0x1473 DUP2 PUSH2 0x143A JUMP JUMPDEST SWAP1 POP SWAP2 SWAP1 POP JUMP JUMPDEST PUSH0 DUP2 SWAP1 POP DUP2 PUSH0 MSTORE PUSH1 0x20 PUSH0 KECCAK256 SWAP1 POP SWAP2 SWAP1 POP JUMP JUMPDEST PUSH0 PUSH1 0x20 PUSH1 0x1F DUP4 ADD DIV SWAP1 POP SWAP2 SWAP1 POP JUMP JUMPDEST PUSH0 DUP3 DUP3 SHL SWAP1 POP SWAP3 SWAP2 POP POP JUMP JUMPDEST PUSH0 PUSH1 0x8 DUP4 MUL PUSH2 0x14D6 PUSH32 0xFFFFFFFFFFFFFFFFFFFFFFFFFFFFFFFFFFFFFFFFFFFFFFFFFFFFFFFFFFFFFFFF DUP3 PUSH2 0x149B JUMP JUMPDEST PUSH2 0x14E0 DUP7 DUP4 PUSH2 0x149B JUMP JUMPDEST SWAP6 POP DUP1 NOT DUP5 AND SWAP4 POP DUP1 DUP7 AND DUP5 OR SWAP3 POP POP POP SWAP4 SWAP3 POP POP POP JUMP JUMPDEST PUSH0 DUP2 SWAP1 POP SWAP2 SWAP1 POP JUMP JUMPDEST PUSH0 PUSH2 0x151B PUSH2 0x1516 PUSH2 0x1511 DUP5 PUSH2 0xBD6 JUMP JUMPDEST PUSH2 0x14F8 JUMP JUMPDEST PUSH2 0xBD6 JUMP JUMPDEST SWAP1 POP SWAP2 SWAP1 POP JUMP JUMPDEST PUSH0 DUP2 SWAP1 POP SWAP2 SWAP1 POP JUMP JUMPDEST PUSH2 0x1534 DUP4 PUSH2 0x1501 JUMP JUMPDEST PUSH2 0x1548 PUSH2 0x1540 DUP3 PUSH2 0x1522 JUMP JUMPDEST DUP5 DUP5 SLOAD PUSH2 0x14A7 JUMP JUMPDEST DUP3 SSTORE POP POP POP POP JUMP JUMPDEST PUSH0 SWAP1 JUMP JUMPDEST PUSH2 0x155C PUSH2 0x1550 JUMP JUMPDEST PUSH2 0x1567 DUP2 DUP5 DUP5 PUSH2 0x152B JUMP JUMPDEST POP POP POP JUMP JUMPDEST JUMPDEST DUP2 DUP2 LT ISZERO PUSH2 0x158A JUMPI PUSH2 0x157F PUSH0 DUP3 PUSH2 0x1554 JUMP JUMPDEST PUSH1 0x1 DUP2 ADD SWAP1 POP PUSH2 0x156D JUMP JUMPDEST POP POP JUMP JUMPDEST PUSH1 0x1F DUP3 GT ISZERO PUSH2 0x15CF JUMPI PUSH2 0x15A0 DUP2 PUSH2 0x147A JUMP JUMPDEST PUSH2 0x15A9 DUP5 PUSH2 0x148C JUMP JUMPDEST DUP2 ADD PUSH1 0x20 DUP6 LT ISZERO PUSH2 0x15B8 JUMPI DUP2 SWAP1 POP JUMPDEST PUSH2 0x15CC PUSH2 0x15C4 DUP6 PUSH2 0x148C JUMP JUMPDEST DUP4 ADD DUP3 PUSH2 0x156C JUMP JUMPDEST POP POP JUMPDEST POP POP POP JUMP JUMPDEST PUSH0 DUP3 DUP3 SHR SWAP1 POP SWAP3 SWAP2 POP POP JUMP JUMPDEST PUSH0 PUSH2 0x15EF PUSH0 NOT DUP5 PUSH1 0x8 MUL PUSH2 0x15D4 JUMP JUMPDEST NOT DUP1 DUP4 AND SWAP2 POP POP SWAP3 SWAP2 POP POP JUMP JUMPDEST PUSH0 PUSH2 0x1607 DUP4 DUP4 PUSH2 0x15E0 JUMP JUMPDEST SWAP2 POP DUP3 PUSH1 0x2 MUL DUP3 OR SWAP1 POP SWAP3 SWAP2 POP POP JUMP JUMPDEST PUSH2 0x1620 DUP3 PUSH2 0xC65 JUMP JUMPDEST PUSH8 0xFFFFFFFFFFFFFFFF DUP2 GT ISZERO PUSH2 0x1639 JUMPI PUSH2 0x1638 PUSH2 0xF73 JUMP JUMPDEST JUMPDEST PUSH2 0x1643 DUP3 SLOAD PUSH2 0x11E2 JUMP JUMPDEST PUSH2 0x164E DUP3 DUP3 DUP6 PUSH2 0x158E JUMP JUMPDEST PUSH0 PUSH1 0x20 SWAP1 POP PUSH1 0x1F DUP4 GT PUSH1 0x1 DUP2 EQ PUSH2 0x167F JUMPI PUSH0 DUP5 ISZERO PUSH2 0x166D JUMPI DUP3 DUP8 ADD MLOAD SWAP1 POP JUMPDEST PUSH2 0x1677 DUP6 DUP3 PUSH2 0x15FC JUMP JUMPDEST DUP7 SSTORE POP PUSH2 0x16DE JUMP JUMPDEST PUSH1 0x1F NOT DUP5 AND PUSH2 0x168D DUP7 PUSH2 0x147A JUMP JUMPDEST PUSH0 JUMPDEST DUP3 DUP2 LT ISZERO PUSH2 0x16B4 JUMPI DUP5 DUP10 ADD MLOAD DUP3 SSTORE PUSH1 0x1 DUP3 ADD SWAP2 POP PUSH1 0x20 DUP6 ADD SWAP5 POP PUSH1 0x20 DUP2 ADD SWAP1 POP PUSH2 0x168F JUMP JUMPDEST DUP7 DUP4 LT ISZERO PUSH2 0x16D1 JUMPI DUP5 DUP10 ADD MLOAD PUSH2 0x16CD PUSH1 0x1F DUP10 AND DUP3 PUSH2 0x15E0 JUMP JUMPDEST DUP4 SSTORE POP JUMPDEST PUSH1 0x1 PUSH1 0x2 DUP9 MUL ADD DUP9 SSTORE POP POP POP JUMPDEST POP POP POP POP POP POP JUMP INVALID LOG2 PUSH5 0x6970667358 0x22 SLT KECCAK256 PUSH32 0x4E07C91C9A72203AA931B4385C384BE6E888109A84A07C7518206497AD454464 PUSH20 0x6F6C634300081A00330000000000000000000000 "
				},
				"gasEstimates": {
					"creation": {
						"codeDepositCost": "1183200",
						"executionCost": "49806",
						"totalCost": "1233006"
					},
					"external": {
						"MAX_TWEET_LENGTH()": "2485",
						"changeTweetLength(uint16)": "26959",
						"createTweet(string)": "infinite",
						"getAllTweets()": "infinite",
						"getTweet(uint256)": "infinite",
						"likeTweet(address,uint256)": "infinite",
						"owner()": "2624",
						"tweets(address,uint256)": "infinite",
						"unlikeTweet(address,uint256)": "infinite"
					}
				},
				"methodIdentifiers": {
					"MAX_TWEET_LENGTH()": "6eb10797",
					"changeTweetLength(uint16)": "58bfa4ab",
					"createTweet(string)": "7c9cd2bc",
					"getAllTweets()": "53256135",
					"getTweet(uint256)": "c3ad5ecb",
					"likeTweet(address,uint256)": "63378216",
					"owner()": "8da5cb5b",
					"tweets(address,uint256)": "05a1b4a9",
					"unlikeTweet(address,uint256)": "3d9b569f"
				}
			},
			"storageLayout": {
				"storage": [
					{
						"astId": 4,
						"contract": "contracts/Twitter.sol:Twitter",
						"label": "MAX_TWEET_LENGTH",
						"offset": 0,
						"slot": "0",
						"type": "t_uint16"
					},
					{
						"astId": 6,
						"contract": "contracts/Twitter.sol:Twitter",
						"label": "owner",
						"offset": 2,
						"slot": "0",
						"type": "t_address"
					},
					{
						"astId": 23,
						"contract": "contracts/Twitter.sol:Twitter",
						"label": "tweets",
						"offset": 0,
						"slot": "1",
						"type": "t_mapping(t_address,t_array(t_struct(Tweet)17_storage)dyn_storage)"
					}
				],
				"types": {
					"t_address": {
						"encoding": "inplace",
						"label": "address",
						"numberOfBytes": "20"
					},
					"t_array(t_struct(Tweet)17_storage)dyn_storage": {
						"base": "t_struct(Tweet)17_storage",
						"encoding": "dynamic_array",
						"label": "struct Twitter.Tweet[]",
						"numberOfBytes": "32"
					},
					"t_mapping(t_address,t_array(t_struct(Tweet)17_storage)dyn_storage)": {
						"encoding": "mapping",
						"key": "t_address",
						"label": "mapping(address => struct Twitter.Tweet[])",
						"numberOfBytes": "32",
						"value": "t_array(t_struct(Tweet)17_storage)dyn_storage"
					},
					"t_string_storage": {
						"encoding": "bytes",
						"label": "string",
						"numberOfBytes": "32"
					},
					"t_struct(Tweet)17_storage": {
						"encoding": "inplace",
						"label": "struct Twitter.Tweet",
						"members": [
							{
								"astId": 8,
								"contract": "contracts/Twitter.sol:Twitter",
								"label": "id",
								"offset": 0,
								"slot": "0",
								"type": "t_uint256"
							},
							{
								"astId": 10,
								"contract": "contracts/Twitter.sol:Twitter",
								"label": "author",
								"offset": 0,
								"slot": "1",
								"type": "t_address"
							},
							{
								"astId": 12,
								"contract": "contracts/Twitter.sol:Twitter",
								"label": "content",
								"offset": 0,
								"slot": "2",
								"type": "t_string_storage"
							},
							{
								"astId": 14,
								"contract": "contracts/Twitter.sol:Twitter",
								"label": "timestamp",
								"offset": 0,
								"slot": "3",
								"type": "t_uint256"
							},
							{
								"astId": 16,
								"contract": "contracts/Twitter.sol:Twitter",
								"label": "likes",
								"offset": 0,
								"slot": "4",
								"type": "t_uint256"
							}
						],
						"numberOfBytes": "160"
					},
					"t_uint16": {
						"encoding": "inplace",
						"label": "uint16",
						"numberOfBytes": "2"
					},
					"t_uint256": {
						"encoding": "inplace",
						"label": "uint256",
						"numberOfBytes": "32"
					}
				}
			},
			"userdoc": {
				"kind": "user",
				"methods": {},
				"version": 1
			}
		}
	}
}